{
  "_format": "hh-sol-artifact-1",
  "contractName": "SignalLogger",
  "sourceName": "contracts/SignalLogger.sol",
  "abi": [
    {
      "inputs": [],
      "stateMutability": "nonpayable",
      "type": "constructor"
    },
    {
      "anonymous": false,
      "inputs": [
        {
          "indexed": true,
          "internalType": "uint256",
          "name": "id",
          "type": "uint256"
        },
        {
          "indexed": true,
          "internalType": "uint8",
          "name": "signalType",
          "type": "uint8"
        },
        {
          "indexed": false,
          "internalType": "uint8",
          "name": "confidence",
          "type": "uint8"
        },
        {
          "indexed": false,
          "internalType": "bytes32",
          "name": "dataHash",
          "type": "bytes32"
        },
        {
          "indexed": false,
          "internalType": "string",
          "name": "txReference",
          "type": "string"
        },
        {
          "indexed": false,
          "internalType": "uint256",
          "name": "timestamp",
          "type": "uint256"
        }
      ],
      "name": "SignalLogged",
      "type": "event"
    },
    {
      "inputs": [
        {
          "internalType": "address",
          "name": "agent",
          "type": "address"
        }
      ],
      "name": "authorizeAgent",
      "outputs": [],
      "stateMutability": "nonpayable",
      "type": "function"
    },
    {
      "inputs": [
        {
          "internalType": "address",
          "name": "",
          "type": "address"
        }
      ],
      "name": "authorizedAgents",
      "outputs": [
        {
          "internalType": "bool",
          "name": "",
          "type": "bool"
        }
      ],
      "stateMutability": "view",
      "type": "function"
    },
    {
      "inputs": [
        {
          "internalType": "uint256",
          "name": "count",
          "type": "uint256"
        }
      ],
      "name": "getLatestSignals",
      "outputs": [
        {
          "components": [
            {
              "internalType": "bytes32",
              "name": "dataHash",
              "type": "bytes32"
            },
            {
              "internalType": "uint8",
              "name": "signalType",
              "type": "uint8"
            },
            {
              "internalType": "uint8",
              "name": "confidence",
              "type": "uint8"
            },
            {
              "internalType": "string",
              "name": "txReference",
              "type": "string"
            },
            {
              "internalType": "uint256",
              "name": "timestamp",
              "type": "uint256"
            },
            {
              "internalType": "address",
              "name": "triggeredBy",
              "type": "address"
            }
          ],
          "internalType": "struct SignalLogger.Signal[]",
          "name": "",
          "type": "tuple[]"
        }
      ],
      "stateMutability": "view",
      "type": "function"
    },
    {
      "inputs": [
        {
          "internalType": "uint256",
          "name": "index",
          "type": "uint256"
        }
      ],
      "name": "getSignal",
      "outputs": [
        {
          "internalType": "bytes32",
          "name": "dataHash",
          "type": "bytes32"
        },
        {
          "internalType": "uint8",
          "name": "signalType",
          "type": "uint8"
        },
        {
          "internalType": "uint8",
          "name": "confidence",
          "type": "uint8"
        },
        {
          "internalType": "string",
          "name": "txReference",
          "type": "string"
        },
        {
          "internalType": "uint256",
          "name": "timestamp",
          "type": "uint256"
        },
        {
          "internalType": "address",
          "name": "triggeredBy",
          "type": "address"
        }
      ],
      "stateMutability": "view",
      "type": "function"
    },
    {
      "inputs": [],
      "name": "getSignalCount",
      "outputs": [
        {
          "internalType": "uint256",
          "name": "",
          "type": "uint256"
        }
      ],
      "stateMutability": "view",
      "type": "function"
    },
    {
      "inputs": [
        {
          "internalType": "bytes32",
          "name": "dataHash",
          "type": "bytes32"
        },
        {
          "internalType": "uint8",
          "name": "signalType",
          "type": "uint8"
        },
        {
          "internalType": "uint8",
          "name": "confidence",
          "type": "uint8"
        },
        {
          "internalType": "string",
          "name": "txReference",
          "type": "string"
        }
      ],
      "name": "logSignal",
      "outputs": [],
      "stateMutability": "nonpayable",
      "type": "function"
    },
    {
      "inputs": [],
      "name": "owner",
      "outputs": [
        {
          "internalType": "address",
          "name": "",
          "type": "address"
        }
      ],
      "stateMutability": "view",
      "type": "function"
    },
    {
      "inputs": [
        {
          "internalType": "address",
          "name": "agent",
          "type": "address"
        }
      ],
      "name": "revokeAgent",
      "outputs": [],
      "stateMutability": "nonpayable",
      "type": "function"
    },
    {
      "inputs": [
        {
          "internalType": "uint256",
          "name": "",
          "type": "uint256"
        }
      ],
      "name": "signals",
      "outputs": [
        {
          "internalType": "bytes32",
          "name": "dataHash",
          "type": "bytes32"
        },
        {
          "internalType": "uint8",
          "name": "signalType",
          "type": "uint8"
        },
        {
          "internalType": "uint8",
          "name": "confidence",
          "type": "uint8"
        },
        {
          "internalType": "string",
          "name": "txReference",
          "type": "string"
        },
        {
          "internalType": "uint256",
          "name": "timestamp",
          "type": "uint256"
        },
        {
          "internalType": "address",
          "name": "triggeredBy",
          "type": "address"
        }
      ],
      "stateMutability": "view",
      "type": "function"
    }
  ],
  "bytecode": "0x608060405234801561001057600080fd5b50600080546001600160a01b0319163390811782558152600160208190526040909120805460ff19169091179055610d448061004d6000396000f3fe608060405234801561001057600080fd5b50600436106100935760003560e01c80637da6ac0d116100665780637da6ac0d146100ff578063828e58e2146101125780638da5cb5b14610125578063efd7606514610150578063fa51d7291461018357600080fd5b80632bb0aaa51461009857806347c740cd146100ad578063592ee87a146100db5780636d88b24d146100ec575b600080fd5b6100ab6100a63660046108ca565b6101a3565b005b6100c06100bb366004610965565b6103a8565b6040516100d2969594939291906109c4565b60405180910390f35b6002546040519081526020016100d2565b6100ab6100fa366004610a12565b610488565b6100ab61010d366004610a12565b6104f5565b6100c0610120366004610965565b61055c565b600054610138906001600160a01b031681565b6040516001600160a01b0390911681526020016100d2565b61017361015e366004610a12565b60016020526000908152604090205460ff1681565b60405190151581526020016100d2565b610196610191366004610965565b6106ae565b6040516100d29190610a42565b3360009081526001602052604090205460ff166101fe5760405162461bcd60e51b8152602060048201526014602482015273139bdd08185d5d1a1bdc9a5e9959081859d95b9d60621b60448201526064015b60405180910390fd5b60648360ff1611156102525760405162461bcd60e51b815260206004820152601860248201527f436f6e666964656e6365206d75737420626520302d313030000000000000000060448201526064016101f5565b60026040518060c001604052808781526020018660ff1681526020018560ff16815260200184848080601f01602080910402602001604051908101604052809392919081815260200183838082843760009201829052509385525050426020808501919091523360409485015285546001818101885596845292819020855160059094020192835584015194820180549385015160ff9081166101000261ffff1990951696169590951792909217909355506060810151909190600282019061031b9082610b93565b506080820151600382015560a090910151600490910180546001600160a01b0319166001600160a01b0390921691909117905560025460ff85169061036290600190610c69565b7f6b75fe5fa2a41ab0872779d102926cc96769af60976e520e0800f27d5d5707678588868642604051610399959493929190610c82565b60405180910390a35050505050565b600281815481106103b857600080fd5b600091825260209091206005909102018054600182015460028301805492945060ff8083169461010090930416926103ef90610b0a565b80601f016020809104026020016040519081016040528092919081815260200182805461041b90610b0a565b80156104685780601f1061043d57610100808354040283529160200191610468565b820191906000526020600020905b81548152906001019060200180831161044b57829003601f168201915b5050505060038301546004909301549192916001600160a01b0316905086565b6000546001600160a01b031633146104ce5760405162461bcd60e51b81526020600482015260096024820152682737ba1037bbb732b960b91b60448201526064016101f5565b6001600160a01b03166000908152600160208190526040909120805460ff19169091179055565b6000546001600160a01b0316331461053b5760405162461bcd60e51b81526020600482015260096024820152682737ba1037bbb732b960b91b60448201526064016101f5565b6001600160a01b03166000908152600160205260409020805460ff19169055565b6000806000606060008060028054905087106105b25760405162461bcd60e51b815260206004820152601560248201527414da59db985b08191bd95cc81b9bdd08195e1a5cdd605a1b60448201526064016101f5565b6000600288815481106105c7576105c7610ccc565b600091825260209091206005909102018054600182015460038301546004840154600285018054959650939460ff80851695610100909504169392916001600160a01b031690839061061890610b0a565b80601f016020809104026020016040519081016040528092919081815260200182805461064490610b0a565b80156106915780601f1061066657610100808354040283529160200191610691565b820191906000526020600020905b81548152906001019060200180831161067457829003601f168201915b505050505092509650965096509650965096505091939550919395565b60025460609060008382116106c45760006106ce565b6106ce8483610c69565b905060006106dc8284610c69565b905060008167ffffffffffffffff8111156106f9576106f9610af4565b60405190808252806020026020018201604052801561075857816020015b6040805160c081018252600080825260208083018290529282018190526060808301526080820181905260a082015282526000199092019101816107175790505b50905060005b828110156108aa5760026107728286610ce2565b8154811061078257610782610ccc565b60009182526020918290206040805160c081018252600590930290910180548352600181015460ff808216958501959095526101009004909316908201526002820180549192916060840191906107d890610b0a565b80601f016020809104026020016040519081016040528092919081815260200182805461080490610b0a565b80156108515780601f1061082657610100808354040283529160200191610851565b820191906000526020600020905b81548152906001019060200180831161083457829003601f168201915b5050509183525050600382015460208201526004909101546001600160a01b0316604090910152825183908390811061088c5761088c610ccc565b602002602001018190525080806108a290610cf5565b91505061075e565b5095945050505050565b803560ff811681146108c557600080fd5b919050565b6000806000806000608086880312156108e257600080fd5b853594506108f2602087016108b4565b9350610900604087016108b4565b9250606086013567ffffffffffffffff8082111561091d57600080fd5b818801915088601f83011261093157600080fd5b81358181111561094057600080fd5b89602082850101111561095257600080fd5b9699959850939650602001949392505050565b60006020828403121561097757600080fd5b5035919050565b6000815180845260005b818110156109a457602081850181015186830182015201610988565b506000602082860101526020601f19601f83011685010191505092915050565b86815260ff8616602082015260ff8516604082015260c0606082015260006109ef60c083018661097e565b6080830194909452506001600160a01b039190911660a090910152949350505050565b600060208284031215610a2457600080fd5b81356001600160a01b0381168114610a3b57600080fd5b9392505050565b60006020808301818452808551808352604092508286019150828160051b87010184880160005b83811015610ae657888303603f190185528151805184528781015160ff9081168986015287820151168785015260608082015160c08287018190529190610ab28388018261097e565b6080858101519089015260a0948501516001600160a01b031694909701939093525050509386019390860190600101610a69565b509098975050505050505050565b634e487b7160e01b600052604160045260246000fd5b600181811c90821680610b1e57607f821691505b602082108103610b3e57634e487b7160e01b600052602260045260246000fd5b50919050565b601f821115610b8e57600081815260208120601f850160051c81016020861015610b6b5750805b601f850160051c820191505b81811015610b8a57828155600101610b77565b5050505b505050565b815167ffffffffffffffff811115610bad57610bad610af4565b610bc181610bbb8454610b0a565b84610b44565b602080601f831160018114610bf65760008415610bde5750858301515b600019600386901b1c1916600185901b178555610b8a565b600085815260208120601f198616915b82811015610c2557888601518255948401946001909101908401610c06565b5085821015610c435787850151600019600388901b60f8161c191681555b5050505050600190811b01905550565b634e487b7160e01b600052601160045260246000fd5b81810381811115610c7c57610c7c610c53565b92915050565b60ff8616815284602082015260806040820152826080820152828460a0830137600060a08483010152600060a0601f19601f86011683010190508260608301529695505050505050565b634e487b7160e01b600052603260045260246000fd5b80820180821115610c7c57610c7c610c53565b600060018201610d0757610d07610c53565b506001019056fea2646970667358221220c8c264e7e6dfa89ddae1e30ba18f78ca2feb40643dc4b96a72ce08fa9627969764736f6c63430008140033",
  "linkReferences": {},
  "deployedLinkReferences": {}
}