{
	"SignalLogger.sol": {
		"SignalLogger": {
			"abi": [
				{
					"inputs": [],
					"stateMutability": "nonpayable",
					"type": "constructor"
				},
				{
					"anonymous": false,
					"inputs": [
						{
							"indexed": true,
							"internalType": "uint256",
							"name": "id",
							"type": "uint256"
						},
						{
							"indexed": true,
							"internalType": "uint8",
							"name": "signalType",
							"type": "uint8"
						},
						{
							"indexed": false,
							"internalType": "uint8",
							"name": "confidence",
							"type": "uint8"
						},
						{
							"indexed": false,
							"internalType": "bytes32",
							"name": "dataHash",
							"type": "bytes32"
						},
						{
							"indexed": false,
							"internalType": "string",
							"name": "txReference",
							"type": "string"
						},
						{
							"indexed": false,
							"internalType": "uint256",
							"name": "timestamp",
							"type": "uint256"
						}
					],
					"name": "SignalLogged",
					"type": "event"
				},
				{
					"inputs": [
						{
							"internalType": "address",
							"name": "agent",
							"type": "address"
						}
					],
					"name": "authorizeAgent",
					"outputs": [],
					"stateMutability": "nonpayable",
					"type": "function"
				},
				{
					"inputs": [
						{
							"internalType": "address",
							"name": "",
							"type": "address"
						}
					],
					"name": "authorizedAgents",
					"outputs": [
						{
							"internalType": "bool",
							"name": "",
							"type": "bool"
						}
					],
					"stateMutability": "view",
					"type": "function"
				},
				{
					"inputs": [
						{
							"internalType": "uint256",
							"name": "count",
							"type": "uint256"
						}
					],
					"name": "getLatestSignals",
					"outputs": [
						{
							"components": [
								{
									"internalType": "bytes32",
									"name": "dataHash",
									"type": "bytes32"
								},
								{
									"internalType": "uint8",
									"name": "signalType",
									"type": "uint8"
								},
								{
									"internalType": "uint8",
									"name": "confidence",
									"type": "uint8"
								},
								{
									"internalType": "string",
									"name": "txReference",
									"type": "string"
								},
								{
									"internalType": "uint256",
									"name": "timestamp",
									"type": "uint256"
								},
								{
									"internalType": "address",
									"name": "triggeredBy",
									"type": "address"
								}
							],
							"internalType": "struct SignalLogger.Signal[]",
							"name": "",
							"type": "tuple[]"
						}
					],
					"stateMutability": "view",
					"type": "function"
				},
				{
					"inputs": [
						{
							"internalType": "uint256",
							"name": "index",
							"type": "uint256"
						}
					],
					"name": "getSignal",
					"outputs": [
						{
							"internalType": "bytes32",
							"name": "dataHash",
							"type": "bytes32"
						},
						{
							"internalType": "uint8",
							"name": "signalType",
							"type": "uint8"
						},
						{
							"internalType": "uint8",
							"name": "confidence",
							"type": "uint8"
						},
						{
							"internalType": "string",
							"name": "txReference",
							"type": "string"
						},
						{
							"internalType": "uint256",
							"name": "timestamp",
							"type": "uint256"
						},
						{
							"internalType": "address",
							"name": "triggeredBy",
							"type": "address"
						}
					],
					"stateMutability": "view",
					"type": "function"
				},
				{
					"inputs": [],
					"name": "getSignalCount",
					"outputs": [
						{
							"internalType": "uint256",
							"name": "",
							"type": "uint256"
						}
					],
					"stateMutability": "view",
					"type": "function"
				},
				{
					"inputs": [
						{
							"internalType": "bytes32",
							"name": "dataHash",
							"type": "bytes32"
						},
						{
							"internalType": "uint8",
							"name": "signalType",
							"type": "uint8"
						},
						{
							"internalType": "uint8",
							"name": "confidence",
							"type": "uint8"
						},
						{
							"internalType": "string",
							"name": "txReference",
							"type": "string"
						}
					],
					"name": "logSignal",
					"outputs": [],
					"stateMutability": "nonpayable",
					"type": "function"
				},
				{
					"inputs": [],
					"name": "owner",
					"outputs": [
						{
							"internalType": "address",
							"name": "",
							"type": "address"
						}
					],
					"stateMutability": "view",
					"type": "function"
				},
				{
					"inputs": [
						{
							"internalType": "address",
							"name": "agent",
							"type": "address"
						}
					],
					"name": "revokeAgent",
					"outputs": [],
					"stateMutability": "nonpayable",
					"type": "function"
				},
				{
					"inputs": [
						{
							"internalType": "uint256",
							"name": "",
							"type": "uint256"
						}
					],
					"name": "signals",
					"outputs": [
						{
							"internalType": "bytes32",
							"name": "dataHash",
							"type": "bytes32"
						},
						{
							"internalType": "uint8",
							"name": "signalType",
							"type": "uint8"
						},
						{
							"internalType": "uint8",
							"name": "confidence",
							"type": "uint8"
						},
						{
							"internalType": "string",
							"name": "txReference",
							"type": "string"
						},
						{
							"internalType": "uint256",
							"name": "timestamp",
							"type": "uint256"
						},
						{
							"internalType": "address",
							"name": "triggeredBy",
							"type": "address"
						}
					],
					"stateMutability": "view",
					"type": "function"
				}
			],
			"devdoc": {
				"kind": "dev",
				"methods": {},
				"version": 1
			},
			"evm": {
				"assembly": "    /* \"SignalLogger.sol\":58:3014  contract SignalLogger {... */\n  mstore(0x40, 0x80)\n    /* \"SignalLogger.sol\":929:1023  constructor() {... */\n  callvalue\n  dup1\n  iszero\n  tag_1\n  jumpi\n  revert(0x00, 0x00)\ntag_1:\n  pop\n    /* \"SignalLogger.sol\":961:971  msg.sender */\n  caller\n    /* \"SignalLogger.sol\":953:958  owner */\n  0x00\n  0x00\n    /* \"SignalLogger.sol\":953:971  owner = msg.sender */\n  0x0100\n  exp\n  dup2\n  sload\n  dup2\n  0xffffffffffffffffffffffffffffffffffffffff\n  mul\n  not\n  and\n  swap1\n  dup4\n  0xffffffffffffffffffffffffffffffffffffffff\n  and\n  mul\n  or\n  swap1\n  sstore\n  pop\n    /* \"SignalLogger.sol\":1012:1016  true */\n  0x01\n    /* \"SignalLogger.sol\":981:997  authorizedAgents */\n  dup1\n    /* \"SignalLogger.sol\":981:1009  authorizedAgents[msg.sender] */\n  0x00\n    /* \"SignalLogger.sol\":998:1008  msg.sender */\n  caller\n    /* \"SignalLogger.sol\":981:1009  authorizedAgents[msg.sender] */\n  0xffffffffffffffffffffffffffffffffffffffff\n  and\n  0xffffffffffffffffffffffffffffffffffffffff\n  and\n  dup2\n  mstore\n  0x20\n  add\n  swap1\n  dup2\n  mstore\n  0x20\n  add\n  0x00\n  keccak256\n  0x00\n    /* \"SignalLogger.sol\":981:1016  authorizedAgents[msg.sender] = true */\n  0x0100\n  exp\n  dup2\n  sload\n  dup2\n  0xff\n  mul\n  not\n  and\n  swap1\n  dup4\n  iszero\n  iszero\n  mul\n  or\n  swap1\n  sstore\n  pop\n    /* \"SignalLogger.sol\":58:3014  contract SignalLogger {... */\n  dataSize(sub_0)\n  dup1\n  dataOffset(sub_0)\n  0x00\n  codecopy\n  0x00\n  return\nstop\n\nsub_0: assembly {\n        /* \"SignalLogger.sol\":58:3014  contract SignalLogger {... */\n      mstore(0x40, 0x80)\n      callvalue\n      dup1\n      iszero\n      tag_1\n      jumpi\n      revert(0x00, 0x00)\n    tag_1:\n      pop\n      jumpi(tag_2, lt(calldatasize, 0x04))\n      shr(0xe0, calldataload(0x00))\n      dup1\n      0x7da6ac0d\n      gt\n      tag_12\n      jumpi\n      dup1\n      0x7da6ac0d\n      eq\n      tag_7\n      jumpi\n      dup1\n      0x828e58e2\n      eq\n      tag_8\n      jumpi\n      dup1\n      0x8da5cb5b\n      eq\n      tag_9\n      jumpi\n      dup1\n      0xefd76065\n      eq\n      tag_10\n      jumpi\n      dup1\n      0xfa51d729\n      eq\n      tag_11\n      jumpi\n      jump(tag_2)\n    tag_12:\n      dup1\n      0x2bb0aaa5\n      eq\n      tag_3\n      jumpi\n      dup1\n      0x47c740cd\n      eq\n      tag_4\n      jumpi\n      dup1\n      0x592ee87a\n      eq\n      tag_5\n      jumpi\n      dup1\n      0x6d88b24d\n      eq\n      tag_6\n      jumpi\n    tag_2:\n      revert(0x00, 0x00)\n        /* \"SignalLogger.sol\":1249:1953  function logSignal(... */\n    tag_3:\n      tag_13\n      0x04\n      dup1\n      calldatasize\n      sub\n      dup2\n      add\n      swap1\n      tag_14\n      swap2\n      swap1\n      tag_15\n      jump\t// in\n    tag_14:\n      tag_16\n      jump\t// in\n    tag_13:\n      stop\n        /* \"SignalLogger.sol\":477:500  Signal[] public signals */\n    tag_4:\n      tag_17\n      0x04\n      dup1\n      calldatasize\n      sub\n      dup2\n      add\n      swap1\n      tag_18\n      swap2\n      swap1\n      tag_19\n      jump\t// in\n    tag_18:\n      tag_20\n      jump\t// in\n    tag_17:\n      mload(0x40)\n      tag_21\n      swap7\n      swap6\n      swap5\n      swap4\n      swap3\n      swap2\n      swap1\n      tag_22\n      jump\t// in\n    tag_21:\n      mload(0x40)\n      dup1\n      swap2\n      sub\n      swap1\n      return\n        /* \"SignalLogger.sol\":1959:2055  function getSignalCount() external view returns (uint256) {... */\n    tag_5:\n      tag_23\n      tag_24\n      jump\t// in\n    tag_23:\n      mload(0x40)\n      tag_25\n      swap2\n      swap1\n      tag_26\n      jump\t// in\n    tag_25:\n      mload(0x40)\n      dup1\n      swap2\n      sub\n      swap1\n      return\n        /* \"SignalLogger.sol\":1029:1134  function authorizeAgent(address agent) external onlyOwner {... */\n    tag_6:\n      tag_27\n      0x04\n      dup1\n      calldatasize\n      sub\n      dup2\n      add\n      swap1\n      tag_28\n      swap2\n      swap1\n      tag_29\n      jump\t// in\n    tag_28:\n      tag_30\n      jump\t// in\n    tag_27:\n      stop\n        /* \"SignalLogger.sol\":1140:1243  function revokeAgent(address agent) external onlyOwner {... */\n    tag_7:\n      tag_31\n      0x04\n      dup1\n      calldatasize\n      sub\n      dup2\n      add\n      swap1\n      tag_32\n      swap2\n      swap1\n      tag_29\n      jump\t// in\n    tag_32:\n      tag_33\n      jump\t// in\n    tag_31:\n      stop\n        /* \"SignalLogger.sol\":2061:2605  function getSignal(uint256 index) external view returns (... */\n    tag_8:\n      tag_34\n      0x04\n      dup1\n      calldatasize\n      sub\n      dup2\n      add\n      swap1\n      tag_35\n      swap2\n      swap1\n      tag_19\n      jump\t// in\n    tag_35:\n      tag_36\n      jump\t// in\n    tag_34:\n      mload(0x40)\n      tag_37\n      swap7\n      swap6\n      swap5\n      swap4\n      swap3\n      swap2\n      swap1\n      tag_22\n      jump\t// in\n    tag_37:\n      mload(0x40)\n      dup1\n      swap2\n      sub\n      swap1\n      return\n        /* \"SignalLogger.sol\":397:417  address public owner */\n    tag_9:\n      tag_38\n      tag_39\n      jump\t// in\n    tag_38:\n      mload(0x40)\n      tag_40\n      swap2\n      swap1\n      tag_41\n      jump\t// in\n    tag_40:\n      mload(0x40)\n      dup1\n      swap2\n      sub\n      swap1\n      return\n        /* \"SignalLogger.sol\":423:471  mapping(address => bool) public authorizedAgents */\n    tag_10:\n      tag_42\n      0x04\n      dup1\n      calldatasize\n      sub\n      dup2\n      add\n      swap1\n      tag_43\n      swap2\n      swap1\n      tag_29\n      jump\t// in\n    tag_43:\n      tag_44\n      jump\t// in\n    tag_42:\n      mload(0x40)\n      tag_45\n      swap2\n      swap1\n      tag_46\n      jump\t// in\n    tag_45:\n      mload(0x40)\n      dup1\n      swap2\n      sub\n      swap1\n      return\n        /* \"SignalLogger.sol\":2611:3012  function getLatestSignals(uint256 count) external view returns (Signal[] memory) {... */\n    tag_11:\n      tag_47\n      0x04\n      dup1\n      calldatasize\n      sub\n      dup2\n      add\n      swap1\n      tag_48\n      swap2\n      swap1\n      tag_19\n      jump\t// in\n    tag_48:\n      tag_49\n      jump\t// in\n    tag_47:\n      mload(0x40)\n      tag_50\n      swap2\n      swap1\n      tag_51\n      jump\t// in\n    tag_50:\n      mload(0x40)\n      dup1\n      swap2\n      sub\n      swap1\n      return\n        /* \"SignalLogger.sol\":1249:1953  function logSignal(... */\n    tag_16:\n        /* \"SignalLogger.sol\":852:868  authorizedAgents */\n      0x01\n        /* \"SignalLogger.sol\":852:880  authorizedAgents[msg.sender] */\n      0x00\n        /* \"SignalLogger.sol\":869:879  msg.sender */\n      caller\n        /* \"SignalLogger.sol\":852:880  authorizedAgents[msg.sender] */\n      0xffffffffffffffffffffffffffffffffffffffff\n      and\n      0xffffffffffffffffffffffffffffffffffffffff\n      and\n      dup2\n      mstore\n      0x20\n      add\n      swap1\n      dup2\n      mstore\n      0x20\n      add\n      0x00\n      keccak256\n      0x00\n      swap1\n      sload\n      swap1\n      0x0100\n      exp\n      swap1\n      div\n      0xff\n      and\n        /* \"SignalLogger.sol\":844:905  require(authorizedAgents[msg.sender], \"Not authorized agent\") */\n      tag_53\n      jumpi\n      mload(0x40)\n      0x08c379a000000000000000000000000000000000000000000000000000000000\n      dup2\n      mstore\n      0x04\n      add\n      tag_54\n      swap1\n      tag_55\n      jump\t// in\n    tag_54:\n      mload(0x40)\n      dup1\n      swap2\n      sub\n      swap1\n      revert\n    tag_53:\n        /* \"SignalLogger.sol\":1450:1453  100 */\n      0x64\n        /* \"SignalLogger.sol\":1436:1446  confidence */\n      dup4\n        /* \"SignalLogger.sol\":1436:1453  confidence <= 100 */\n      0xff\n      and\n      gt\n      iszero\n        /* \"SignalLogger.sol\":1428:1482  require(confidence <= 100, \"Confidence must be 0-100\") */\n      tag_57\n      jumpi\n      mload(0x40)\n      0x08c379a000000000000000000000000000000000000000000000000000000000\n      dup2\n      mstore\n      0x04\n      add\n      tag_58\n      swap1\n      tag_59\n      jump\t// in\n    tag_58:\n      mload(0x40)\n      dup1\n      swap2\n      sub\n      swap1\n      revert\n    tag_57:\n        /* \"SignalLogger.sol\":1501:1508  signals */\n      0x02\n        /* \"SignalLogger.sol\":1514:1751  Signal({... */\n      mload(0x40)\n      dup1\n      0xc0\n      add\n      0x40\n      mstore\n      dup1\n        /* \"SignalLogger.sol\":1545:1553  dataHash */\n      dup8\n        /* \"SignalLogger.sol\":1514:1751  Signal({... */\n      dup2\n      mstore\n      0x20\n      add\n        /* \"SignalLogger.sol\":1579:1589  signalType */\n      dup7\n        /* \"SignalLogger.sol\":1514:1751  Signal({... */\n      0xff\n      and\n      dup2\n      mstore\n      0x20\n      add\n        /* \"SignalLogger.sol\":1615:1625  confidence */\n      dup6\n        /* \"SignalLogger.sol\":1514:1751  Signal({... */\n      0xff\n      and\n      dup2\n      mstore\n      0x20\n      add\n        /* \"SignalLogger.sol\":1652:1663  txReference */\n      dup5\n      dup5\n        /* \"SignalLogger.sol\":1514:1751  Signal({... */\n      dup1\n      dup1\n      0x1f\n      add\n      0x20\n      dup1\n      swap2\n      div\n      mul\n      0x20\n      add\n      mload(0x40)\n      swap1\n      dup2\n      add\n      0x40\n      mstore\n      dup1\n      swap4\n      swap3\n      swap2\n      swap1\n      dup2\n      dup2\n      mstore\n      0x20\n      add\n      dup4\n      dup4\n      dup1\n      dup3\n      dup5\n      calldatacopy\n      0x00\n      dup2\n      dup5\n      add\n      mstore\n      not(0x1f)\n      0x1f\n      dup3\n      add\n      and\n      swap1\n      pop\n      dup1\n      dup4\n      add\n      swap3\n      pop\n      pop\n      pop\n      pop\n      pop\n      pop\n      pop\n      dup2\n      mstore\n      0x20\n      add\n        /* \"SignalLogger.sol\":1688:1703  block.timestamp */\n      timestamp\n        /* \"SignalLogger.sol\":1514:1751  Signal({... */\n      dup2\n      mstore\n      0x20\n      add\n        /* \"SignalLogger.sol\":1730:1740  msg.sender */\n      caller\n        /* \"SignalLogger.sol\":1514:1751  Signal({... */\n      0xffffffffffffffffffffffffffffffffffffffff\n      and\n      dup2\n      mstore\n      pop\n        /* \"SignalLogger.sol\":1501:1752  signals.push(Signal({... */\n      swap1\n      dup1\n      0x01\n      dup2\n      sload\n      add\n      dup1\n      dup3\n      sstore\n      dup1\n      swap2\n      pop\n      pop\n      0x01\n      swap1\n      sub\n      swap1\n      0x00\n      mstore\n      keccak256(0x00, 0x20)\n      swap1\n      0x05\n      mul\n      add\n      0x00\n      swap1\n      swap2\n      swap1\n      swap2\n      swap1\n      swap2\n      pop\n      0x00\n      dup3\n      add\n      mload\n      dup2\n      0x00\n      add\n      sstore\n      0x20\n      dup3\n      add\n      mload\n      dup2\n      0x01\n      add\n      exp(0x0100, 0x00)\n      dup2\n      sload\n      dup2\n      0xff\n      mul\n      not\n      and\n      swap1\n      dup4\n      0xff\n      and\n      mul\n      or\n      swap1\n      sstore\n      pop\n      0x40\n      dup3\n      add\n      mload\n      dup2\n      0x01\n      add\n      exp(0x0100, 0x01)\n      dup2\n      sload\n      dup2\n      0xff\n      mul\n      not\n      and\n      swap1\n      dup4\n      0xff\n      and\n      mul\n      or\n      swap1\n      sstore\n      pop\n      0x60\n      dup3\n      add\n      mload\n      dup2\n      0x02\n      add\n      swap1\n      dup2\n      tag_61\n      swap2\n      swap1\n      tag_62\n      jump\t// in\n    tag_61:\n      pop\n      0x80\n      dup3\n      add\n      mload\n      dup2\n      0x03\n      add\n      sstore\n      0xa0\n      dup3\n      add\n      mload\n      dup2\n      0x04\n      add\n      exp(0x0100, 0x00)\n      dup2\n      sload\n      dup2\n      0xffffffffffffffffffffffffffffffffffffffff\n      mul\n      not\n      and\n      swap1\n      dup4\n      0xffffffffffffffffffffffffffffffffffffffff\n      and\n      mul\n      or\n      swap1\n      sstore\n      pop\n      pop\n      pop\n        /* \"SignalLogger.sol\":1826:1836  signalType */\n      dup4\n        /* \"SignalLogger.sol\":1768:1946  SignalLogged(... */\n      0xff\n      and\n        /* \"SignalLogger.sol\":1811:1812  1 */\n      0x01\n        /* \"SignalLogger.sol\":1794:1801  signals */\n      0x02\n        /* \"SignalLogger.sol\":1794:1808  signals.length */\n      dup1\n      sload\n      swap1\n      pop\n        /* \"SignalLogger.sol\":1794:1812  signals.length - 1 */\n      tag_63\n      swap2\n      swap1\n      tag_64\n      jump\t// in\n    tag_63:\n        /* \"SignalLogger.sol\":1768:1946  SignalLogged(... */\n      0x6b75fe5fa2a41ab0872779d102926cc96769af60976e520e0800f27d5d570767\n        /* \"SignalLogger.sol\":1850:1860  confidence */\n      dup6\n        /* \"SignalLogger.sol\":1874:1882  dataHash */\n      dup9\n        /* \"SignalLogger.sol\":1896:1907  txReference */\n      dup7\n      dup7\n        /* \"SignalLogger.sol\":1921:1936  block.timestamp */\n      timestamp\n        /* \"SignalLogger.sol\":1768:1946  SignalLogged(... */\n      mload(0x40)\n      tag_65\n      swap6\n      swap5\n      swap4\n      swap3\n      swap2\n      swap1\n      tag_66\n      jump\t// in\n    tag_65:\n      mload(0x40)\n      dup1\n      swap2\n      sub\n      swap1\n      log3\n        /* \"SignalLogger.sol\":1249:1953  function logSignal(... */\n      pop\n      pop\n      pop\n      pop\n      pop\n      jump\t// out\n        /* \"SignalLogger.sol\":477:500  Signal[] public signals */\n    tag_20:\n      0x02\n      dup2\n      dup2\n      sload\n      dup2\n      lt\n      tag_67\n      jumpi\n      0x00\n      dup1\n      revert\n    tag_67:\n      swap1\n      0x00\n      mstore\n      keccak256(0x00, 0x20)\n      swap1\n      0x05\n      mul\n      add\n      0x00\n      swap2\n      pop\n      swap1\n      pop\n      dup1\n      0x00\n      add\n      sload\n      swap1\n      dup1\n      0x01\n      add\n      0x00\n      swap1\n      sload\n      swap1\n      0x0100\n      exp\n      swap1\n      div\n      0xff\n      and\n      swap1\n      dup1\n      0x01\n      add\n      0x01\n      swap1\n      sload\n      swap1\n      0x0100\n      exp\n      swap1\n      div\n      0xff\n      and\n      swap1\n      dup1\n      0x02\n      add\n      dup1\n      sload\n      tag_69\n      swap1\n      tag_70\n      jump\t// in\n    tag_69:\n      dup1\n      0x1f\n      add\n      0x20\n      dup1\n      swap2\n      div\n      mul\n      0x20\n      add\n      mload(0x40)\n      swap1\n      dup2\n      add\n      0x40\n      mstore\n      dup1\n      swap3\n      swap2\n      swap1\n      dup2\n      dup2\n      mstore\n      0x20\n      add\n      dup3\n      dup1\n      sload\n      tag_71\n      swap1\n      tag_70\n      jump\t// in\n    tag_71:\n      dup1\n      iszero\n      tag_72\n      jumpi\n      dup1\n      0x1f\n      lt\n      tag_73\n      jumpi\n      0x0100\n      dup1\n      dup4\n      sload\n      div\n      mul\n      dup4\n      mstore\n      swap2\n      0x20\n      add\n      swap2\n      jump(tag_72)\n    tag_73:\n      dup3\n      add\n      swap2\n      swap1\n      0x00\n      mstore\n      keccak256(0x00, 0x20)\n      swap1\n    tag_74:\n      dup2\n      sload\n      dup2\n      mstore\n      swap1\n      0x01\n      add\n      swap1\n      0x20\n      add\n      dup1\n      dup4\n      gt\n      tag_74\n      jumpi\n      dup3\n      swap1\n      sub\n      0x1f\n      and\n      dup3\n      add\n      swap2\n    tag_72:\n      pop\n      pop\n      pop\n      pop\n      pop\n      swap1\n      dup1\n      0x03\n      add\n      sload\n      swap1\n      dup1\n      0x04\n      add\n      0x00\n      swap1\n      sload\n      swap1\n      0x0100\n      exp\n      swap1\n      div\n      0xffffffffffffffffffffffffffffffffffffffff\n      and\n      swap1\n      pop\n      dup7\n      jump\t// out\n        /* \"SignalLogger.sol\":1959:2055  function getSignalCount() external view returns (uint256) {... */\n    tag_24:\n        /* \"SignalLogger.sol\":2008:2015  uint256 */\n      0x00\n        /* \"SignalLogger.sol\":2034:2041  signals */\n      0x02\n        /* \"SignalLogger.sol\":2034:2048  signals.length */\n      dup1\n      sload\n      swap1\n      pop\n        /* \"SignalLogger.sol\":2027:2048  return signals.length */\n      swap1\n      pop\n        /* \"SignalLogger.sol\":1959:2055  function getSignalCount() external view returns (uint256) {... */\n      swap1\n      jump\t// out\n        /* \"SignalLogger.sol\":1029:1134  function authorizeAgent(address agent) external onlyOwner {... */\n    tag_30:\n        /* \"SignalLogger.sol\":760:765  owner */\n      0x00\n      0x00\n      swap1\n      sload\n      swap1\n      0x0100\n      exp\n      swap1\n      div\n      0xffffffffffffffffffffffffffffffffffffffff\n      and\n        /* \"SignalLogger.sol\":746:765  msg.sender == owner */\n      0xffffffffffffffffffffffffffffffffffffffff\n      and\n        /* \"SignalLogger.sol\":746:756  msg.sender */\n      caller\n        /* \"SignalLogger.sol\":746:765  msg.sender == owner */\n      0xffffffffffffffffffffffffffffffffffffffff\n      and\n      eq\n        /* \"SignalLogger.sol\":738:779  require(msg.sender == owner, \"Not owner\") */\n      tag_77\n      jumpi\n      mload(0x40)\n      0x08c379a000000000000000000000000000000000000000000000000000000000\n      dup2\n      mstore\n      0x04\n      add\n      tag_78\n      swap1\n      tag_79\n      jump\t// in\n    tag_78:\n      mload(0x40)\n      dup1\n      swap2\n      sub\n      swap1\n      revert\n    tag_77:\n        /* \"SignalLogger.sol\":1123:1127  true */\n      0x01\n        /* \"SignalLogger.sol\":1097:1113  authorizedAgents */\n      dup1\n        /* \"SignalLogger.sol\":1097:1120  authorizedAgents[agent] */\n      0x00\n        /* \"SignalLogger.sol\":1114:1119  agent */\n      dup4\n        /* \"SignalLogger.sol\":1097:1120  authorizedAgents[agent] */\n      0xffffffffffffffffffffffffffffffffffffffff\n      and\n      0xffffffffffffffffffffffffffffffffffffffff\n      and\n      dup2\n      mstore\n      0x20\n      add\n      swap1\n      dup2\n      mstore\n      0x20\n      add\n      0x00\n      keccak256\n      0x00\n        /* \"SignalLogger.sol\":1097:1127  authorizedAgents[agent] = true */\n      0x0100\n      exp\n      dup2\n      sload\n      dup2\n      0xff\n      mul\n      not\n      and\n      swap1\n      dup4\n      iszero\n      iszero\n      mul\n      or\n      swap1\n      sstore\n      pop\n        /* \"SignalLogger.sol\":1029:1134  function authorizeAgent(address agent) external onlyOwner {... */\n      pop\n      jump\t// out\n        /* \"SignalLogger.sol\":1140:1243  function revokeAgent(address agent) external onlyOwner {... */\n    tag_33:\n        /* \"SignalLogger.sol\":760:765  owner */\n      0x00\n      0x00\n      swap1\n      sload\n      swap1\n      0x0100\n      exp\n      swap1\n      div\n      0xffffffffffffffffffffffffffffffffffffffff\n      and\n        /* \"SignalLogger.sol\":746:765  msg.sender == owner */\n      0xffffffffffffffffffffffffffffffffffffffff\n      and\n        /* \"SignalLogger.sol\":746:756  msg.sender */\n      caller\n        /* \"SignalLogger.sol\":746:765  msg.sender == owner */\n      0xffffffffffffffffffffffffffffffffffffffff\n      and\n      eq\n        /* \"SignalLogger.sol\":738:779  require(msg.sender == owner, \"Not owner\") */\n      tag_82\n      jumpi\n      mload(0x40)\n      0x08c379a000000000000000000000000000000000000000000000000000000000\n      dup2\n      mstore\n      0x04\n      add\n      tag_83\n      swap1\n      tag_79\n      jump\t// in\n    tag_83:\n      mload(0x40)\n      dup1\n      swap2\n      sub\n      swap1\n      revert\n    tag_82:\n        /* \"SignalLogger.sol\":1231:1236  false */\n      0x00\n        /* \"SignalLogger.sol\":1205:1221  authorizedAgents */\n      0x01\n        /* \"SignalLogger.sol\":1205:1228  authorizedAgents[agent] */\n      0x00\n        /* \"SignalLogger.sol\":1222:1227  agent */\n      dup4\n        /* \"SignalLogger.sol\":1205:1228  authorizedAgents[agent] */\n      0xffffffffffffffffffffffffffffffffffffffff\n      and\n      0xffffffffffffffffffffffffffffffffffffffff\n      and\n      dup2\n      mstore\n      0x20\n      add\n      swap1\n      dup2\n      mstore\n      0x20\n      add\n      0x00\n      keccak256\n      0x00\n        /* \"SignalLogger.sol\":1205:1236  authorizedAgents[agent] = false */\n      0x0100\n      exp\n      dup2\n      sload\n      dup2\n      0xff\n      mul\n      not\n      and\n      swap1\n      dup4\n      iszero\n      iszero\n      mul\n      or\n      swap1\n      sstore\n      pop\n        /* \"SignalLogger.sol\":1140:1243  function revokeAgent(address agent) external onlyOwner {... */\n      pop\n      jump\t// out\n        /* \"SignalLogger.sol\":2061:2605  function getSignal(uint256 index) external view returns (... */\n    tag_36:\n        /* \"SignalLogger.sol\":2127:2143  bytes32 dataHash */\n      0x00\n        /* \"SignalLogger.sol\":2153:2169  uint8 signalType */\n      0x00\n        /* \"SignalLogger.sol\":2179:2195  uint8 confidence */\n      0x00\n        /* \"SignalLogger.sol\":2205:2230  string memory txReference */\n      0x60\n        /* \"SignalLogger.sol\":2240:2257  uint256 timestamp */\n      0x00\n        /* \"SignalLogger.sol\":2267:2286  address triggeredBy */\n      0x00\n        /* \"SignalLogger.sol\":2319:2326  signals */\n      0x02\n        /* \"SignalLogger.sol\":2319:2333  signals.length */\n      dup1\n      sload\n      swap1\n      pop\n        /* \"SignalLogger.sol\":2311:2316  index */\n      dup8\n        /* \"SignalLogger.sol\":2311:2333  index < signals.length */\n      lt\n        /* \"SignalLogger.sol\":2303:2359  require(index < signals.length, \"Signal does not exist\") */\n      tag_86\n      jumpi\n      mload(0x40)\n      0x08c379a000000000000000000000000000000000000000000000000000000000\n      dup2\n      mstore\n      0x04\n      add\n      tag_87\n      swap1\n      tag_88\n      jump\t// in\n    tag_87:\n      mload(0x40)\n      dup1\n      swap2\n      sub\n      swap1\n      revert\n    tag_86:\n        /* \"SignalLogger.sol\":2369:2387  Signal storage sig */\n      0x00\n        /* \"SignalLogger.sol\":2390:2397  signals */\n      0x02\n        /* \"SignalLogger.sol\":2398:2403  index */\n      dup9\n        /* \"SignalLogger.sol\":2390:2404  signals[index] */\n      dup2\n      sload\n      dup2\n      lt\n      tag_89\n      jumpi\n      tag_90\n      tag_91\n      jump\t// in\n    tag_90:\n    tag_89:\n      swap1\n      0x00\n      mstore\n      keccak256(0x00, 0x20)\n      swap1\n      0x05\n      mul\n      add\n        /* \"SignalLogger.sol\":2369:2404  Signal storage sig = signals[index] */\n      swap1\n      pop\n        /* \"SignalLogger.sol\":2435:2438  sig */\n      dup1\n        /* \"SignalLogger.sol\":2435:2447  sig.dataHash */\n      0x00\n      add\n      sload\n        /* \"SignalLogger.sol\":2461:2464  sig */\n      dup2\n        /* \"SignalLogger.sol\":2461:2475  sig.signalType */\n      0x01\n      add\n      0x00\n      swap1\n      sload\n      swap1\n      0x0100\n      exp\n      swap1\n      div\n      0xff\n      and\n        /* \"SignalLogger.sol\":2489:2492  sig */\n      dup3\n        /* \"SignalLogger.sol\":2489:2503  sig.confidence */\n      0x01\n      add\n      0x01\n      swap1\n      sload\n      swap1\n      0x0100\n      exp\n      swap1\n      div\n      0xff\n      and\n        /* \"SignalLogger.sol\":2517:2520  sig */\n      dup4\n        /* \"SignalLogger.sol\":2517:2532  sig.txReference */\n      0x02\n      add\n        /* \"SignalLogger.sol\":2546:2549  sig */\n      dup5\n        /* \"SignalLogger.sol\":2546:2559  sig.timestamp */\n      0x03\n      add\n      sload\n        /* \"SignalLogger.sol\":2573:2576  sig */\n      dup6\n        /* \"SignalLogger.sol\":2573:2588  sig.triggeredBy */\n      0x04\n      add\n      0x00\n      swap1\n      sload\n      swap1\n      0x0100\n      exp\n      swap1\n      div\n      0xffffffffffffffffffffffffffffffffffffffff\n      and\n        /* \"SignalLogger.sol\":2414:2598  return (... */\n      dup3\n      dup1\n      sload\n      tag_93\n      swap1\n      tag_70\n      jump\t// in\n    tag_93:\n      dup1\n      0x1f\n      add\n      0x20\n      dup1\n      swap2\n      div\n      mul\n      0x20\n      add\n      mload(0x40)\n      swap1\n      dup2\n      add\n      0x40\n      mstore\n      dup1\n      swap3\n      swap2\n      swap1\n      dup2\n      dup2\n      mstore\n      0x20\n      add\n      dup3\n      dup1\n      sload\n      tag_94\n      swap1\n      tag_70\n      jump\t// in\n    tag_94:\n      dup1\n      iszero\n      tag_95\n      jumpi\n      dup1\n      0x1f\n      lt\n      tag_96\n      jumpi\n      0x0100\n      dup1\n      dup4\n      sload\n      div\n      mul\n      dup4\n      mstore\n      swap2\n      0x20\n      add\n      swap2\n      jump(tag_95)\n    tag_96:\n      dup3\n      add\n      swap2\n      swap1\n      0x00\n      mstore\n      keccak256(0x00, 0x20)\n      swap1\n    tag_97:\n      dup2\n      sload\n      dup2\n      mstore\n      swap1\n      0x01\n      add\n      swap1\n      0x20\n      add\n      dup1\n      dup4\n      gt\n      tag_97\n      jumpi\n      dup3\n      swap1\n      sub\n      0x1f\n      and\n      dup3\n      add\n      swap2\n    tag_95:\n      pop\n      pop\n      pop\n      pop\n      pop\n      swap3\n      pop\n      swap7\n      pop\n      swap7\n      pop\n      swap7\n      pop\n      swap7\n      pop\n      swap7\n      pop\n      swap7\n      pop\n      pop\n        /* \"SignalLogger.sol\":2061:2605  function getSignal(uint256 index) external view returns (... */\n      swap2\n      swap4\n      swap6\n      pop\n      swap2\n      swap4\n      swap6\n      jump\t// out\n        /* \"SignalLogger.sol\":397:417  address public owner */\n    tag_39:\n      0x00\n      0x00\n      swap1\n      sload\n      swap1\n      0x0100\n      exp\n      swap1\n      div\n      0xffffffffffffffffffffffffffffffffffffffff\n      and\n      dup2\n      jump\t// out\n        /* \"SignalLogger.sol\":423:471  mapping(address => bool) public authorizedAgents */\n    tag_44:\n      mstore(0x20, 0x01)\n      dup1\n      0x00\n      mstore\n      keccak256(0x00, 0x40)\n      0x00\n      swap2\n      pop\n      sload\n      swap1\n      0x0100\n      exp\n      swap1\n      div\n      0xff\n      and\n      dup2\n      jump\t// out\n        /* \"SignalLogger.sol\":2611:3012  function getLatestSignals(uint256 count) external view returns (Signal[] memory) {... */\n    tag_49:\n        /* \"SignalLogger.sol\":2675:2690  Signal[] memory */\n      0x60\n        /* \"SignalLogger.sol\":2702:2715  uint256 total */\n      0x00\n        /* \"SignalLogger.sol\":2718:2725  signals */\n      0x02\n        /* \"SignalLogger.sol\":2718:2732  signals.length */\n      dup1\n      sload\n      swap1\n      pop\n        /* \"SignalLogger.sol\":2702:2732  uint256 total = signals.length */\n      swap1\n      pop\n        /* \"SignalLogger.sol\":2742:2755  uint256 start */\n      0x00\n        /* \"SignalLogger.sol\":2766:2771  count */\n      dup4\n        /* \"SignalLogger.sol\":2758:2763  total */\n      dup3\n        /* \"SignalLogger.sol\":2758:2771  total > count */\n      gt\n        /* \"SignalLogger.sol\":2758:2791  total > count ? total - count : 0 */\n      tag_99\n      jumpi\n        /* \"SignalLogger.sol\":2790:2791  0 */\n      0x00\n        /* \"SignalLogger.sol\":2758:2791  total > count ? total - count : 0 */\n      jump(tag_100)\n    tag_99:\n        /* \"SignalLogger.sol\":2782:2787  count */\n      dup4\n        /* \"SignalLogger.sol\":2774:2779  total */\n      dup3\n        /* \"SignalLogger.sol\":2774:2787  total - count */\n      tag_101\n      swap2\n      swap1\n      tag_64\n      jump\t// in\n    tag_101:\n        /* \"SignalLogger.sol\":2758:2791  total > count ? total - count : 0 */\n    tag_100:\n        /* \"SignalLogger.sol\":2742:2791  uint256 start = total > count ? total - count : 0 */\n      swap1\n      pop\n        /* \"SignalLogger.sol\":2801:2813  uint256 size */\n      0x00\n        /* \"SignalLogger.sol\":2824:2829  start */\n      dup2\n        /* \"SignalLogger.sol\":2816:2821  total */\n      dup4\n        /* \"SignalLogger.sol\":2816:2829  total - start */\n      tag_102\n      swap2\n      swap1\n      tag_64\n      jump\t// in\n    tag_102:\n        /* \"SignalLogger.sol\":2801:2829  uint256 size = total - start */\n      swap1\n      pop\n        /* \"SignalLogger.sol\":2840:2862  Signal[] memory result */\n      0x00\n        /* \"SignalLogger.sol\":2878:2882  size */\n      dup2\n        /* \"SignalLogger.sol\":2865:2883  new Signal[](size) */\n      0xffffffffffffffff\n      dup2\n      gt\n      iszero\n      tag_103\n      jumpi\n      tag_104\n      tag_105\n      jump\t// in\n    tag_104:\n    tag_103:\n      mload(0x40)\n      swap1\n      dup1\n      dup3\n      mstore\n      dup1\n      0x20\n      mul\n      0x20\n      add\n      dup3\n      add\n      0x40\n      mstore\n      dup1\n      iszero\n      tag_106\n      jumpi\n      dup2\n      0x20\n      add\n    tag_107:\n      tag_108\n      tag_109\n      jump\t// in\n    tag_108:\n      dup2\n      mstore\n      0x20\n      add\n      swap1\n      0x01\n      swap1\n      sub\n      swap1\n      dup2\n      tag_107\n      jumpi\n      swap1\n      pop\n    tag_106:\n      pop\n        /* \"SignalLogger.sol\":2840:2883  Signal[] memory result = new Signal[](size) */\n      swap1\n      pop\n        /* \"SignalLogger.sol\":2898:2907  uint256 i */\n      0x00\n        /* \"SignalLogger.sol\":2910:2911  0 */\n      0x00\n        /* \"SignalLogger.sol\":2898:2911  uint256 i = 0 */\n      swap1\n      pop\n        /* \"SignalLogger.sol\":2893:2983  for (uint256 i = 0; i < size; i++) {... */\n    tag_110:\n        /* \"SignalLogger.sol\":2917:2921  size */\n      dup3\n        /* \"SignalLogger.sol\":2913:2914  i */\n      dup2\n        /* \"SignalLogger.sol\":2913:2921  i < size */\n      lt\n        /* \"SignalLogger.sol\":2893:2983  for (uint256 i = 0; i < size; i++) {... */\n      iszero\n      tag_111\n      jumpi\n        /* \"SignalLogger.sol\":2954:2961  signals */\n      0x02\n        /* \"SignalLogger.sol\":2970:2971  i */\n      dup2\n        /* \"SignalLogger.sol\":2962:2967  start */\n      dup6\n        /* \"SignalLogger.sol\":2962:2971  start + i */\n      tag_113\n      swap2\n      swap1\n      tag_114\n      jump\t// in\n    tag_113:\n        /* \"SignalLogger.sol\":2954:2972  signals[start + i] */\n      dup2\n      sload\n      dup2\n      lt\n      tag_115\n      jumpi\n      tag_116\n      tag_91\n      jump\t// in\n    tag_116:\n    tag_115:\n      swap1\n      0x00\n      mstore\n      keccak256(0x00, 0x20)\n      swap1\n      0x05\n      mul\n      add\n        /* \"SignalLogger.sol\":2942:2972  result[i] = signals[start + i] */\n      mload(0x40)\n      dup1\n      0xc0\n      add\n      0x40\n      mstore\n      swap1\n      dup2\n      0x00\n      dup3\n      add\n      sload\n      dup2\n      mstore\n      0x20\n      add\n      0x01\n      dup3\n      add\n      0x00\n      swap1\n      sload\n      swap1\n      0x0100\n      exp\n      swap1\n      div\n      0xff\n      and\n      0xff\n      and\n      0xff\n      and\n      dup2\n      mstore\n      0x20\n      add\n      0x01\n      dup3\n      add\n      0x01\n      swap1\n      sload\n      swap1\n      0x0100\n      exp\n      swap1\n      div\n      0xff\n      and\n      0xff\n      and\n      0xff\n      and\n      dup2\n      mstore\n      0x20\n      add\n      0x02\n      dup3\n      add\n      dup1\n      sload\n      tag_118\n      swap1\n      tag_70\n      jump\t// in\n    tag_118:\n      dup1\n      0x1f\n      add\n      0x20\n      dup1\n      swap2\n      div\n      mul\n      0x20\n      add\n      mload(0x40)\n      swap1\n      dup2\n      add\n      0x40\n      mstore\n      dup1\n      swap3\n      swap2\n      swap1\n      dup2\n      dup2\n      mstore\n      0x20\n      add\n      dup3\n      dup1\n      sload\n      tag_119\n      swap1\n      tag_70\n      jump\t// in\n    tag_119:\n      dup1\n      iszero\n      tag_120\n      jumpi\n      dup1\n      0x1f\n      lt\n      tag_121\n      jumpi\n      0x0100\n      dup1\n      dup4\n      sload\n      div\n      mul\n      dup4\n      mstore\n      swap2\n      0x20\n      add\n      swap2\n      jump(tag_120)\n    tag_121:\n      dup3\n      add\n      swap2\n      swap1\n      0x00\n      mstore\n      keccak256(0x00, 0x20)\n      swap1\n    tag_122:\n      dup2\n      sload\n      dup2\n      mstore\n      swap1\n      0x01\n      add\n      swap1\n      0x20\n      add\n      dup1\n      dup4\n      gt\n      tag_122\n      jumpi\n      dup3\n      swap1\n      sub\n      0x1f\n      and\n      dup3\n      add\n      swap2\n    tag_120:\n      pop\n      pop\n      pop\n      pop\n      pop\n      dup2\n      mstore\n      0x20\n      add\n      0x03\n      dup3\n      add\n      sload\n      dup2\n      mstore\n      0x20\n      add\n      0x04\n      dup3\n      add\n      0x00\n      swap1\n      sload\n      swap1\n      0x0100\n      exp\n      swap1\n      div\n      0xffffffffffffffffffffffffffffffffffffffff\n      and\n      0xffffffffffffffffffffffffffffffffffffffff\n      and\n      0xffffffffffffffffffffffffffffffffffffffff\n      and\n      dup2\n      mstore\n      pop\n      pop\n        /* \"SignalLogger.sol\":2942:2948  result */\n      dup3\n        /* \"SignalLogger.sol\":2949:2950  i */\n      dup3\n        /* \"SignalLogger.sol\":2942:2951  result[i] */\n      dup2\n      mload\n      dup2\n      lt\n      tag_123\n      jumpi\n      tag_124\n      tag_91\n      jump\t// in\n    tag_124:\n    tag_123:\n      0x20\n      mul\n      0x20\n      add\n      add\n        /* \"SignalLogger.sol\":2942:2972  result[i] = signals[start + i] */\n      dup2\n      swap1\n      mstore\n      pop\n        /* \"SignalLogger.sol\":2923:2926  i++ */\n      dup1\n      dup1\n      0x01\n      add\n      swap2\n      pop\n      pop\n        /* \"SignalLogger.sol\":2893:2983  for (uint256 i = 0; i < size; i++) {... */\n      jump(tag_110)\n    tag_111:\n      pop\n        /* \"SignalLogger.sol\":2999:3005  result */\n      dup1\n        /* \"SignalLogger.sol\":2992:3005  return result */\n      swap5\n      pop\n      pop\n      pop\n      pop\n      pop\n        /* \"SignalLogger.sol\":2611:3012  function getLatestSignals(uint256 count) external view returns (Signal[] memory) {... */\n      swap2\n      swap1\n      pop\n      jump\t// out\n    tag_109:\n      mload(0x40)\n      dup1\n      0xc0\n      add\n      0x40\n      mstore\n      dup1\n      0x00\n      dup2\n      mstore\n      0x20\n      add\n      and(0xff, 0x00)\n      dup2\n      mstore\n      0x20\n      add\n      and(0xff, 0x00)\n      dup2\n      mstore\n      0x20\n      add\n      0x60\n      dup2\n      mstore\n      0x20\n      add\n      0x00\n      dup2\n      mstore\n      0x20\n      add\n      and(0xffffffffffffffffffffffffffffffffffffffff, 0x00)\n      dup2\n      mstore\n      pop\n      swap1\n      jump\t// out\n        /* \"#utility.yul\":88:205   */\n    tag_126:\n        /* \"#utility.yul\":197:198   */\n      0x00\n        /* \"#utility.yul\":194:195   */\n      0x00\n        /* \"#utility.yul\":187:199   */\n      revert\n        /* \"#utility.yul\":211:328   */\n    tag_127:\n        /* \"#utility.yul\":320:321   */\n      0x00\n        /* \"#utility.yul\":317:318   */\n      0x00\n        /* \"#utility.yul\":310:322   */\n      revert\n        /* \"#utility.yul\":334:411   */\n    tag_128:\n        /* \"#utility.yul\":371:378   */\n      0x00\n        /* \"#utility.yul\":400:405   */\n      dup2\n        /* \"#utility.yul\":389:405   */\n      swap1\n      pop\n        /* \"#utility.yul\":334:411   */\n      swap2\n      swap1\n      pop\n      jump\t// out\n        /* \"#utility.yul\":417:539   */\n    tag_129:\n        /* \"#utility.yul\":490:514   */\n      tag_202\n        /* \"#utility.yul\":508:513   */\n      dup2\n        /* \"#utility.yul\":490:514   */\n      tag_128\n      jump\t// in\n    tag_202:\n        /* \"#utility.yul\":483:488   */\n      dup2\n        /* \"#utility.yul\":480:515   */\n      eq\n        /* \"#utility.yul\":470:533   */\n      tag_203\n      jumpi\n        /* \"#utility.yul\":529:530   */\n      0x00\n        /* \"#utility.yul\":526:527   */\n      0x00\n        /* \"#utility.yul\":519:531   */\n      revert\n        /* \"#utility.yul\":470:533   */\n    tag_203:\n        /* \"#utility.yul\":417:539   */\n      pop\n      jump\t// out\n        /* \"#utility.yul\":545:684   */\n    tag_130:\n        /* \"#utility.yul\":591:596   */\n      0x00\n        /* \"#utility.yul\":629:635   */\n      dup2\n        /* \"#utility.yul\":616:636   */\n      calldataload\n        /* \"#utility.yul\":607:636   */\n      swap1\n      pop\n        /* \"#utility.yul\":645:678   */\n      tag_205\n        /* \"#utility.yul\":672:677   */\n      dup2\n        /* \"#utility.yul\":645:678   */\n      tag_129\n      jump\t// in\n    tag_205:\n        /* \"#utility.yul\":545:684   */\n      swap3\n      swap2\n      pop\n      pop\n      jump\t// out\n        /* \"#utility.yul\":690:776   */\n    tag_131:\n        /* \"#utility.yul\":725:732   */\n      0x00\n        /* \"#utility.yul\":765:769   */\n      0xff\n        /* \"#utility.yul\":758:763   */\n      dup3\n        /* \"#utility.yul\":754:770   */\n      and\n        /* \"#utility.yul\":743:770   */\n      swap1\n      pop\n        /* \"#utility.yul\":690:776   */\n      swap2\n      swap1\n      pop\n      jump\t// out\n        /* \"#utility.yul\":782:900   */\n    tag_132:\n        /* \"#utility.yul\":853:875   */\n      tag_208\n        /* \"#utility.yul\":869:874   */\n      dup2\n        /* \"#utility.yul\":853:875   */\n      tag_131\n      jump\t// in\n    tag_208:\n        /* \"#utility.yul\":846:851   */\n      dup2\n        /* \"#utility.yul\":843:876   */\n      eq\n        /* \"#utility.yul\":833:894   */\n      tag_209\n      jumpi\n        /* \"#utility.yul\":890:891   */\n      0x00\n        /* \"#utility.yul\":887:888   */\n      0x00\n        /* \"#utility.yul\":880:892   */\n      revert\n        /* \"#utility.yul\":833:894   */\n    tag_209:\n        /* \"#utility.yul\":782:900   */\n      pop\n      jump\t// out\n        /* \"#utility.yul\":906:1041   */\n    tag_133:\n        /* \"#utility.yul\":950:955   */\n      0x00\n        /* \"#utility.yul\":988:994   */\n      dup2\n        /* \"#utility.yul\":975:995   */\n      calldataload\n        /* \"#utility.yul\":966:995   */\n      swap1\n      pop\n        /* \"#utility.yul\":1004:1035   */\n      tag_211\n        /* \"#utility.yul\":1029:1034   */\n      dup2\n        /* \"#utility.yul\":1004:1035   */\n      tag_132\n      jump\t// in\n    tag_211:\n        /* \"#utility.yul\":906:1041   */\n      swap3\n      swap2\n      pop\n      pop\n      jump\t// out\n        /* \"#utility.yul\":1047:1164   */\n    tag_134:\n        /* \"#utility.yul\":1156:1157   */\n      0x00\n        /* \"#utility.yul\":1153:1154   */\n      0x00\n        /* \"#utility.yul\":1146:1158   */\n      revert\n        /* \"#utility.yul\":1170:1287   */\n    tag_135:\n        /* \"#utility.yul\":1279:1280   */\n      0x00\n        /* \"#utility.yul\":1276:1277   */\n      0x00\n        /* \"#utility.yul\":1269:1281   */\n      revert\n        /* \"#utility.yul\":1293:1410   */\n    tag_136:\n        /* \"#utility.yul\":1402:1403   */\n      0x00\n        /* \"#utility.yul\":1399:1400   */\n      0x00\n        /* \"#utility.yul\":1392:1404   */\n      revert\n        /* \"#utility.yul\":1430:1983   */\n    tag_137:\n        /* \"#utility.yul\":1488:1496   */\n      0x00\n        /* \"#utility.yul\":1498:1504   */\n      0x00\n        /* \"#utility.yul\":1548:1551   */\n      dup4\n        /* \"#utility.yul\":1541:1545   */\n      0x1f\n        /* \"#utility.yul\":1533:1539   */\n      dup5\n        /* \"#utility.yul\":1529:1546   */\n      add\n        /* \"#utility.yul\":1525:1552   */\n      slt\n        /* \"#utility.yul\":1515:1637   */\n      tag_216\n      jumpi\n        /* \"#utility.yul\":1556:1635   */\n      tag_217\n      tag_134\n      jump\t// in\n    tag_217:\n        /* \"#utility.yul\":1515:1637   */\n    tag_216:\n        /* \"#utility.yul\":1669:1675   */\n      dup3\n        /* \"#utility.yul\":1656:1676   */\n      calldataload\n        /* \"#utility.yul\":1646:1676   */\n      swap1\n      pop\n        /* \"#utility.yul\":1699:1717   */\n      0xffffffffffffffff\n        /* \"#utility.yul\":1691:1697   */\n      dup2\n        /* \"#utility.yul\":1688:1718   */\n      gt\n        /* \"#utility.yul\":1685:1802   */\n      iszero\n      tag_218\n      jumpi\n        /* \"#utility.yul\":1721:1800   */\n      tag_219\n      tag_135\n      jump\t// in\n    tag_219:\n        /* \"#utility.yul\":1685:1802   */\n    tag_218:\n        /* \"#utility.yul\":1835:1839   */\n      0x20\n        /* \"#utility.yul\":1827:1833   */\n      dup4\n        /* \"#utility.yul\":1823:1840   */\n      add\n        /* \"#utility.yul\":1811:1840   */\n      swap2\n      pop\n        /* \"#utility.yul\":1889:1892   */\n      dup4\n        /* \"#utility.yul\":1881:1885   */\n      0x01\n        /* \"#utility.yul\":1873:1879   */\n      dup3\n        /* \"#utility.yul\":1869:1886   */\n      mul\n        /* \"#utility.yul\":1859:1867   */\n      dup4\n        /* \"#utility.yul\":1855:1887   */\n      add\n        /* \"#utility.yul\":1852:1893   */\n      gt\n        /* \"#utility.yul\":1849:1977   */\n      iszero\n      tag_220\n      jumpi\n        /* \"#utility.yul\":1896:1975   */\n      tag_221\n      tag_136\n      jump\t// in\n    tag_221:\n        /* \"#utility.yul\":1849:1977   */\n    tag_220:\n        /* \"#utility.yul\":1430:1983   */\n      swap3\n      pop\n      swap3\n      swap1\n      pop\n      jump\t// out\n        /* \"#utility.yul\":1989:2946   */\n    tag_15:\n        /* \"#utility.yul\":2083:2089   */\n      0x00\n        /* \"#utility.yul\":2091:2097   */\n      0x00\n        /* \"#utility.yul\":2099:2105   */\n      0x00\n        /* \"#utility.yul\":2107:2113   */\n      0x00\n        /* \"#utility.yul\":2115:2121   */\n      0x00\n        /* \"#utility.yul\":2164:2167   */\n      0x80\n        /* \"#utility.yul\":2152:2161   */\n      dup7\n        /* \"#utility.yul\":2143:2150   */\n      dup9\n        /* \"#utility.yul\":2139:2162   */\n      sub\n        /* \"#utility.yul\":2135:2168   */\n      slt\n        /* \"#utility.yul\":2132:2252   */\n      iszero\n      tag_223\n      jumpi\n        /* \"#utility.yul\":2171:2250   */\n      tag_224\n      tag_126\n      jump\t// in\n    tag_224:\n        /* \"#utility.yul\":2132:2252   */\n    tag_223:\n        /* \"#utility.yul\":2291:2292   */\n      0x00\n        /* \"#utility.yul\":2316:2369   */\n      tag_225\n        /* \"#utility.yul\":2361:2368   */\n      dup9\n        /* \"#utility.yul\":2352:2358   */\n      dup3\n        /* \"#utility.yul\":2341:2350   */\n      dup10\n        /* \"#utility.yul\":2337:2359   */\n      add\n        /* \"#utility.yul\":2316:2369   */\n      tag_130\n      jump\t// in\n    tag_225:\n        /* \"#utility.yul\":2306:2369   */\n      swap6\n      pop\n        /* \"#utility.yul\":2262:2379   */\n      pop\n        /* \"#utility.yul\":2418:2420   */\n      0x20\n        /* \"#utility.yul\":2444:2495   */\n      tag_226\n        /* \"#utility.yul\":2487:2494   */\n      dup9\n        /* \"#utility.yul\":2478:2484   */\n      dup3\n        /* \"#utility.yul\":2467:2476   */\n      dup10\n        /* \"#utility.yul\":2463:2485   */\n      add\n        /* \"#utility.yul\":2444:2495   */\n      tag_133\n      jump\t// in\n    tag_226:\n        /* \"#utility.yul\":2434:2495   */\n      swap5\n      pop\n        /* \"#utility.yul\":2389:2505   */\n      pop\n        /* \"#utility.yul\":2544:2546   */\n      0x40\n        /* \"#utility.yul\":2570:2621   */\n      tag_227\n        /* \"#utility.yul\":2613:2620   */\n      dup9\n        /* \"#utility.yul\":2604:2610   */\n      dup3\n        /* \"#utility.yul\":2593:2602   */\n      dup10\n        /* \"#utility.yul\":2589:2611   */\n      add\n        /* \"#utility.yul\":2570:2621   */\n      tag_133\n      jump\t// in\n    tag_227:\n        /* \"#utility.yul\":2560:2621   */\n      swap4\n      pop\n        /* \"#utility.yul\":2515:2631   */\n      pop\n        /* \"#utility.yul\":2698:2700   */\n      0x60\n        /* \"#utility.yul\":2687:2696   */\n      dup7\n        /* \"#utility.yul\":2683:2701   */\n      add\n        /* \"#utility.yul\":2670:2702   */\n      calldataload\n        /* \"#utility.yul\":2729:2747   */\n      0xffffffffffffffff\n        /* \"#utility.yul\":2721:2727   */\n      dup2\n        /* \"#utility.yul\":2718:2748   */\n      gt\n        /* \"#utility.yul\":2715:2832   */\n      iszero\n      tag_228\n      jumpi\n        /* \"#utility.yul\":2751:2830   */\n      tag_229\n      tag_127\n      jump\t// in\n    tag_229:\n        /* \"#utility.yul\":2715:2832   */\n    tag_228:\n        /* \"#utility.yul\":2864:2929   */\n      tag_230\n        /* \"#utility.yul\":2921:2928   */\n      dup9\n        /* \"#utility.yul\":2912:2918   */\n      dup3\n        /* \"#utility.yul\":2901:2910   */\n      dup10\n        /* \"#utility.yul\":2897:2919   */\n      add\n        /* \"#utility.yul\":2864:2929   */\n      tag_137\n      jump\t// in\n    tag_230:\n        /* \"#utility.yul\":2846:2929   */\n      swap3\n      pop\n      swap3\n      pop\n        /* \"#utility.yul\":2641:2939   */\n      pop\n        /* \"#utility.yul\":1989:2946   */\n      swap3\n      swap6\n      pop\n      swap3\n      swap6\n      swap1\n      swap4\n      pop\n      jump\t// out\n        /* \"#utility.yul\":2952:3029   */\n    tag_138:\n        /* \"#utility.yul\":2989:2996   */\n      0x00\n        /* \"#utility.yul\":3018:3023   */\n      dup2\n        /* \"#utility.yul\":3007:3023   */\n      swap1\n      pop\n        /* \"#utility.yul\":2952:3029   */\n      swap2\n      swap1\n      pop\n      jump\t// out\n        /* \"#utility.yul\":3035:3157   */\n    tag_139:\n        /* \"#utility.yul\":3108:3132   */\n      tag_233\n        /* \"#utility.yul\":3126:3131   */\n      dup2\n        /* \"#utility.yul\":3108:3132   */\n      tag_138\n      jump\t// in\n    tag_233:\n        /* \"#utility.yul\":3101:3106   */\n      dup2\n        /* \"#utility.yul\":3098:3133   */\n      eq\n        /* \"#utility.yul\":3088:3151   */\n      tag_234\n      jumpi\n        /* \"#utility.yul\":3147:3148   */\n      0x00\n        /* \"#utility.yul\":3144:3145   */\n      0x00\n        /* \"#utility.yul\":3137:3149   */\n      revert\n        /* \"#utility.yul\":3088:3151   */\n    tag_234:\n        /* \"#utility.yul\":3035:3157   */\n      pop\n      jump\t// out\n        /* \"#utility.yul\":3163:3302   */\n    tag_140:\n        /* \"#utility.yul\":3209:3214   */\n      0x00\n        /* \"#utility.yul\":3247:3253   */\n      dup2\n        /* \"#utility.yul\":3234:3254   */\n      calldataload\n        /* \"#utility.yul\":3225:3254   */\n      swap1\n      pop\n        /* \"#utility.yul\":3263:3296   */\n      tag_236\n        /* \"#utility.yul\":3290:3295   */\n      dup2\n        /* \"#utility.yul\":3263:3296   */\n      tag_139\n      jump\t// in\n    tag_236:\n        /* \"#utility.yul\":3163:3302   */\n      swap3\n      swap2\n      pop\n      pop\n      jump\t// out\n        /* \"#utility.yul\":3308:3637   */\n    tag_19:\n        /* \"#utility.yul\":3367:3373   */\n      0x00\n        /* \"#utility.yul\":3416:3418   */\n      0x20\n        /* \"#utility.yul\":3404:3413   */\n      dup3\n        /* \"#utility.yul\":3395:3402   */\n      dup5\n        /* \"#utility.yul\":3391:3414   */\n      sub\n        /* \"#utility.yul\":3387:3419   */\n      slt\n        /* \"#utility.yul\":3384:3503   */\n      iszero\n      tag_238\n      jumpi\n        /* \"#utility.yul\":3422:3501   */\n      tag_239\n      tag_126\n      jump\t// in\n    tag_239:\n        /* \"#utility.yul\":3384:3503   */\n    tag_238:\n        /* \"#utility.yul\":3542:3543   */\n      0x00\n        /* \"#utility.yul\":3567:3620   */\n      tag_240\n        /* \"#utility.yul\":3612:3619   */\n      dup5\n        /* \"#utility.yul\":3603:3609   */\n      dup3\n        /* \"#utility.yul\":3592:3601   */\n      dup6\n        /* \"#utility.yul\":3588:3610   */\n      add\n        /* \"#utility.yul\":3567:3620   */\n      tag_140\n      jump\t// in\n    tag_240:\n        /* \"#utility.yul\":3557:3620   */\n      swap2\n      pop\n        /* \"#utility.yul\":3513:3630   */\n      pop\n        /* \"#utility.yul\":3308:3637   */\n      swap3\n      swap2\n      pop\n      pop\n      jump\t// out\n        /* \"#utility.yul\":3643:3761   */\n    tag_141:\n        /* \"#utility.yul\":3730:3754   */\n      tag_242\n        /* \"#utility.yul\":3748:3753   */\n      dup2\n        /* \"#utility.yul\":3730:3754   */\n      tag_128\n      jump\t// in\n    tag_242:\n        /* \"#utility.yul\":3725:3728   */\n      dup3\n        /* \"#utility.yul\":3718:3755   */\n      mstore\n        /* \"#utility.yul\":3643:3761   */\n      pop\n      pop\n      jump\t// out\n        /* \"#utility.yul\":3767:3879   */\n    tag_142:\n        /* \"#utility.yul\":3850:3872   */\n      tag_244\n        /* \"#utility.yul\":3866:3871   */\n      dup2\n        /* \"#utility.yul\":3850:3872   */\n      tag_131\n      jump\t// in\n    tag_244:\n        /* \"#utility.yul\":3845:3848   */\n      dup3\n        /* \"#utility.yul\":3838:3873   */\n      mstore\n        /* \"#utility.yul\":3767:3879   */\n      pop\n      pop\n      jump\t// out\n        /* \"#utility.yul\":3885:3984   */\n    tag_143:\n        /* \"#utility.yul\":3937:3943   */\n      0x00\n        /* \"#utility.yul\":3971:3976   */\n      dup2\n        /* \"#utility.yul\":3965:3977   */\n      mload\n        /* \"#utility.yul\":3955:3977   */\n      swap1\n      pop\n        /* \"#utility.yul\":3885:3984   */\n      swap2\n      swap1\n      pop\n      jump\t// out\n        /* \"#utility.yul\":3990:4159   */\n    tag_144:\n        /* \"#utility.yul\":4074:4085   */\n      0x00\n        /* \"#utility.yul\":4108:4114   */\n      dup3\n        /* \"#utility.yul\":4103:4106   */\n      dup3\n        /* \"#utility.yul\":4096:4115   */\n      mstore\n        /* \"#utility.yul\":4148:4152   */\n      0x20\n        /* \"#utility.yul\":4143:4146   */\n      dup3\n        /* \"#utility.yul\":4139:4153   */\n      add\n        /* \"#utility.yul\":4124:4153   */\n      swap1\n      pop\n        /* \"#utility.yul\":3990:4159   */\n      swap3\n      swap2\n      pop\n      pop\n      jump\t// out\n        /* \"#utility.yul\":4165:4304   */\n    tag_145:\n        /* \"#utility.yul\":4254:4260   */\n      dup3\n        /* \"#utility.yul\":4249:4252   */\n      dup2\n        /* \"#utility.yul\":4244:4247   */\n      dup4\n        /* \"#utility.yul\":4238:4261   */\n      mcopy\n        /* \"#utility.yul\":4295:4296   */\n      0x00\n        /* \"#utility.yul\":4286:4292   */\n      dup4\n        /* \"#utility.yul\":4281:4284   */\n      dup4\n        /* \"#utility.yul\":4277:4293   */\n      add\n        /* \"#utility.yul\":4270:4297   */\n      mstore\n        /* \"#utility.yul\":4165:4304   */\n      pop\n      pop\n      pop\n      jump\t// out\n        /* \"#utility.yul\":4310:4412   */\n    tag_146:\n        /* \"#utility.yul\":4351:4357   */\n      0x00\n        /* \"#utility.yul\":4402:4404   */\n      0x1f\n        /* \"#utility.yul\":4398:4405   */\n      not\n        /* \"#utility.yul\":4393:4395   */\n      0x1f\n        /* \"#utility.yul\":4386:4391   */\n      dup4\n        /* \"#utility.yul\":4382:4396   */\n      add\n        /* \"#utility.yul\":4378:4406   */\n      and\n        /* \"#utility.yul\":4368:4406   */\n      swap1\n      pop\n        /* \"#utility.yul\":4310:4412   */\n      swap2\n      swap1\n      pop\n      jump\t// out\n        /* \"#utility.yul\":4418:4795   */\n    tag_147:\n        /* \"#utility.yul\":4506:4509   */\n      0x00\n        /* \"#utility.yul\":4534:4573   */\n      tag_250\n        /* \"#utility.yul\":4567:4572   */\n      dup3\n        /* \"#utility.yul\":4534:4573   */\n      tag_143\n      jump\t// in\n    tag_250:\n        /* \"#utility.yul\":4589:4660   */\n      tag_251\n        /* \"#utility.yul\":4653:4659   */\n      dup2\n        /* \"#utility.yul\":4648:4651   */\n      dup6\n        /* \"#utility.yul\":4589:4660   */\n      tag_144\n      jump\t// in\n    tag_251:\n        /* \"#utility.yul\":4582:4660   */\n      swap4\n      pop\n        /* \"#utility.yul\":4669:4734   */\n      tag_252\n        /* \"#utility.yul\":4727:4733   */\n      dup2\n        /* \"#utility.yul\":4722:4725   */\n      dup6\n        /* \"#utility.yul\":4715:4719   */\n      0x20\n        /* \"#utility.yul\":4708:4713   */\n      dup7\n        /* \"#utility.yul\":4704:4720   */\n      add\n        /* \"#utility.yul\":4669:4734   */\n      tag_145\n      jump\t// in\n    tag_252:\n        /* \"#utility.yul\":4759:4788   */\n      tag_253\n        /* \"#utility.yul\":4781:4787   */\n      dup2\n        /* \"#utility.yul\":4759:4788   */\n      tag_146\n      jump\t// in\n    tag_253:\n        /* \"#utility.yul\":4754:4757   */\n      dup5\n        /* \"#utility.yul\":4750:4789   */\n      add\n        /* \"#utility.yul\":4743:4789   */\n      swap2\n      pop\n        /* \"#utility.yul\":4510:4795   */\n      pop\n        /* \"#utility.yul\":4418:4795   */\n      swap3\n      swap2\n      pop\n      pop\n      jump\t// out\n        /* \"#utility.yul\":4801:4919   */\n    tag_148:\n        /* \"#utility.yul\":4888:4912   */\n      tag_255\n        /* \"#utility.yul\":4906:4911   */\n      dup2\n        /* \"#utility.yul\":4888:4912   */\n      tag_138\n      jump\t// in\n    tag_255:\n        /* \"#utility.yul\":4883:4886   */\n      dup3\n        /* \"#utility.yul\":4876:4913   */\n      mstore\n        /* \"#utility.yul\":4801:4919   */\n      pop\n      pop\n      jump\t// out\n        /* \"#utility.yul\":4925:5051   */\n    tag_149:\n        /* \"#utility.yul\":4962:4969   */\n      0x00\n        /* \"#utility.yul\":5002:5044   */\n      0xffffffffffffffffffffffffffffffffffffffff\n        /* \"#utility.yul\":4995:5000   */\n      dup3\n        /* \"#utility.yul\":4991:5045   */\n      and\n        /* \"#utility.yul\":4980:5045   */\n      swap1\n      pop\n        /* \"#utility.yul\":4925:5051   */\n      swap2\n      swap1\n      pop\n      jump\t// out\n        /* \"#utility.yul\":5057:5153   */\n    tag_150:\n        /* \"#utility.yul\":5094:5101   */\n      0x00\n        /* \"#utility.yul\":5123:5147   */\n      tag_258\n        /* \"#utility.yul\":5141:5146   */\n      dup3\n        /* \"#utility.yul\":5123:5147   */\n      tag_149\n      jump\t// in\n    tag_258:\n        /* \"#utility.yul\":5112:5147   */\n      swap1\n      pop\n        /* \"#utility.yul\":5057:5153   */\n      swap2\n      swap1\n      pop\n      jump\t// out\n        /* \"#utility.yul\":5159:5277   */\n    tag_151:\n        /* \"#utility.yul\":5246:5270   */\n      tag_260\n        /* \"#utility.yul\":5264:5269   */\n      dup2\n        /* \"#utility.yul\":5246:5270   */\n      tag_150\n      jump\t// in\n    tag_260:\n        /* \"#utility.yul\":5241:5244   */\n      dup3\n        /* \"#utility.yul\":5234:5271   */\n      mstore\n        /* \"#utility.yul\":5159:5277   */\n      pop\n      pop\n      jump\t// out\n        /* \"#utility.yul\":5283:6133   */\n    tag_22:\n        /* \"#utility.yul\":5528:5532   */\n      0x00\n        /* \"#utility.yul\":5566:5569   */\n      0xc0\n        /* \"#utility.yul\":5555:5564   */\n      dup3\n        /* \"#utility.yul\":5551:5570   */\n      add\n        /* \"#utility.yul\":5543:5570   */\n      swap1\n      pop\n        /* \"#utility.yul\":5580:5651   */\n      tag_262\n        /* \"#utility.yul\":5648:5649   */\n      0x00\n        /* \"#utility.yul\":5637:5646   */\n      dup4\n        /* \"#utility.yul\":5633:5650   */\n      add\n        /* \"#utility.yul\":5624:5630   */\n      dup10\n        /* \"#utility.yul\":5580:5651   */\n      tag_141\n      jump\t// in\n    tag_262:\n        /* \"#utility.yul\":5661:5729   */\n      tag_263\n        /* \"#utility.yul\":5725:5727   */\n      0x20\n        /* \"#utility.yul\":5714:5723   */\n      dup4\n        /* \"#utility.yul\":5710:5728   */\n      add\n        /* \"#utility.yul\":5701:5707   */\n      dup9\n        /* \"#utility.yul\":5661:5729   */\n      tag_142\n      jump\t// in\n    tag_263:\n        /* \"#utility.yul\":5739:5807   */\n      tag_264\n        /* \"#utility.yul\":5803:5805   */\n      0x40\n        /* \"#utility.yul\":5792:5801   */\n      dup4\n        /* \"#utility.yul\":5788:5806   */\n      add\n        /* \"#utility.yul\":5779:5785   */\n      dup8\n        /* \"#utility.yul\":5739:5807   */\n      tag_142\n      jump\t// in\n    tag_264:\n        /* \"#utility.yul\":5854:5863   */\n      dup2\n        /* \"#utility.yul\":5848:5852   */\n      dup2\n        /* \"#utility.yul\":5844:5864   */\n      sub\n        /* \"#utility.yul\":5839:5841   */\n      0x60\n        /* \"#utility.yul\":5828:5837   */\n      dup4\n        /* \"#utility.yul\":5824:5842   */\n      add\n        /* \"#utility.yul\":5817:5865   */\n      mstore\n        /* \"#utility.yul\":5882:5960   */\n      tag_265\n        /* \"#utility.yul\":5955:5959   */\n      dup2\n        /* \"#utility.yul\":5946:5952   */\n      dup7\n        /* \"#utility.yul\":5882:5960   */\n      tag_147\n      jump\t// in\n    tag_265:\n        /* \"#utility.yul\":5874:5960   */\n      swap1\n      pop\n        /* \"#utility.yul\":5970:6043   */\n      tag_266\n        /* \"#utility.yul\":6038:6041   */\n      0x80\n        /* \"#utility.yul\":6027:6036   */\n      dup4\n        /* \"#utility.yul\":6023:6042   */\n      add\n        /* \"#utility.yul\":6014:6020   */\n      dup6\n        /* \"#utility.yul\":5970:6043   */\n      tag_148\n      jump\t// in\n    tag_266:\n        /* \"#utility.yul\":6053:6126   */\n      tag_267\n        /* \"#utility.yul\":6121:6124   */\n      0xa0\n        /* \"#utility.yul\":6110:6119   */\n      dup4\n        /* \"#utility.yul\":6106:6125   */\n      add\n        /* \"#utility.yul\":6097:6103   */\n      dup5\n        /* \"#utility.yul\":6053:6126   */\n      tag_151\n      jump\t// in\n    tag_267:\n        /* \"#utility.yul\":5283:6133   */\n      swap8\n      swap7\n      pop\n      pop\n      pop\n      pop\n      pop\n      pop\n      pop\n      jump\t// out\n        /* \"#utility.yul\":6139:6361   */\n    tag_26:\n        /* \"#utility.yul\":6232:6236   */\n      0x00\n        /* \"#utility.yul\":6270:6272   */\n      0x20\n        /* \"#utility.yul\":6259:6268   */\n      dup3\n        /* \"#utility.yul\":6255:6273   */\n      add\n        /* \"#utility.yul\":6247:6273   */\n      swap1\n      pop\n        /* \"#utility.yul\":6283:6354   */\n      tag_269\n        /* \"#utility.yul\":6351:6352   */\n      0x00\n        /* \"#utility.yul\":6340:6349   */\n      dup4\n        /* \"#utility.yul\":6336:6353   */\n      add\n        /* \"#utility.yul\":6327:6333   */\n      dup5\n        /* \"#utility.yul\":6283:6354   */\n      tag_148\n      jump\t// in\n    tag_269:\n        /* \"#utility.yul\":6139:6361   */\n      swap3\n      swap2\n      pop\n      pop\n      jump\t// out\n        /* \"#utility.yul\":6367:6489   */\n    tag_152:\n        /* \"#utility.yul\":6440:6464   */\n      tag_271\n        /* \"#utility.yul\":6458:6463   */\n      dup2\n        /* \"#utility.yul\":6440:6464   */\n      tag_150\n      jump\t// in\n    tag_271:\n        /* \"#utility.yul\":6433:6438   */\n      dup2\n        /* \"#utility.yul\":6430:6465   */\n      eq\n        /* \"#utility.yul\":6420:6483   */\n      tag_272\n      jumpi\n        /* \"#utility.yul\":6479:6480   */\n      0x00\n        /* \"#utility.yul\":6476:6477   */\n      0x00\n        /* \"#utility.yul\":6469:6481   */\n      revert\n        /* \"#utility.yul\":6420:6483   */\n    tag_272:\n        /* \"#utility.yul\":6367:6489   */\n      pop\n      jump\t// out\n        /* \"#utility.yul\":6495:6634   */\n    tag_153:\n        /* \"#utility.yul\":6541:6546   */\n      0x00\n        /* \"#utility.yul\":6579:6585   */\n      dup2\n        /* \"#utility.yul\":6566:6586   */\n      calldataload\n        /* \"#utility.yul\":6557:6586   */\n      swap1\n      pop\n        /* \"#utility.yul\":6595:6628   */\n      tag_274\n        /* \"#utility.yul\":6622:6627   */\n      dup2\n        /* \"#utility.yul\":6595:6628   */\n      tag_152\n      jump\t// in\n    tag_274:\n        /* \"#utility.yul\":6495:6634   */\n      swap3\n      swap2\n      pop\n      pop\n      jump\t// out\n        /* \"#utility.yul\":6640:6969   */\n    tag_29:\n        /* \"#utility.yul\":6699:6705   */\n      0x00\n        /* \"#utility.yul\":6748:6750   */\n      0x20\n        /* \"#utility.yul\":6736:6745   */\n      dup3\n        /* \"#utility.yul\":6727:6734   */\n      dup5\n        /* \"#utility.yul\":6723:6746   */\n      sub\n        /* \"#utility.yul\":6719:6751   */\n      slt\n        /* \"#utility.yul\":6716:6835   */\n      iszero\n      tag_276\n      jumpi\n        /* \"#utility.yul\":6754:6833   */\n      tag_277\n      tag_126\n      jump\t// in\n    tag_277:\n        /* \"#utility.yul\":6716:6835   */\n    tag_276:\n        /* \"#utility.yul\":6874:6875   */\n      0x00\n        /* \"#utility.yul\":6899:6952   */\n      tag_278\n        /* \"#utility.yul\":6944:6951   */\n      dup5\n        /* \"#utility.yul\":6935:6941   */\n      dup3\n        /* \"#utility.yul\":6924:6933   */\n      dup6\n        /* \"#utility.yul\":6920:6942   */\n      add\n        /* \"#utility.yul\":6899:6952   */\n      tag_153\n      jump\t// in\n    tag_278:\n        /* \"#utility.yul\":6889:6952   */\n      swap2\n      pop\n        /* \"#utility.yul\":6845:6962   */\n      pop\n        /* \"#utility.yul\":6640:6969   */\n      swap3\n      swap2\n      pop\n      pop\n      jump\t// out\n        /* \"#utility.yul\":6975:7197   */\n    tag_41:\n        /* \"#utility.yul\":7068:7072   */\n      0x00\n        /* \"#utility.yul\":7106:7108   */\n      0x20\n        /* \"#utility.yul\":7095:7104   */\n      dup3\n        /* \"#utility.yul\":7091:7109   */\n      add\n        /* \"#utility.yul\":7083:7109   */\n      swap1\n      pop\n        /* \"#utility.yul\":7119:7190   */\n      tag_280\n        /* \"#utility.yul\":7187:7188   */\n      0x00\n        /* \"#utility.yul\":7176:7185   */\n      dup4\n        /* \"#utility.yul\":7172:7189   */\n      add\n        /* \"#utility.yul\":7163:7169   */\n      dup5\n        /* \"#utility.yul\":7119:7190   */\n      tag_151\n      jump\t// in\n    tag_280:\n        /* \"#utility.yul\":6975:7197   */\n      swap3\n      swap2\n      pop\n      pop\n      jump\t// out\n        /* \"#utility.yul\":7203:7293   */\n    tag_154:\n        /* \"#utility.yul\":7237:7244   */\n      0x00\n        /* \"#utility.yul\":7280:7285   */\n      dup2\n        /* \"#utility.yul\":7273:7286   */\n      iszero\n        /* \"#utility.yul\":7266:7287   */\n      iszero\n        /* \"#utility.yul\":7255:7287   */\n      swap1\n      pop\n        /* \"#utility.yul\":7203:7293   */\n      swap2\n      swap1\n      pop\n      jump\t// out\n        /* \"#utility.yul\":7299:7408   */\n    tag_155:\n        /* \"#utility.yul\":7380:7401   */\n      tag_283\n        /* \"#utility.yul\":7395:7400   */\n      dup2\n        /* \"#utility.yul\":7380:7401   */\n      tag_154\n      jump\t// in\n    tag_283:\n        /* \"#utility.yul\":7375:7378   */\n      dup3\n        /* \"#utility.yul\":7368:7402   */\n      mstore\n        /* \"#utility.yul\":7299:7408   */\n      pop\n      pop\n      jump\t// out\n        /* \"#utility.yul\":7414:7624   */\n    tag_46:\n        /* \"#utility.yul\":7501:7505   */\n      0x00\n        /* \"#utility.yul\":7539:7541   */\n      0x20\n        /* \"#utility.yul\":7528:7537   */\n      dup3\n        /* \"#utility.yul\":7524:7542   */\n      add\n        /* \"#utility.yul\":7516:7542   */\n      swap1\n      pop\n        /* \"#utility.yul\":7552:7617   */\n      tag_285\n        /* \"#utility.yul\":7614:7615   */\n      0x00\n        /* \"#utility.yul\":7603:7612   */\n      dup4\n        /* \"#utility.yul\":7599:7616   */\n      add\n        /* \"#utility.yul\":7590:7596   */\n      dup5\n        /* \"#utility.yul\":7552:7617   */\n      tag_155\n      jump\t// in\n    tag_285:\n        /* \"#utility.yul\":7414:7624   */\n      swap3\n      swap2\n      pop\n      pop\n      jump\t// out\n        /* \"#utility.yul\":7630:7766   */\n    tag_156:\n        /* \"#utility.yul\":7719:7725   */\n      0x00\n        /* \"#utility.yul\":7753:7758   */\n      dup2\n        /* \"#utility.yul\":7747:7759   */\n      mload\n        /* \"#utility.yul\":7737:7759   */\n      swap1\n      pop\n        /* \"#utility.yul\":7630:7766   */\n      swap2\n      swap1\n      pop\n      jump\t// out\n        /* \"#utility.yul\":7772:7978   */\n    tag_157:\n        /* \"#utility.yul\":7893:7904   */\n      0x00\n        /* \"#utility.yul\":7927:7933   */\n      dup3\n        /* \"#utility.yul\":7922:7925   */\n      dup3\n        /* \"#utility.yul\":7915:7934   */\n      mstore\n        /* \"#utility.yul\":7967:7971   */\n      0x20\n        /* \"#utility.yul\":7962:7965   */\n      dup3\n        /* \"#utility.yul\":7958:7972   */\n      add\n        /* \"#utility.yul\":7943:7972   */\n      swap1\n      pop\n        /* \"#utility.yul\":7772:7978   */\n      swap3\n      swap2\n      pop\n      pop\n      jump\t// out\n        /* \"#utility.yul\":7984:8138   */\n    tag_158:\n        /* \"#utility.yul\":8073:8077   */\n      0x00\n        /* \"#utility.yul\":8096:8099   */\n      dup2\n        /* \"#utility.yul\":8088:8099   */\n      swap1\n      pop\n        /* \"#utility.yul\":8126:8130   */\n      0x20\n        /* \"#utility.yul\":8121:8124   */\n      dup3\n        /* \"#utility.yul\":8117:8131   */\n      add\n        /* \"#utility.yul\":8109:8131   */\n      swap1\n      pop\n        /* \"#utility.yul\":7984:8138   */\n      swap2\n      swap1\n      pop\n      jump\t// out\n        /* \"#utility.yul\":8144:8252   */\n    tag_159:\n        /* \"#utility.yul\":8221:8245   */\n      tag_290\n        /* \"#utility.yul\":8239:8244   */\n      dup2\n        /* \"#utility.yul\":8221:8245   */\n      tag_128\n      jump\t// in\n    tag_290:\n        /* \"#utility.yul\":8216:8219   */\n      dup3\n        /* \"#utility.yul\":8209:8246   */\n      mstore\n        /* \"#utility.yul\":8144:8252   */\n      pop\n      pop\n      jump\t// out\n        /* \"#utility.yul\":8258:8360   */\n    tag_160:\n        /* \"#utility.yul\":8331:8353   */\n      tag_292\n        /* \"#utility.yul\":8347:8352   */\n      dup2\n        /* \"#utility.yul\":8331:8353   */\n      tag_131\n      jump\t// in\n    tag_292:\n        /* \"#utility.yul\":8326:8329   */\n      dup3\n        /* \"#utility.yul\":8319:8354   */\n      mstore\n        /* \"#utility.yul\":8258:8360   */\n      pop\n      pop\n      jump\t// out\n        /* \"#utility.yul\":8366:8525   */\n    tag_161:\n        /* \"#utility.yul\":8440:8451   */\n      0x00\n        /* \"#utility.yul\":8474:8480   */\n      dup3\n        /* \"#utility.yul\":8469:8472   */\n      dup3\n        /* \"#utility.yul\":8462:8481   */\n      mstore\n        /* \"#utility.yul\":8514:8518   */\n      0x20\n        /* \"#utility.yul\":8509:8512   */\n      dup3\n        /* \"#utility.yul\":8505:8519   */\n      add\n        /* \"#utility.yul\":8490:8519   */\n      swap1\n      pop\n        /* \"#utility.yul\":8366:8525   */\n      swap3\n      swap2\n      pop\n      pop\n      jump\t// out\n        /* \"#utility.yul\":8531:8888   */\n    tag_162:\n        /* \"#utility.yul\":8609:8612   */\n      0x00\n        /* \"#utility.yul\":8637:8676   */\n      tag_295\n        /* \"#utility.yul\":8670:8675   */\n      dup3\n        /* \"#utility.yul\":8637:8676   */\n      tag_143\n      jump\t// in\n    tag_295:\n        /* \"#utility.yul\":8692:8753   */\n      tag_296\n        /* \"#utility.yul\":8746:8752   */\n      dup2\n        /* \"#utility.yul\":8741:8744   */\n      dup6\n        /* \"#utility.yul\":8692:8753   */\n      tag_161\n      jump\t// in\n    tag_296:\n        /* \"#utility.yul\":8685:8753   */\n      swap4\n      pop\n        /* \"#utility.yul\":8762:8827   */\n      tag_297\n        /* \"#utility.yul\":8820:8826   */\n      dup2\n        /* \"#utility.yul\":8815:8818   */\n      dup6\n        /* \"#utility.yul\":8808:8812   */\n      0x20\n        /* \"#utility.yul\":8801:8806   */\n      dup7\n        /* \"#utility.yul\":8797:8813   */\n      add\n        /* \"#utility.yul\":8762:8827   */\n      tag_145\n      jump\t// in\n    tag_297:\n        /* \"#utility.yul\":8852:8881   */\n      tag_298\n        /* \"#utility.yul\":8874:8880   */\n      dup2\n        /* \"#utility.yul\":8852:8881   */\n      tag_146\n      jump\t// in\n    tag_298:\n        /* \"#utility.yul\":8847:8850   */\n      dup5\n        /* \"#utility.yul\":8843:8882   */\n      add\n        /* \"#utility.yul\":8836:8882   */\n      swap2\n      pop\n        /* \"#utility.yul\":8613:8888   */\n      pop\n        /* \"#utility.yul\":8531:8888   */\n      swap3\n      swap2\n      pop\n      pop\n      jump\t// out\n        /* \"#utility.yul\":8894:9002   */\n    tag_163:\n        /* \"#utility.yul\":8971:8995   */\n      tag_300\n        /* \"#utility.yul\":8989:8994   */\n      dup2\n        /* \"#utility.yul\":8971:8995   */\n      tag_138\n      jump\t// in\n    tag_300:\n        /* \"#utility.yul\":8966:8969   */\n      dup3\n        /* \"#utility.yul\":8959:8996   */\n      mstore\n        /* \"#utility.yul\":8894:9002   */\n      pop\n      pop\n      jump\t// out\n        /* \"#utility.yul\":9008:9116   */\n    tag_164:\n        /* \"#utility.yul\":9085:9109   */\n      tag_302\n        /* \"#utility.yul\":9103:9108   */\n      dup2\n        /* \"#utility.yul\":9085:9109   */\n      tag_150\n      jump\t// in\n    tag_302:\n        /* \"#utility.yul\":9080:9083   */\n      dup3\n        /* \"#utility.yul\":9073:9110   */\n      mstore\n        /* \"#utility.yul\":9008:9116   */\n      pop\n      pop\n      jump\t// out\n        /* \"#utility.yul\":9186:10499   */\n    tag_165:\n        /* \"#utility.yul\":9289:9292   */\n      0x00\n        /* \"#utility.yul\":9325:9329   */\n      0xc0\n        /* \"#utility.yul\":9320:9323   */\n      dup4\n        /* \"#utility.yul\":9316:9330   */\n      add\n        /* \"#utility.yul\":9416:9420   */\n      0x00\n        /* \"#utility.yul\":9409:9414   */\n      dup4\n        /* \"#utility.yul\":9405:9421   */\n      add\n        /* \"#utility.yul\":9399:9422   */\n      mload\n        /* \"#utility.yul\":9435:9498   */\n      tag_304\n        /* \"#utility.yul\":9492:9496   */\n      0x00\n        /* \"#utility.yul\":9487:9490   */\n      dup7\n        /* \"#utility.yul\":9483:9497   */\n      add\n        /* \"#utility.yul\":9469:9481   */\n      dup3\n        /* \"#utility.yul\":9435:9498   */\n      tag_159\n      jump\t// in\n    tag_304:\n        /* \"#utility.yul\":9340:9508   */\n      pop\n        /* \"#utility.yul\":9596:9600   */\n      0x20\n        /* \"#utility.yul\":9589:9594   */\n      dup4\n        /* \"#utility.yul\":9585:9601   */\n      add\n        /* \"#utility.yul\":9579:9602   */\n      mload\n        /* \"#utility.yul\":9615:9674   */\n      tag_305\n        /* \"#utility.yul\":9668:9672   */\n      0x20\n        /* \"#utility.yul\":9663:9666   */\n      dup7\n        /* \"#utility.yul\":9659:9673   */\n      add\n        /* \"#utility.yul\":9645:9657   */\n      dup3\n        /* \"#utility.yul\":9615:9674   */\n      tag_160\n      jump\t// in\n    tag_305:\n        /* \"#utility.yul\":9518:9684   */\n      pop\n        /* \"#utility.yul\":9772:9776   */\n      0x40\n        /* \"#utility.yul\":9765:9770   */\n      dup4\n        /* \"#utility.yul\":9761:9777   */\n      add\n        /* \"#utility.yul\":9755:9778   */\n      mload\n        /* \"#utility.yul\":9791:9850   */\n      tag_306\n        /* \"#utility.yul\":9844:9848   */\n      0x40\n        /* \"#utility.yul\":9839:9842   */\n      dup7\n        /* \"#utility.yul\":9835:9849   */\n      add\n        /* \"#utility.yul\":9821:9833   */\n      dup3\n        /* \"#utility.yul\":9791:9850   */\n      tag_160\n      jump\t// in\n    tag_306:\n        /* \"#utility.yul\":9694:9860   */\n      pop\n        /* \"#utility.yul\":9949:9953   */\n      0x60\n        /* \"#utility.yul\":9942:9947   */\n      dup4\n        /* \"#utility.yul\":9938:9954   */\n      add\n        /* \"#utility.yul\":9932:9955   */\n      mload\n        /* \"#utility.yul\":10002:10005   */\n      dup5\n        /* \"#utility.yul\":9996:10000   */\n      dup3\n        /* \"#utility.yul\":9992:10006   */\n      sub\n        /* \"#utility.yul\":9985:9989   */\n      0x60\n        /* \"#utility.yul\":9980:9983   */\n      dup7\n        /* \"#utility.yul\":9976:9990   */\n      add\n        /* \"#utility.yul\":9969:10007   */\n      mstore\n        /* \"#utility.yul\":10028:10101   */\n      tag_307\n        /* \"#utility.yul\":10096:10100   */\n      dup3\n        /* \"#utility.yul\":10082:10094   */\n      dup3\n        /* \"#utility.yul\":10028:10101   */\n      tag_162\n      jump\t// in\n    tag_307:\n        /* \"#utility.yul\":10020:10101   */\n      swap2\n      pop\n        /* \"#utility.yul\":9870:10112   */\n      pop\n        /* \"#utility.yul\":10199:10203   */\n      0x80\n        /* \"#utility.yul\":10192:10197   */\n      dup4\n        /* \"#utility.yul\":10188:10204   */\n      add\n        /* \"#utility.yul\":10182:10205   */\n      mload\n        /* \"#utility.yul\":10218:10281   */\n      tag_308\n        /* \"#utility.yul\":10275:10279   */\n      0x80\n        /* \"#utility.yul\":10270:10273   */\n      dup7\n        /* \"#utility.yul\":10266:10280   */\n      add\n        /* \"#utility.yul\":10252:10264   */\n      dup3\n        /* \"#utility.yul\":10218:10281   */\n      tag_163\n      jump\t// in\n    tag_308:\n        /* \"#utility.yul\":10122:10291   */\n      pop\n        /* \"#utility.yul\":10380:10384   */\n      0xa0\n        /* \"#utility.yul\":10373:10378   */\n      dup4\n        /* \"#utility.yul\":10369:10385   */\n      add\n        /* \"#utility.yul\":10363:10386   */\n      mload\n        /* \"#utility.yul\":10399:10462   */\n      tag_309\n        /* \"#utility.yul\":10456:10460   */\n      0xa0\n        /* \"#utility.yul\":10451:10454   */\n      dup7\n        /* \"#utility.yul\":10447:10461   */\n      add\n        /* \"#utility.yul\":10433:10445   */\n      dup3\n        /* \"#utility.yul\":10399:10462   */\n      tag_164\n      jump\t// in\n    tag_309:\n        /* \"#utility.yul\":10301:10472   */\n      pop\n        /* \"#utility.yul\":10489:10493   */\n      dup1\n        /* \"#utility.yul\":10482:10493   */\n      swap2\n      pop\n        /* \"#utility.yul\":9294:10499   */\n      pop\n        /* \"#utility.yul\":9186:10499   */\n      swap3\n      swap2\n      pop\n      pop\n      jump\t// out\n        /* \"#utility.yul\":10505:10749   */\n    tag_166:\n        /* \"#utility.yul\":10618:10628   */\n      0x00\n        /* \"#utility.yul\":10653:10743   */\n      tag_311\n        /* \"#utility.yul\":10739:10742   */\n      dup4\n        /* \"#utility.yul\":10731:10737   */\n      dup4\n        /* \"#utility.yul\":10653:10743   */\n      tag_165\n      jump\t// in\n    tag_311:\n        /* \"#utility.yul\":10639:10743   */\n      swap1\n      pop\n        /* \"#utility.yul\":10505:10749   */\n      swap3\n      swap2\n      pop\n      pop\n      jump\t// out\n        /* \"#utility.yul\":10755:10890   */\n    tag_167:\n        /* \"#utility.yul\":10847:10851   */\n      0x00\n        /* \"#utility.yul\":10879:10883   */\n      0x20\n        /* \"#utility.yul\":10874:10877   */\n      dup3\n        /* \"#utility.yul\":10870:10884   */\n      add\n        /* \"#utility.yul\":10862:10884   */\n      swap1\n      pop\n        /* \"#utility.yul\":10755:10890   */\n      swap2\n      swap1\n      pop\n      jump\t// out\n        /* \"#utility.yul\":10964:12051   */\n    tag_168:\n        /* \"#utility.yul\":11127:11130   */\n      0x00\n        /* \"#utility.yul\":11156:11232   */\n      tag_314\n        /* \"#utility.yul\":11226:11231   */\n      dup3\n        /* \"#utility.yul\":11156:11232   */\n      tag_156\n      jump\t// in\n    tag_314:\n        /* \"#utility.yul\":11248:11356   */\n      tag_315\n        /* \"#utility.yul\":11349:11355   */\n      dup2\n        /* \"#utility.yul\":11344:11347   */\n      dup6\n        /* \"#utility.yul\":11248:11356   */\n      tag_157\n      jump\t// in\n    tag_315:\n        /* \"#utility.yul\":11241:11356   */\n      swap4\n      pop\n        /* \"#utility.yul\":11382:11385   */\n      dup4\n        /* \"#utility.yul\":11427:11431   */\n      0x20\n        /* \"#utility.yul\":11419:11425   */\n      dup3\n        /* \"#utility.yul\":11415:11432   */\n      mul\n        /* \"#utility.yul\":11410:11413   */\n      dup6\n        /* \"#utility.yul\":11406:11433   */\n      add\n        /* \"#utility.yul\":11457:11535   */\n      tag_316\n        /* \"#utility.yul\":11529:11534   */\n      dup6\n        /* \"#utility.yul\":11457:11535   */\n      tag_158\n      jump\t// in\n    tag_316:\n        /* \"#utility.yul\":11558:11565   */\n      dup1\n        /* \"#utility.yul\":11589:11590   */\n      0x00\n        /* \"#utility.yul\":11574:12006   */\n    tag_317:\n        /* \"#utility.yul\":11599:11605   */\n      dup6\n        /* \"#utility.yul\":11596:11597   */\n      dup2\n        /* \"#utility.yul\":11593:11606   */\n      lt\n        /* \"#utility.yul\":11574:12006   */\n      iszero\n      tag_319\n      jumpi\n        /* \"#utility.yul\":11670:11679   */\n      dup5\n        /* \"#utility.yul\":11664:11668   */\n      dup5\n        /* \"#utility.yul\":11660:11680   */\n      sub\n        /* \"#utility.yul\":11655:11658   */\n      dup10\n        /* \"#utility.yul\":11648:11681   */\n      mstore\n        /* \"#utility.yul\":11721:11727   */\n      dup2\n        /* \"#utility.yul\":11715:11728   */\n      mload\n        /* \"#utility.yul\":11749:11857   */\n      tag_320\n        /* \"#utility.yul\":11852:11856   */\n      dup6\n        /* \"#utility.yul\":11837:11850   */\n      dup3\n        /* \"#utility.yul\":11749:11857   */\n      tag_166\n      jump\t// in\n    tag_320:\n        /* \"#utility.yul\":11741:11857   */\n      swap5\n      pop\n        /* \"#utility.yul\":11880:11962   */\n      tag_321\n        /* \"#utility.yul\":11955:11961   */\n      dup4\n        /* \"#utility.yul\":11880:11962   */\n      tag_167\n      jump\t// in\n    tag_321:\n        /* \"#utility.yul\":11870:11962   */\n      swap3\n      pop\n        /* \"#utility.yul\":11991:11995   */\n      0x20\n        /* \"#utility.yul\":11986:11989   */\n      dup11\n        /* \"#utility.yul\":11982:11996   */\n      add\n        /* \"#utility.yul\":11975:11996   */\n      swap10\n      pop\n        /* \"#utility.yul\":11634:12006   */\n      pop\n        /* \"#utility.yul\":11621:11622   */\n      0x01\n        /* \"#utility.yul\":11618:11619   */\n      dup2\n        /* \"#utility.yul\":11614:11623   */\n      add\n        /* \"#utility.yul\":11609:11623   */\n      swap1\n      pop\n        /* \"#utility.yul\":11574:12006   */\n      jump(tag_317)\n    tag_319:\n        /* \"#utility.yul\":11578:11592   */\n      pop\n        /* \"#utility.yul\":12022:12026   */\n      dup3\n        /* \"#utility.yul\":12015:12026   */\n      swap8\n      pop\n        /* \"#utility.yul\":12042:12045   */\n      dup8\n        /* \"#utility.yul\":12035:12045   */\n      swap6\n      pop\n        /* \"#utility.yul\":11132:12051   */\n      pop\n      pop\n      pop\n      pop\n      pop\n        /* \"#utility.yul\":10964:12051   */\n      swap3\n      swap2\n      pop\n      pop\n      jump\t// out\n        /* \"#utility.yul\":12057:12518   */\n    tag_51:\n        /* \"#utility.yul\":12244:12248   */\n      0x00\n        /* \"#utility.yul\":12282:12284   */\n      0x20\n        /* \"#utility.yul\":12271:12280   */\n      dup3\n        /* \"#utility.yul\":12267:12285   */\n      add\n        /* \"#utility.yul\":12259:12285   */\n      swap1\n      pop\n        /* \"#utility.yul\":12331:12340   */\n      dup2\n        /* \"#utility.yul\":12325:12329   */\n      dup2\n        /* \"#utility.yul\":12321:12341   */\n      sub\n        /* \"#utility.yul\":12317:12318   */\n      0x00\n        /* \"#utility.yul\":12306:12315   */\n      dup4\n        /* \"#utility.yul\":12302:12319   */\n      add\n        /* \"#utility.yul\":12295:12342   */\n      mstore\n        /* \"#utility.yul\":12359:12511   */\n      tag_323\n        /* \"#utility.yul\":12506:12510   */\n      dup2\n        /* \"#utility.yul\":12497:12503   */\n      dup5\n        /* \"#utility.yul\":12359:12511   */\n      tag_168\n      jump\t// in\n    tag_323:\n        /* \"#utility.yul\":12351:12511   */\n      swap1\n      pop\n        /* \"#utility.yul\":12057:12518   */\n      swap3\n      swap2\n      pop\n      pop\n      jump\t// out\n        /* \"#utility.yul\":12524:12694   */\n    tag_169:\n        /* \"#utility.yul\":12664:12686   */\n      0x4e6f7420617574686f72697a6564206167656e74000000000000000000000000\n        /* \"#utility.yul\":12660:12661   */\n      0x00\n        /* \"#utility.yul\":12652:12658   */\n      dup3\n        /* \"#utility.yul\":12648:12662   */\n      add\n        /* \"#utility.yul\":12641:12687   */\n      mstore\n        /* \"#utility.yul\":12524:12694   */\n      pop\n      jump\t// out\n        /* \"#utility.yul\":12700:13066   */\n    tag_170:\n        /* \"#utility.yul\":12842:12845   */\n      0x00\n        /* \"#utility.yul\":12863:12930   */\n      tag_326\n        /* \"#utility.yul\":12927:12929   */\n      0x14\n        /* \"#utility.yul\":12922:12925   */\n      dup4\n        /* \"#utility.yul\":12863:12930   */\n      tag_144\n      jump\t// in\n    tag_326:\n        /* \"#utility.yul\":12856:12930   */\n      swap2\n      pop\n        /* \"#utility.yul\":12939:13032   */\n      tag_327\n        /* \"#utility.yul\":13028:13031   */\n      dup3\n        /* \"#utility.yul\":12939:13032   */\n      tag_169\n      jump\t// in\n    tag_327:\n        /* \"#utility.yul\":13057:13059   */\n      0x20\n        /* \"#utility.yul\":13052:13055   */\n      dup3\n        /* \"#utility.yul\":13048:13060   */\n      add\n        /* \"#utility.yul\":13041:13060   */\n      swap1\n      pop\n        /* \"#utility.yul\":12700:13066   */\n      swap2\n      swap1\n      pop\n      jump\t// out\n        /* \"#utility.yul\":13072:13491   */\n    tag_55:\n        /* \"#utility.yul\":13238:13242   */\n      0x00\n        /* \"#utility.yul\":13276:13278   */\n      0x20\n        /* \"#utility.yul\":13265:13274   */\n      dup3\n        /* \"#utility.yul\":13261:13279   */\n      add\n        /* \"#utility.yul\":13253:13279   */\n      swap1\n      pop\n        /* \"#utility.yul\":13325:13334   */\n      dup2\n        /* \"#utility.yul\":13319:13323   */\n      dup2\n        /* \"#utility.yul\":13315:13335   */\n      sub\n        /* \"#utility.yul\":13311:13312   */\n      0x00\n        /* \"#utility.yul\":13300:13309   */\n      dup4\n        /* \"#utility.yul\":13296:13313   */\n      add\n        /* \"#utility.yul\":13289:13336   */\n      mstore\n        /* \"#utility.yul\":13353:13484   */\n      tag_329\n        /* \"#utility.yul\":13479:13483   */\n      dup2\n        /* \"#utility.yul\":13353:13484   */\n      tag_170\n      jump\t// in\n    tag_329:\n        /* \"#utility.yul\":13345:13484   */\n      swap1\n      pop\n        /* \"#utility.yul\":13072:13491   */\n      swap2\n      swap1\n      pop\n      jump\t// out\n        /* \"#utility.yul\":13497:13671   */\n    tag_171:\n        /* \"#utility.yul\":13637:13663   */\n      0x436f6e666964656e6365206d75737420626520302d3130300000000000000000\n        /* \"#utility.yul\":13633:13634   */\n      0x00\n        /* \"#utility.yul\":13625:13631   */\n      dup3\n        /* \"#utility.yul\":13621:13635   */\n      add\n        /* \"#utility.yul\":13614:13664   */\n      mstore\n        /* \"#utility.yul\":13497:13671   */\n      pop\n      jump\t// out\n        /* \"#utility.yul\":13677:14043   */\n    tag_172:\n        /* \"#utility.yul\":13819:13822   */\n      0x00\n        /* \"#utility.yul\":13840:13907   */\n      tag_332\n        /* \"#utility.yul\":13904:13906   */\n      0x18\n        /* \"#utility.yul\":13899:13902   */\n      dup4\n        /* \"#utility.yul\":13840:13907   */\n      tag_144\n      jump\t// in\n    tag_332:\n        /* \"#utility.yul\":13833:13907   */\n      swap2\n      pop\n        /* \"#utility.yul\":13916:14009   */\n      tag_333\n        /* \"#utility.yul\":14005:14008   */\n      dup3\n        /* \"#utility.yul\":13916:14009   */\n      tag_171\n      jump\t// in\n    tag_333:\n        /* \"#utility.yul\":14034:14036   */\n      0x20\n        /* \"#utility.yul\":14029:14032   */\n      dup3\n        /* \"#utility.yul\":14025:14037   */\n      add\n        /* \"#utility.yul\":14018:14037   */\n      swap1\n      pop\n        /* \"#utility.yul\":13677:14043   */\n      swap2\n      swap1\n      pop\n      jump\t// out\n        /* \"#utility.yul\":14049:14468   */\n    tag_59:\n        /* \"#utility.yul\":14215:14219   */\n      0x00\n        /* \"#utility.yul\":14253:14255   */\n      0x20\n        /* \"#utility.yul\":14242:14251   */\n      dup3\n        /* \"#utility.yul\":14238:14256   */\n      add\n        /* \"#utility.yul\":14230:14256   */\n      swap1\n      pop\n        /* \"#utility.yul\":14302:14311   */\n      dup2\n        /* \"#utility.yul\":14296:14300   */\n      dup2\n        /* \"#utility.yul\":14292:14312   */\n      sub\n        /* \"#utility.yul\":14288:14289   */\n      0x00\n        /* \"#utility.yul\":14277:14286   */\n      dup4\n        /* \"#utility.yul\":14273:14290   */\n      add\n        /* \"#utility.yul\":14266:14313   */\n      mstore\n        /* \"#utility.yul\":14330:14461   */\n      tag_335\n        /* \"#utility.yul\":14456:14460   */\n      dup2\n        /* \"#utility.yul\":14330:14461   */\n      tag_172\n      jump\t// in\n    tag_335:\n        /* \"#utility.yul\":14322:14461   */\n      swap1\n      pop\n        /* \"#utility.yul\":14049:14468   */\n      swap2\n      swap1\n      pop\n      jump\t// out\n        /* \"#utility.yul\":14474:14654   */\n    tag_105:\n        /* \"#utility.yul\":14522:14599   */\n      0x4e487b7100000000000000000000000000000000000000000000000000000000\n        /* \"#utility.yul\":14519:14520   */\n      0x00\n        /* \"#utility.yul\":14512:14600   */\n      mstore\n        /* \"#utility.yul\":14619:14623   */\n      0x41\n        /* \"#utility.yul\":14616:14617   */\n      0x04\n        /* \"#utility.yul\":14609:14624   */\n      mstore\n        /* \"#utility.yul\":14643:14647   */\n      0x24\n        /* \"#utility.yul\":14640:14641   */\n      0x00\n        /* \"#utility.yul\":14633:14648   */\n      revert\n        /* \"#utility.yul\":14660:14840   */\n    tag_173:\n        /* \"#utility.yul\":14708:14785   */\n      0x4e487b7100000000000000000000000000000000000000000000000000000000\n        /* \"#utility.yul\":14705:14706   */\n      0x00\n        /* \"#utility.yul\":14698:14786   */\n      mstore\n        /* \"#utility.yul\":14805:14809   */\n      0x22\n        /* \"#utility.yul\":14802:14803   */\n      0x04\n        /* \"#utility.yul\":14795:14810   */\n      mstore\n        /* \"#utility.yul\":14829:14833   */\n      0x24\n        /* \"#utility.yul\":14826:14827   */\n      0x00\n        /* \"#utility.yul\":14819:14834   */\n      revert\n        /* \"#utility.yul\":14846:15166   */\n    tag_70:\n        /* \"#utility.yul\":14890:14896   */\n      0x00\n        /* \"#utility.yul\":14927:14928   */\n      0x02\n        /* \"#utility.yul\":14921:14925   */\n      dup3\n        /* \"#utility.yul\":14917:14929   */\n      div\n        /* \"#utility.yul\":14907:14929   */\n      swap1\n      pop\n        /* \"#utility.yul\":14974:14975   */\n      0x01\n        /* \"#utility.yul\":14968:14972   */\n      dup3\n        /* \"#utility.yul\":14964:14976   */\n      and\n        /* \"#utility.yul\":14995:15013   */\n      dup1\n        /* \"#utility.yul\":14985:15066   */\n      tag_339\n      jumpi\n        /* \"#utility.yul\":15051:15055   */\n      0x7f\n        /* \"#utility.yul\":15043:15049   */\n      dup3\n        /* \"#utility.yul\":15039:15056   */\n      and\n        /* \"#utility.yul\":15029:15056   */\n      swap2\n      pop\n        /* \"#utility.yul\":14985:15066   */\n    tag_339:\n        /* \"#utility.yul\":15113:15115   */\n      0x20\n        /* \"#utility.yul\":15105:15111   */\n      dup3\n        /* \"#utility.yul\":15102:15116   */\n      lt\n        /* \"#utility.yul\":15082:15100   */\n      dup2\n        /* \"#utility.yul\":15079:15117   */\n      sub\n        /* \"#utility.yul\":15076:15160   */\n      tag_340\n      jumpi\n        /* \"#utility.yul\":15132:15150   */\n      tag_341\n      tag_173\n      jump\t// in\n    tag_341:\n        /* \"#utility.yul\":15076:15160   */\n    tag_340:\n        /* \"#utility.yul\":14897:15166   */\n      pop\n        /* \"#utility.yul\":14846:15166   */\n      swap2\n      swap1\n      pop\n      jump\t// out\n        /* \"#utility.yul\":15172:15313   */\n    tag_174:\n        /* \"#utility.yul\":15221:15225   */\n      0x00\n        /* \"#utility.yul\":15244:15247   */\n      dup2\n        /* \"#utility.yul\":15236:15247   */\n      swap1\n      pop\n        /* \"#utility.yul\":15267:15270   */\n      dup2\n        /* \"#utility.yul\":15264:15265   */\n      0x00\n        /* \"#utility.yul\":15257:15271   */\n      mstore\n        /* \"#utility.yul\":15301:15305   */\n      0x20\n        /* \"#utility.yul\":15298:15299   */\n      0x00\n        /* \"#utility.yul\":15288:15306   */\n      keccak256\n        /* \"#utility.yul\":15280:15306   */\n      swap1\n      pop\n        /* \"#utility.yul\":15172:15313   */\n      swap2\n      swap1\n      pop\n      jump\t// out\n        /* \"#utility.yul\":15319:15412   */\n    tag_175:\n        /* \"#utility.yul\":15356:15362   */\n      0x00\n        /* \"#utility.yul\":15403:15405   */\n      0x20\n        /* \"#utility.yul\":15398:15400   */\n      0x1f\n        /* \"#utility.yul\":15391:15396   */\n      dup4\n        /* \"#utility.yul\":15387:15401   */\n      add\n        /* \"#utility.yul\":15383:15406   */\n      div\n        /* \"#utility.yul\":15373:15406   */\n      swap1\n      pop\n        /* \"#utility.yul\":15319:15412   */\n      swap2\n      swap1\n      pop\n      jump\t// out\n        /* \"#utility.yul\":15418:15525   */\n    tag_176:\n        /* \"#utility.yul\":15462:15470   */\n      0x00\n        /* \"#utility.yul\":15512:15517   */\n      dup3\n        /* \"#utility.yul\":15506:15510   */\n      dup3\n        /* \"#utility.yul\":15502:15518   */\n      shl\n        /* \"#utility.yul\":15481:15518   */\n      swap1\n      pop\n        /* \"#utility.yul\":15418:15525   */\n      swap3\n      swap2\n      pop\n      pop\n      jump\t// out\n        /* \"#utility.yul\":15531:15924   */\n    tag_177:\n        /* \"#utility.yul\":15600:15606   */\n      0x00\n        /* \"#utility.yul\":15650:15651   */\n      0x08\n        /* \"#utility.yul\":15638:15648   */\n      dup4\n        /* \"#utility.yul\":15634:15652   */\n      mul\n        /* \"#utility.yul\":15673:15770   */\n      tag_346\n        /* \"#utility.yul\":15703:15769   */\n      0xffffffffffffffffffffffffffffffffffffffffffffffffffffffffffffffff\n        /* \"#utility.yul\":15692:15701   */\n      dup3\n        /* \"#utility.yul\":15673:15770   */\n      tag_176\n      jump\t// in\n    tag_346:\n        /* \"#utility.yul\":15791:15830   */\n      tag_347\n        /* \"#utility.yul\":15821:15829   */\n      dup7\n        /* \"#utility.yul\":15810:15819   */\n      dup4\n        /* \"#utility.yul\":15791:15830   */\n      tag_176\n      jump\t// in\n    tag_347:\n        /* \"#utility.yul\":15779:15830   */\n      swap6\n      pop\n        /* \"#utility.yul\":15863:15867   */\n      dup1\n        /* \"#utility.yul\":15859:15868   */\n      not\n        /* \"#utility.yul\":15852:15857   */\n      dup5\n        /* \"#utility.yul\":15848:15869   */\n      and\n        /* \"#utility.yul\":15839:15869   */\n      swap4\n      pop\n        /* \"#utility.yul\":15912:15916   */\n      dup1\n        /* \"#utility.yul\":15902:15910   */\n      dup7\n        /* \"#utility.yul\":15898:15917   */\n      and\n        /* \"#utility.yul\":15891:15896   */\n      dup5\n        /* \"#utility.yul\":15888:15918   */\n      or\n        /* \"#utility.yul\":15878:15918   */\n      swap3\n      pop\n        /* \"#utility.yul\":15607:15924   */\n      pop\n      pop\n        /* \"#utility.yul\":15531:15924   */\n      swap4\n      swap3\n      pop\n      pop\n      pop\n      jump\t// out\n        /* \"#utility.yul\":15930:15990   */\n    tag_178:\n        /* \"#utility.yul\":15958:15961   */\n      0x00\n        /* \"#utility.yul\":15979:15984   */\n      dup2\n        /* \"#utility.yul\":15972:15984   */\n      swap1\n      pop\n        /* \"#utility.yul\":15930:15990   */\n      swap2\n      swap1\n      pop\n      jump\t// out\n        /* \"#utility.yul\":15996:16138   */\n    tag_179:\n        /* \"#utility.yul\":16046:16055   */\n      0x00\n        /* \"#utility.yul\":16079:16132   */\n      tag_350\n        /* \"#utility.yul\":16097:16131   */\n      tag_351\n        /* \"#utility.yul\":16106:16130   */\n      tag_352\n        /* \"#utility.yul\":16124:16129   */\n      dup5\n        /* \"#utility.yul\":16106:16130   */\n      tag_138\n      jump\t// in\n    tag_352:\n        /* \"#utility.yul\":16097:16131   */\n      tag_178\n      jump\t// in\n    tag_351:\n        /* \"#utility.yul\":16079:16132   */\n      tag_138\n      jump\t// in\n    tag_350:\n        /* \"#utility.yul\":16066:16132   */\n      swap1\n      pop\n        /* \"#utility.yul\":15996:16138   */\n      swap2\n      swap1\n      pop\n      jump\t// out\n        /* \"#utility.yul\":16144:16219   */\n    tag_180:\n        /* \"#utility.yul\":16187:16190   */\n      0x00\n        /* \"#utility.yul\":16208:16213   */\n      dup2\n        /* \"#utility.yul\":16201:16213   */\n      swap1\n      pop\n        /* \"#utility.yul\":16144:16219   */\n      swap2\n      swap1\n      pop\n      jump\t// out\n        /* \"#utility.yul\":16225:16494   */\n    tag_181:\n        /* \"#utility.yul\":16335:16374   */\n      tag_355\n        /* \"#utility.yul\":16366:16373   */\n      dup4\n        /* \"#utility.yul\":16335:16374   */\n      tag_179\n      jump\t// in\n    tag_355:\n        /* \"#utility.yul\":16396:16487   */\n      tag_356\n        /* \"#utility.yul\":16445:16486   */\n      tag_357\n        /* \"#utility.yul\":16469:16485   */\n      dup3\n        /* \"#utility.yul\":16445:16486   */\n      tag_180\n      jump\t// in\n    tag_357:\n        /* \"#utility.yul\":16437:16443   */\n      dup5\n        /* \"#utility.yul\":16430:16434   */\n      dup5\n        /* \"#utility.yul\":16424:16435   */\n      sload\n        /* \"#utility.yul\":16396:16487   */\n      tag_177\n      jump\t// in\n    tag_356:\n        /* \"#utility.yul\":16390:16394   */\n      dup3\n        /* \"#utility.yul\":16383:16488   */\n      sstore\n        /* \"#utility.yul\":16301:16494   */\n      pop\n        /* \"#utility.yul\":16225:16494   */\n      pop\n      pop\n      pop\n      jump\t// out\n        /* \"#utility.yul\":16500:16573   */\n    tag_182:\n        /* \"#utility.yul\":16545:16548   */\n      0x00\n        /* \"#utility.yul\":16566:16567   */\n      0x00\n        /* \"#utility.yul\":16559:16567   */\n      swap1\n      pop\n        /* \"#utility.yul\":16500:16573   */\n      swap1\n      jump\t// out\n        /* \"#utility.yul\":16579:16768   */\n    tag_183:\n        /* \"#utility.yul\":16656:16688   */\n      tag_360\n      tag_182\n      jump\t// in\n    tag_360:\n        /* \"#utility.yul\":16697:16762   */\n      tag_361\n        /* \"#utility.yul\":16755:16761   */\n      dup2\n        /* \"#utility.yul\":16747:16753   */\n      dup5\n        /* \"#utility.yul\":16741:16745   */\n      dup5\n        /* \"#utility.yul\":16697:16762   */\n      tag_181\n      jump\t// in\n    tag_361:\n        /* \"#utility.yul\":16632:16768   */\n      pop\n        /* \"#utility.yul\":16579:16768   */\n      pop\n      pop\n      jump\t// out\n        /* \"#utility.yul\":16774:16960   */\n    tag_184:\n        /* \"#utility.yul\":16834:16954   */\n    tag_363:\n        /* \"#utility.yul\":16851:16854   */\n      dup2\n        /* \"#utility.yul\":16844:16849   */\n      dup2\n        /* \"#utility.yul\":16841:16855   */\n      lt\n        /* \"#utility.yul\":16834:16954   */\n      iszero\n      tag_365\n      jumpi\n        /* \"#utility.yul\":16905:16944   */\n      tag_366\n        /* \"#utility.yul\":16942:16943   */\n      0x00\n        /* \"#utility.yul\":16935:16940   */\n      dup3\n        /* \"#utility.yul\":16905:16944   */\n      tag_183\n      jump\t// in\n    tag_366:\n        /* \"#utility.yul\":16878:16879   */\n      0x01\n        /* \"#utility.yul\":16871:16876   */\n      dup2\n        /* \"#utility.yul\":16867:16880   */\n      add\n        /* \"#utility.yul\":16858:16880   */\n      swap1\n      pop\n        /* \"#utility.yul\":16834:16954   */\n      jump(tag_363)\n    tag_365:\n        /* \"#utility.yul\":16774:16960   */\n      pop\n      pop\n      jump\t// out\n        /* \"#utility.yul\":16966:17509   */\n    tag_185:\n        /* \"#utility.yul\":17067:17069   */\n      0x1f\n        /* \"#utility.yul\":17062:17065   */\n      dup3\n        /* \"#utility.yul\":17059:17070   */\n      gt\n        /* \"#utility.yul\":17056:17502   */\n      iszero\n      tag_368\n      jumpi\n        /* \"#utility.yul\":17101:17139   */\n      tag_369\n        /* \"#utility.yul\":17133:17138   */\n      dup2\n        /* \"#utility.yul\":17101:17139   */\n      tag_174\n      jump\t// in\n    tag_369:\n        /* \"#utility.yul\":17185:17214   */\n      tag_370\n        /* \"#utility.yul\":17203:17213   */\n      dup5\n        /* \"#utility.yul\":17185:17214   */\n      tag_175\n      jump\t// in\n    tag_370:\n        /* \"#utility.yul\":17175:17183   */\n      dup2\n        /* \"#utility.yul\":17171:17215   */\n      add\n        /* \"#utility.yul\":17368:17370   */\n      0x20\n        /* \"#utility.yul\":17356:17366   */\n      dup6\n        /* \"#utility.yul\":17353:17371   */\n      lt\n        /* \"#utility.yul\":17350:17399   */\n      iszero\n      tag_371\n      jumpi\n        /* \"#utility.yul\":17389:17397   */\n      dup2\n        /* \"#utility.yul\":17374:17397   */\n      swap1\n      pop\n        /* \"#utility.yul\":17350:17399   */\n    tag_371:\n        /* \"#utility.yul\":17412:17492   */\n      tag_372\n        /* \"#utility.yul\":17468:17490   */\n      tag_373\n        /* \"#utility.yul\":17486:17489   */\n      dup6\n        /* \"#utility.yul\":17468:17490   */\n      tag_175\n      jump\t// in\n    tag_373:\n        /* \"#utility.yul\":17458:17466   */\n      dup4\n        /* \"#utility.yul\":17454:17491   */\n      add\n        /* \"#utility.yul\":17441:17452   */\n      dup3\n        /* \"#utility.yul\":17412:17492   */\n      tag_184\n      jump\t// in\n    tag_372:\n        /* \"#utility.yul\":17071:17502   */\n      pop\n      pop\n        /* \"#utility.yul\":17056:17502   */\n    tag_368:\n        /* \"#utility.yul\":16966:17509   */\n      pop\n      pop\n      pop\n      jump\t// out\n        /* \"#utility.yul\":17515:17632   */\n    tag_186:\n        /* \"#utility.yul\":17569:17577   */\n      0x00\n        /* \"#utility.yul\":17619:17624   */\n      dup3\n        /* \"#utility.yul\":17613:17617   */\n      dup3\n        /* \"#utility.yul\":17609:17625   */\n      shr\n        /* \"#utility.yul\":17588:17625   */\n      swap1\n      pop\n        /* \"#utility.yul\":17515:17632   */\n      swap3\n      swap2\n      pop\n      pop\n      jump\t// out\n        /* \"#utility.yul\":17638:17807   */\n    tag_187:\n        /* \"#utility.yul\":17682:17688   */\n      0x00\n        /* \"#utility.yul\":17715:17766   */\n      tag_376\n        /* \"#utility.yul\":17763:17764   */\n      0x00\n        /* \"#utility.yul\":17759:17765   */\n      not\n        /* \"#utility.yul\":17751:17756   */\n      dup5\n        /* \"#utility.yul\":17748:17749   */\n      0x08\n        /* \"#utility.yul\":17744:17757   */\n      mul\n        /* \"#utility.yul\":17715:17766   */\n      tag_186\n      jump\t// in\n    tag_376:\n        /* \"#utility.yul\":17711:17767   */\n      not\n        /* \"#utility.yul\":17796:17800   */\n      dup1\n        /* \"#utility.yul\":17790:17794   */\n      dup4\n        /* \"#utility.yul\":17786:17801   */\n      and\n        /* \"#utility.yul\":17776:17801   */\n      swap2\n      pop\n        /* \"#utility.yul\":17689:17807   */\n      pop\n        /* \"#utility.yul\":17638:17807   */\n      swap3\n      swap2\n      pop\n      pop\n      jump\t// out\n        /* \"#utility.yul\":17812:18107   */\n    tag_188:\n        /* \"#utility.yul\":17888:17892   */\n      0x00\n        /* \"#utility.yul\":18034:18063   */\n      tag_378\n        /* \"#utility.yul\":18059:18062   */\n      dup4\n        /* \"#utility.yul\":18053:18057   */\n      dup4\n        /* \"#utility.yul\":18034:18063   */\n      tag_187\n      jump\t// in\n    tag_378:\n        /* \"#utility.yul\":18026:18063   */\n      swap2\n      pop\n        /* \"#utility.yul\":18096:18099   */\n      dup3\n        /* \"#utility.yul\":18093:18094   */\n      0x02\n        /* \"#utility.yul\":18089:18100   */\n      mul\n        /* \"#utility.yul\":18083:18087   */\n      dup3\n        /* \"#utility.yul\":18080:18101   */\n      or\n        /* \"#utility.yul\":18072:18101   */\n      swap1\n      pop\n        /* \"#utility.yul\":17812:18107   */\n      swap3\n      swap2\n      pop\n      pop\n      jump\t// out\n        /* \"#utility.yul\":18112:19507   */\n    tag_62:\n        /* \"#utility.yul\":18229:18266   */\n      tag_380\n        /* \"#utility.yul\":18262:18265   */\n      dup3\n        /* \"#utility.yul\":18229:18266   */\n      tag_143\n      jump\t// in\n    tag_380:\n        /* \"#utility.yul\":18331:18349   */\n      0xffffffffffffffff\n        /* \"#utility.yul\":18323:18329   */\n      dup2\n        /* \"#utility.yul\":18320:18350   */\n      gt\n        /* \"#utility.yul\":18317:18373   */\n      iszero\n      tag_381\n      jumpi\n        /* \"#utility.yul\":18353:18371   */\n      tag_382\n      tag_105\n      jump\t// in\n    tag_382:\n        /* \"#utility.yul\":18317:18373   */\n    tag_381:\n        /* \"#utility.yul\":18397:18435   */\n      tag_383\n        /* \"#utility.yul\":18429:18433   */\n      dup3\n        /* \"#utility.yul\":18423:18434   */\n      sload\n        /* \"#utility.yul\":18397:18435   */\n      tag_70\n      jump\t// in\n    tag_383:\n        /* \"#utility.yul\":18482:18549   */\n      tag_384\n        /* \"#utility.yul\":18542:18548   */\n      dup3\n        /* \"#utility.yul\":18534:18540   */\n      dup3\n        /* \"#utility.yul\":18528:18532   */\n      dup6\n        /* \"#utility.yul\":18482:18549   */\n      tag_185\n      jump\t// in\n    tag_384:\n        /* \"#utility.yul\":18576:18577   */\n      0x00\n        /* \"#utility.yul\":18600:18604   */\n      0x20\n        /* \"#utility.yul\":18587:18604   */\n      swap1\n      pop\n        /* \"#utility.yul\":18632:18634   */\n      0x1f\n        /* \"#utility.yul\":18624:18630   */\n      dup4\n        /* \"#utility.yul\":18621:18635   */\n      gt\n        /* \"#utility.yul\":18649:18650   */\n      0x01\n        /* \"#utility.yul\":18644:19262   */\n      dup2\n      eq\n      tag_386\n      jumpi\n        /* \"#utility.yul\":19306:19307   */\n      0x00\n        /* \"#utility.yul\":19323:19329   */\n      dup5\n        /* \"#utility.yul\":19320:19397   */\n      iszero\n      tag_387\n      jumpi\n        /* \"#utility.yul\":19372:19381   */\n      dup3\n        /* \"#utility.yul\":19367:19370   */\n      dup8\n        /* \"#utility.yul\":19363:19382   */\n      add\n        /* \"#utility.yul\":19357:19383   */\n      mload\n        /* \"#utility.yul\":19348:19383   */\n      swap1\n      pop\n        /* \"#utility.yul\":19320:19397   */\n    tag_387:\n        /* \"#utility.yul\":19423:19490   */\n      tag_388\n        /* \"#utility.yul\":19483:19489   */\n      dup6\n        /* \"#utility.yul\":19476:19481   */\n      dup3\n        /* \"#utility.yul\":19423:19490   */\n      tag_188\n      jump\t// in\n    tag_388:\n        /* \"#utility.yul\":19417:19421   */\n      dup7\n        /* \"#utility.yul\":19410:19491   */\n      sstore\n        /* \"#utility.yul\":19279:19501   */\n      pop\n        /* \"#utility.yul\":18614:19501   */\n      jump(tag_385)\n        /* \"#utility.yul\":18644:19262   */\n    tag_386:\n        /* \"#utility.yul\":18696:18700   */\n      0x1f\n        /* \"#utility.yul\":18692:18701   */\n      not\n        /* \"#utility.yul\":18684:18690   */\n      dup5\n        /* \"#utility.yul\":18680:18702   */\n      and\n        /* \"#utility.yul\":18730:18767   */\n      tag_389\n        /* \"#utility.yul\":18762:18766   */\n      dup7\n        /* \"#utility.yul\":18730:18767   */\n      tag_174\n      jump\t// in\n    tag_389:\n        /* \"#utility.yul\":18789:18790   */\n      0x00\n        /* \"#utility.yul\":18803:19011   */\n    tag_390:\n        /* \"#utility.yul\":18817:18824   */\n      dup3\n        /* \"#utility.yul\":18814:18815   */\n      dup2\n        /* \"#utility.yul\":18811:18825   */\n      lt\n        /* \"#utility.yul\":18803:19011   */\n      iszero\n      tag_392\n      jumpi\n        /* \"#utility.yul\":18896:18905   */\n      dup5\n        /* \"#utility.yul\":18891:18894   */\n      dup10\n        /* \"#utility.yul\":18887:18906   */\n      add\n        /* \"#utility.yul\":18881:18907   */\n      mload\n        /* \"#utility.yul\":18873:18879   */\n      dup3\n        /* \"#utility.yul\":18866:18908   */\n      sstore\n        /* \"#utility.yul\":18947:18948   */\n      0x01\n        /* \"#utility.yul\":18939:18945   */\n      dup3\n        /* \"#utility.yul\":18935:18949   */\n      add\n        /* \"#utility.yul\":18925:18949   */\n      swap2\n      pop\n        /* \"#utility.yul\":18994:18996   */\n      0x20\n        /* \"#utility.yul\":18983:18992   */\n      dup6\n        /* \"#utility.yul\":18979:18997   */\n      add\n        /* \"#utility.yul\":18966:18997   */\n      swap5\n      pop\n        /* \"#utility.yul\":18840:18844   */\n      0x20\n        /* \"#utility.yul\":18837:18838   */\n      dup2\n        /* \"#utility.yul\":18833:18845   */\n      add\n        /* \"#utility.yul\":18828:18845   */\n      swap1\n      pop\n        /* \"#utility.yul\":18803:19011   */\n      jump(tag_390)\n    tag_392:\n        /* \"#utility.yul\":19039:19045   */\n      dup7\n        /* \"#utility.yul\":19030:19037   */\n      dup4\n        /* \"#utility.yul\":19027:19046   */\n      lt\n        /* \"#utility.yul\":19024:19203   */\n      iszero\n      tag_393\n      jumpi\n        /* \"#utility.yul\":19097:19106   */\n      dup5\n        /* \"#utility.yul\":19092:19095   */\n      dup10\n        /* \"#utility.yul\":19088:19107   */\n      add\n        /* \"#utility.yul\":19082:19108   */\n      mload\n        /* \"#utility.yul\":19140:19188   */\n      tag_394\n        /* \"#utility.yul\":19182:19186   */\n      0x1f\n        /* \"#utility.yul\":19174:19180   */\n      dup10\n        /* \"#utility.yul\":19170:19187   */\n      and\n        /* \"#utility.yul\":19159:19168   */\n      dup3\n        /* \"#utility.yul\":19140:19188   */\n      tag_187\n      jump\t// in\n    tag_394:\n        /* \"#utility.yul\":19132:19138   */\n      dup4\n        /* \"#utility.yul\":19125:19189   */\n      sstore\n        /* \"#utility.yul\":19047:19203   */\n      pop\n        /* \"#utility.yul\":19024:19203   */\n    tag_393:\n        /* \"#utility.yul\":19249:19250   */\n      0x01\n        /* \"#utility.yul\":19245:19246   */\n      0x02\n        /* \"#utility.yul\":19237:19243   */\n      dup9\n        /* \"#utility.yul\":19233:19247   */\n      mul\n        /* \"#utility.yul\":19229:19251   */\n      add\n        /* \"#utility.yul\":19223:19227   */\n      dup9\n        /* \"#utility.yul\":19216:19252   */\n      sstore\n        /* \"#utility.yul\":18651:19262   */\n      pop\n      pop\n      pop\n        /* \"#utility.yul\":18614:19501   */\n    tag_385:\n      pop\n        /* \"#utility.yul\":18204:19507   */\n      pop\n      pop\n      pop\n        /* \"#utility.yul\":18112:19507   */\n      pop\n      pop\n      jump\t// out\n        /* \"#utility.yul\":19513:19693   */\n    tag_189:\n        /* \"#utility.yul\":19561:19638   */\n      0x4e487b7100000000000000000000000000000000000000000000000000000000\n        /* \"#utility.yul\":19558:19559   */\n      0x00\n        /* \"#utility.yul\":19551:19639   */\n      mstore\n        /* \"#utility.yul\":19658:19662   */\n      0x11\n        /* \"#utility.yul\":19655:19656   */\n      0x04\n        /* \"#utility.yul\":19648:19663   */\n      mstore\n        /* \"#utility.yul\":19682:19686   */\n      0x24\n        /* \"#utility.yul\":19679:19680   */\n      0x00\n        /* \"#utility.yul\":19672:19687   */\n      revert\n        /* \"#utility.yul\":19699:19893   */\n    tag_64:\n        /* \"#utility.yul\":19739:19743   */\n      0x00\n        /* \"#utility.yul\":19759:19779   */\n      tag_397\n        /* \"#utility.yul\":19777:19778   */\n      dup3\n        /* \"#utility.yul\":19759:19779   */\n      tag_138\n      jump\t// in\n    tag_397:\n        /* \"#utility.yul\":19754:19779   */\n      swap2\n      pop\n        /* \"#utility.yul\":19793:19813   */\n      tag_398\n        /* \"#utility.yul\":19811:19812   */\n      dup4\n        /* \"#utility.yul\":19793:19813   */\n      tag_138\n      jump\t// in\n    tag_398:\n        /* \"#utility.yul\":19788:19813   */\n      swap3\n      pop\n        /* \"#utility.yul\":19837:19838   */\n      dup3\n        /* \"#utility.yul\":19834:19835   */\n      dup3\n        /* \"#utility.yul\":19830:19839   */\n      sub\n        /* \"#utility.yul\":19822:19839   */\n      swap1\n      pop\n        /* \"#utility.yul\":19861:19862   */\n      dup2\n        /* \"#utility.yul\":19855:19859   */\n      dup2\n        /* \"#utility.yul\":19852:19863   */\n      gt\n        /* \"#utility.yul\":19849:19886   */\n      iszero\n      tag_399\n      jumpi\n        /* \"#utility.yul\":19866:19884   */\n      tag_400\n      tag_189\n      jump\t// in\n    tag_400:\n        /* \"#utility.yul\":19849:19886   */\n    tag_399:\n        /* \"#utility.yul\":19699:19893   */\n      swap3\n      swap2\n      pop\n      pop\n      jump\t// out\n        /* \"#utility.yul\":19899:20047   */\n    tag_190:\n        /* \"#utility.yul\":19997:20003   */\n      dup3\n        /* \"#utility.yul\":19992:19995   */\n      dup2\n        /* \"#utility.yul\":19987:19990   */\n      dup4\n        /* \"#utility.yul\":19974:20004   */\n      calldatacopy\n        /* \"#utility.yul\":20038:20039   */\n      0x00\n        /* \"#utility.yul\":20029:20035   */\n      dup4\n        /* \"#utility.yul\":20024:20027   */\n      dup4\n        /* \"#utility.yul\":20020:20036   */\n      add\n        /* \"#utility.yul\":20013:20040   */\n      mstore\n        /* \"#utility.yul\":19899:20047   */\n      pop\n      pop\n      pop\n      jump\t// out\n        /* \"#utility.yul\":20077:20394   */\n    tag_191:\n        /* \"#utility.yul\":20175:20178   */\n      0x00\n        /* \"#utility.yul\":20196:20267   */\n      tag_403\n        /* \"#utility.yul\":20260:20266   */\n      dup4\n        /* \"#utility.yul\":20255:20258   */\n      dup6\n        /* \"#utility.yul\":20196:20267   */\n      tag_144\n      jump\t// in\n    tag_403:\n        /* \"#utility.yul\":20189:20267   */\n      swap4\n      pop\n        /* \"#utility.yul\":20277:20333   */\n      tag_404\n        /* \"#utility.yul\":20326:20332   */\n      dup4\n        /* \"#utility.yul\":20321:20324   */\n      dup6\n        /* \"#utility.yul\":20314:20319   */\n      dup5\n        /* \"#utility.yul\":20277:20333   */\n      tag_190\n      jump\t// in\n    tag_404:\n        /* \"#utility.yul\":20358:20387   */\n      tag_405\n        /* \"#utility.yul\":20380:20386   */\n      dup4\n        /* \"#utility.yul\":20358:20387   */\n      tag_146\n      jump\t// in\n    tag_405:\n        /* \"#utility.yul\":20353:20356   */\n      dup5\n        /* \"#utility.yul\":20349:20388   */\n      add\n        /* \"#utility.yul\":20342:20388   */\n      swap1\n      pop\n        /* \"#utility.yul\":20077:20394   */\n      swap4\n      swap3\n      pop\n      pop\n      pop\n      jump\t// out\n        /* \"#utility.yul\":20400:21056   */\n    tag_66:\n        /* \"#utility.yul\":20603:20607   */\n      0x00\n        /* \"#utility.yul\":20641:20644   */\n      0x80\n        /* \"#utility.yul\":20630:20639   */\n      dup3\n        /* \"#utility.yul\":20626:20645   */\n      add\n        /* \"#utility.yul\":20618:20645   */\n      swap1\n      pop\n        /* \"#utility.yul\":20655:20722   */\n      tag_407\n        /* \"#utility.yul\":20719:20720   */\n      0x00\n        /* \"#utility.yul\":20708:20717   */\n      dup4\n        /* \"#utility.yul\":20704:20721   */\n      add\n        /* \"#utility.yul\":20695:20701   */\n      dup9\n        /* \"#utility.yul\":20655:20722   */\n      tag_142\n      jump\t// in\n    tag_407:\n        /* \"#utility.yul\":20732:20804   */\n      tag_408\n        /* \"#utility.yul\":20800:20802   */\n      0x20\n        /* \"#utility.yul\":20789:20798   */\n      dup4\n        /* \"#utility.yul\":20785:20803   */\n      add\n        /* \"#utility.yul\":20776:20782   */\n      dup8\n        /* \"#utility.yul\":20732:20804   */\n      tag_141\n      jump\t// in\n    tag_408:\n        /* \"#utility.yul\":20851:20860   */\n      dup2\n        /* \"#utility.yul\":20845:20849   */\n      dup2\n        /* \"#utility.yul\":20841:20861   */\n      sub\n        /* \"#utility.yul\":20836:20838   */\n      0x40\n        /* \"#utility.yul\":20825:20834   */\n      dup4\n        /* \"#utility.yul\":20821:20839   */\n      add\n        /* \"#utility.yul\":20814:20862   */\n      mstore\n        /* \"#utility.yul\":20879:20967   */\n      tag_409\n        /* \"#utility.yul\":20962:20966   */\n      dup2\n        /* \"#utility.yul\":20953:20959   */\n      dup6\n        /* \"#utility.yul\":20945:20951   */\n      dup8\n        /* \"#utility.yul\":20879:20967   */\n      tag_191\n      jump\t// in\n    tag_409:\n        /* \"#utility.yul\":20871:20967   */\n      swap1\n      pop\n        /* \"#utility.yul\":20977:21049   */\n      tag_410\n        /* \"#utility.yul\":21045:21047   */\n      0x60\n        /* \"#utility.yul\":21034:21043   */\n      dup4\n        /* \"#utility.yul\":21030:21048   */\n      add\n        /* \"#utility.yul\":21021:21027   */\n      dup5\n        /* \"#utility.yul\":20977:21049   */\n      tag_148\n      jump\t// in\n    tag_410:\n        /* \"#utility.yul\":20400:21056   */\n      swap7\n      swap6\n      pop\n      pop\n      pop\n      pop\n      pop\n      pop\n      jump\t// out\n        /* \"#utility.yul\":21062:21221   */\n    tag_192:\n        /* \"#utility.yul\":21202:21213   */\n      0x4e6f74206f776e65720000000000000000000000000000000000000000000000\n        /* \"#utility.yul\":21198:21199   */\n      0x00\n        /* \"#utility.yul\":21190:21196   */\n      dup3\n        /* \"#utility.yul\":21186:21200   */\n      add\n        /* \"#utility.yul\":21179:21214   */\n      mstore\n        /* \"#utility.yul\":21062:21221   */\n      pop\n      jump\t// out\n        /* \"#utility.yul\":21227:21592   */\n    tag_193:\n        /* \"#utility.yul\":21369:21372   */\n      0x00\n        /* \"#utility.yul\":21390:21456   */\n      tag_413\n        /* \"#utility.yul\":21454:21455   */\n      0x09\n        /* \"#utility.yul\":21449:21452   */\n      dup4\n        /* \"#utility.yul\":21390:21456   */\n      tag_144\n      jump\t// in\n    tag_413:\n        /* \"#utility.yul\":21383:21456   */\n      swap2\n      pop\n        /* \"#utility.yul\":21465:21558   */\n      tag_414\n        /* \"#utility.yul\":21554:21557   */\n      dup3\n        /* \"#utility.yul\":21465:21558   */\n      tag_192\n      jump\t// in\n    tag_414:\n        /* \"#utility.yul\":21583:21585   */\n      0x20\n        /* \"#utility.yul\":21578:21581   */\n      dup3\n        /* \"#utility.yul\":21574:21586   */\n      add\n        /* \"#utility.yul\":21567:21586   */\n      swap1\n      pop\n        /* \"#utility.yul\":21227:21592   */\n      swap2\n      swap1\n      pop\n      jump\t// out\n        /* \"#utility.yul\":21598:22017   */\n    tag_79:\n        /* \"#utility.yul\":21764:21768   */\n      0x00\n        /* \"#utility.yul\":21802:21804   */\n      0x20\n        /* \"#utility.yul\":21791:21800   */\n      dup3\n        /* \"#utility.yul\":21787:21805   */\n      add\n        /* \"#utility.yul\":21779:21805   */\n      swap1\n      pop\n        /* \"#utility.yul\":21851:21860   */\n      dup2\n        /* \"#utility.yul\":21845:21849   */\n      dup2\n        /* \"#utility.yul\":21841:21861   */\n      sub\n        /* \"#utility.yul\":21837:21838   */\n      0x00\n        /* \"#utility.yul\":21826:21835   */\n      dup4\n        /* \"#utility.yul\":21822:21839   */\n      add\n        /* \"#utility.yul\":21815:21862   */\n      mstore\n        /* \"#utility.yul\":21879:22010   */\n      tag_416\n        /* \"#utility.yul\":22005:22009   */\n      dup2\n        /* \"#utility.yul\":21879:22010   */\n      tag_193\n      jump\t// in\n    tag_416:\n        /* \"#utility.yul\":21871:22010   */\n      swap1\n      pop\n        /* \"#utility.yul\":21598:22017   */\n      swap2\n      swap1\n      pop\n      jump\t// out\n        /* \"#utility.yul\":22023:22194   */\n    tag_194:\n        /* \"#utility.yul\":22163:22186   */\n      0x5369676e616c20646f6573206e6f742065786973740000000000000000000000\n        /* \"#utility.yul\":22159:22160   */\n      0x00\n        /* \"#utility.yul\":22151:22157   */\n      dup3\n        /* \"#utility.yul\":22147:22161   */\n      add\n        /* \"#utility.yul\":22140:22187   */\n      mstore\n        /* \"#utility.yul\":22023:22194   */\n      pop\n      jump\t// out\n        /* \"#utility.yul\":22200:22566   */\n    tag_195:\n        /* \"#utility.yul\":22342:22345   */\n      0x00\n        /* \"#utility.yul\":22363:22430   */\n      tag_419\n        /* \"#utility.yul\":22427:22429   */\n      0x15\n        /* \"#utility.yul\":22422:22425   */\n      dup4\n        /* \"#utility.yul\":22363:22430   */\n      tag_144\n      jump\t// in\n    tag_419:\n        /* \"#utility.yul\":22356:22430   */\n      swap2\n      pop\n        /* \"#utility.yul\":22439:22532   */\n      tag_420\n        /* \"#utility.yul\":22528:22531   */\n      dup3\n        /* \"#utility.yul\":22439:22532   */\n      tag_194\n      jump\t// in\n    tag_420:\n        /* \"#utility.yul\":22557:22559   */\n      0x20\n        /* \"#utility.yul\":22552:22555   */\n      dup3\n        /* \"#utility.yul\":22548:22560   */\n      add\n        /* \"#utility.yul\":22541:22560   */\n      swap1\n      pop\n        /* \"#utility.yul\":22200:22566   */\n      swap2\n      swap1\n      pop\n      jump\t// out\n        /* \"#utility.yul\":22572:22991   */\n    tag_88:\n        /* \"#utility.yul\":22738:22742   */\n      0x00\n        /* \"#utility.yul\":22776:22778   */\n      0x20\n        /* \"#utility.yul\":22765:22774   */\n      dup3\n        /* \"#utility.yul\":22761:22779   */\n      add\n        /* \"#utility.yul\":22753:22779   */\n      swap1\n      pop\n        /* \"#utility.yul\":22825:22834   */\n      dup2\n        /* \"#utility.yul\":22819:22823   */\n      dup2\n        /* \"#utility.yul\":22815:22835   */\n      sub\n        /* \"#utility.yul\":22811:22812   */\n      0x00\n        /* \"#utility.yul\":22800:22809   */\n      dup4\n        /* \"#utility.yul\":22796:22813   */\n      add\n        /* \"#utility.yul\":22789:22836   */\n      mstore\n        /* \"#utility.yul\":22853:22984   */\n      tag_422\n        /* \"#utility.yul\":22979:22983   */\n      dup2\n        /* \"#utility.yul\":22853:22984   */\n      tag_195\n      jump\t// in\n    tag_422:\n        /* \"#utility.yul\":22845:22984   */\n      swap1\n      pop\n        /* \"#utility.yul\":22572:22991   */\n      swap2\n      swap1\n      pop\n      jump\t// out\n        /* \"#utility.yul\":22997:23177   */\n    tag_91:\n        /* \"#utility.yul\":23045:23122   */\n      0x4e487b7100000000000000000000000000000000000000000000000000000000\n        /* \"#utility.yul\":23042:23043   */\n      0x00\n        /* \"#utility.yul\":23035:23123   */\n      mstore\n        /* \"#utility.yul\":23142:23146   */\n      0x32\n        /* \"#utility.yul\":23139:23140   */\n      0x04\n        /* \"#utility.yul\":23132:23147   */\n      mstore\n        /* \"#utility.yul\":23166:23170   */\n      0x24\n        /* \"#utility.yul\":23163:23164   */\n      0x00\n        /* \"#utility.yul\":23156:23171   */\n      revert\n        /* \"#utility.yul\":23183:23374   */\n    tag_114:\n        /* \"#utility.yul\":23223:23226   */\n      0x00\n        /* \"#utility.yul\":23242:23262   */\n      tag_425\n        /* \"#utility.yul\":23260:23261   */\n      dup3\n        /* \"#utility.yul\":23242:23262   */\n      tag_138\n      jump\t// in\n    tag_425:\n        /* \"#utility.yul\":23237:23262   */\n      swap2\n      pop\n        /* \"#utility.yul\":23276:23296   */\n      tag_426\n        /* \"#utility.yul\":23294:23295   */\n      dup4\n        /* \"#utility.yul\":23276:23296   */\n      tag_138\n      jump\t// in\n    tag_426:\n        /* \"#utility.yul\":23271:23296   */\n      swap3\n      pop\n        /* \"#utility.yul\":23319:23320   */\n      dup3\n        /* \"#utility.yul\":23316:23317   */\n      dup3\n        /* \"#utility.yul\":23312:23321   */\n      add\n        /* \"#utility.yul\":23305:23321   */\n      swap1\n      pop\n        /* \"#utility.yul\":23340:23343   */\n      dup1\n        /* \"#utility.yul\":23337:23338   */\n      dup3\n        /* \"#utility.yul\":23334:23344   */\n      gt\n        /* \"#utility.yul\":23331:23367   */\n      iszero\n      tag_427\n      jumpi\n        /* \"#utility.yul\":23347:23365   */\n      tag_428\n      tag_189\n      jump\t// in\n    tag_428:\n        /* \"#utility.yul\":23331:23367   */\n    tag_427:\n        /* \"#utility.yul\":23183:23374   */\n      swap3\n      swap2\n      pop\n      pop\n      jump\t// out\n\n    auxdata: 0xa26469706673582212207b98ebbd27919cb9e2954a105737f023431c359d385592fc7f5d3ba9c836d2c864736f6c634300081e0033\n}\n",
				"bytecode": {
					"linkReferences": {},
					"object": "6080604052348015600e575f5ffd5b50335f5f6101000a81548173ffffffffffffffffffffffffffffffffffffffff021916908373ffffffffffffffffffffffffffffffffffffffff1602179055506001805f3373ffffffffffffffffffffffffffffffffffffffff1673ffffffffffffffffffffffffffffffffffffffff1681526020019081526020015f205f6101000a81548160ff021916908315150217905550611732806100af5f395ff3fe608060405234801561000f575f5ffd5b5060043610610091575f3560e01c80637da6ac0d116100645780637da6ac0d14610120578063828e58e21461013c5780638da5cb5b14610171578063efd760651461018f578063fa51d729146101bf57610091565b80632bb0aaa51461009557806347c740cd146100b1578063592ee87a146100e65780636d88b24d14610104575b5f5ffd5b6100af60048036038101906100aa9190610c5a565b6101ef565b005b6100cb60048036038101906100c69190610d11565b610480565b6040516100dd96959493929190610e18565b60405180910390f35b6100ee610585565b6040516100fb9190610e7e565b60405180910390f35b61011e60048036038101906101199190610ec1565b610591565b005b61013a60048036038101906101359190610ec1565b610676565b005b61015660048036038101906101519190610d11565b61075b565b60405161016896959493929190610e18565b60405180910390f35b6101796108c0565b6040516101869190610eec565b60405180910390f35b6101a960048036038101906101a49190610ec1565b6108e4565b6040516101b69190610f1f565b60405180910390f35b6101d960048036038101906101d49190610d11565b610901565b6040516101e691906110fd565b60405180910390f35b60015f3373ffffffffffffffffffffffffffffffffffffffff1673ffffffffffffffffffffffffffffffffffffffff1681526020019081526020015f205f9054906101000a900460ff16610278576040517f08c379a000000000000000000000000000000000000000000000000000000000815260040161026f90611167565b60405180910390fd5b60648360ff1611156102bf576040517f08c379a00000000000000000000000000000000000000000000000000000000081526004016102b6906111cf565b60405180910390fd5b60026040518060c001604052808781526020018660ff1681526020018560ff16815260200184848080601f0160208091040260200160405190810160405280939291908181526020018383808284375f81840152601f19601f8201169050808301925050505050505081526020014281526020013373ffffffffffffffffffffffffffffffffffffffff16815250908060018154018082558091505060019003905f5260205f2090600502015f909190919091505f820151815f01556020820151816001015f6101000a81548160ff021916908360ff16021790555060408201518160010160016101000a81548160ff021916908360ff16021790555060608201518160020190816103d19190611417565b506080820151816003015560a0820151816004015f6101000a81548173ffffffffffffffffffffffffffffffffffffffff021916908373ffffffffffffffffffffffffffffffffffffffff16021790555050508360ff16600160028054905061043a9190611513565b7f6b75fe5fa2a41ab0872779d102926cc96769af60976e520e0800f27d5d5707678588868642604051610471959493929190611580565b60405180910390a35050505050565b6002818154811061048f575f80fd5b905f5260205f2090600502015f91509050805f015490806001015f9054906101000a900460ff16908060010160019054906101000a900460ff16908060020180546104d990611247565b80601f016020809104026020016040519081016040528092919081815260200182805461050590611247565b80156105505780601f1061052757610100808354040283529160200191610550565b820191905f5260205f20905b81548152906001019060200180831161053357829003601f168201915b505050505090806003015490806004015f9054906101000a900473ffffffffffffffffffffffffffffffffffffffff16905086565b5f600280549050905090565b5f5f9054906101000a900473ffffffffffffffffffffffffffffffffffffffff1673ffffffffffffffffffffffffffffffffffffffff163373ffffffffffffffffffffffffffffffffffffffff161461061f576040517f08c379a000000000000000000000000000000000000000000000000000000000815260040161061690611616565b60405180910390fd5b6001805f8373ffffffffffffffffffffffffffffffffffffffff1673ffffffffffffffffffffffffffffffffffffffff1681526020019081526020015f205f6101000a81548160ff02191690831515021790555050565b5f5f9054906101000a900473ffffffffffffffffffffffffffffffffffffffff1673ffffffffffffffffffffffffffffffffffffffff163373ffffffffffffffffffffffffffffffffffffffff1614610704576040517f08c379a00000000000000000000000000000000000000000000000000000000081526004016106fb90611616565b60405180910390fd5b5f60015f8373ffffffffffffffffffffffffffffffffffffffff1673ffffffffffffffffffffffffffffffffffffffff1681526020019081526020015f205f6101000a81548160ff02191690831515021790555050565b5f5f5f60605f5f60028054905087106107a9576040517f08c379a00000000000000000000000000000000000000000000000000000000081526004016107a09061167e565b60405180910390fd5b5f600288815481106107be576107bd61169c565b5b905f5260205f2090600502019050805f0154816001015f9054906101000a900460ff168260010160019054906101000a900460ff16836002018460030154856004015f9054906101000a900473ffffffffffffffffffffffffffffffffffffffff1682805461082c90611247565b80601f016020809104026020016040519081016040528092919081815260200182805461085890611247565b80156108a35780601f1061087a576101008083540402835291602001916108a3565b820191905f5260205f20905b81548152906001019060200180831161088657829003601f168201915b505050505092509650965096509650965096505091939550919395565b5f5f9054906101000a900473ffffffffffffffffffffffffffffffffffffffff1681565b6001602052805f5260405f205f915054906101000a900460ff1681565b60605f60028054905090505f83821161091a575f610927565b83826109269190611513565b5b90505f81836109369190611513565b90505f8167ffffffffffffffff811115610953576109526111ed565b5b60405190808252806020026020018201604052801561098c57816020015b610979610b3b565b8152602001906001900390816109715790505b5090505f5f90505b82811015610b2e57600281856109aa91906116c9565b815481106109bb576109ba61169c565b5b905f5260205f2090600502016040518060c00160405290815f8201548152602001600182015f9054906101000a900460ff1660ff1660ff1681526020016001820160019054906101000a900460ff1660ff1660ff168152602001600282018054610a2490611247565b80601f0160208091040260200160405190810160405280929190818152602001828054610a5090611247565b8015610a9b5780601f10610a7257610100808354040283529160200191610a9b565b820191905f5260205f20905b815481529060010190602001808311610a7e57829003601f168201915b5050505050815260200160038201548152602001600482015f9054906101000a900473ffffffffffffffffffffffffffffffffffffffff1673ffffffffffffffffffffffffffffffffffffffff1673ffffffffffffffffffffffffffffffffffffffff1681525050828281518110610b1657610b1561169c565b5b60200260200101819052508080600101915050610994565b5080945050505050919050565b6040518060c001604052805f81526020015f60ff1681526020015f60ff168152602001606081526020015f81526020015f73ffffffffffffffffffffffffffffffffffffffff1681525090565b5f5ffd5b5f5ffd5b5f819050919050565b610ba281610b90565b8114610bac575f5ffd5b50565b5f81359050610bbd81610b99565b92915050565b5f60ff82169050919050565b610bd881610bc3565b8114610be2575f5ffd5b50565b5f81359050610bf381610bcf565b92915050565b5f5ffd5b5f5ffd5b5f5ffd5b5f5f83601f840112610c1a57610c19610bf9565b5b8235905067ffffffffffffffff811115610c3757610c36610bfd565b5b602083019150836001820283011115610c5357610c52610c01565b5b9250929050565b5f5f5f5f5f60808688031215610c7357610c72610b88565b5b5f610c8088828901610baf565b9550506020610c9188828901610be5565b9450506040610ca288828901610be5565b935050606086013567ffffffffffffffff811115610cc357610cc2610b8c565b5b610ccf88828901610c05565b92509250509295509295909350565b5f819050919050565b610cf081610cde565b8114610cfa575f5ffd5b50565b5f81359050610d0b81610ce7565b92915050565b5f60208284031215610d2657610d25610b88565b5b5f610d3384828501610cfd565b91505092915050565b610d4581610b90565b82525050565b610d5481610bc3565b82525050565b5f81519050919050565b5f82825260208201905092915050565b8281835e5f83830152505050565b5f601f19601f8301169050919050565b5f610d9c82610d5a565b610da68185610d64565b9350610db6818560208601610d74565b610dbf81610d82565b840191505092915050565b610dd381610cde565b82525050565b5f73ffffffffffffffffffffffffffffffffffffffff82169050919050565b5f610e0282610dd9565b9050919050565b610e1281610df8565b82525050565b5f60c082019050610e2b5f830189610d3c565b610e386020830188610d4b565b610e456040830187610d4b565b8181036060830152610e578186610d92565b9050610e666080830185610dca565b610e7360a0830184610e09565b979650505050505050565b5f602082019050610e915f830184610dca565b92915050565b610ea081610df8565b8114610eaa575f5ffd5b50565b5f81359050610ebb81610e97565b92915050565b5f60208284031215610ed657610ed5610b88565b5b5f610ee384828501610ead565b91505092915050565b5f602082019050610eff5f830184610e09565b92915050565b5f8115159050919050565b610f1981610f05565b82525050565b5f602082019050610f325f830184610f10565b92915050565b5f81519050919050565b5f82825260208201905092915050565b5f819050602082019050919050565b610f6a81610b90565b82525050565b610f7981610bc3565b82525050565b5f82825260208201905092915050565b5f610f9982610d5a565b610fa38185610f7f565b9350610fb3818560208601610d74565b610fbc81610d82565b840191505092915050565b610fd081610cde565b82525050565b610fdf81610df8565b82525050565b5f60c083015f830151610ffa5f860182610f61565b50602083015161100d6020860182610f70565b5060408301516110206040860182610f70565b50606083015184820360608601526110388282610f8f565b915050608083015161104d6080860182610fc7565b5060a083015161106060a0860182610fd6565b508091505092915050565b5f6110768383610fe5565b905092915050565b5f602082019050919050565b5f61109482610f38565b61109e8185610f42565b9350836020820285016110b085610f52565b805f5b858110156110eb57848403895281516110cc858261106b565b94506110d78361107e565b925060208a019950506001810190506110b3565b50829750879550505050505092915050565b5f6020820190508181035f830152611115818461108a565b905092915050565b7f4e6f7420617574686f72697a6564206167656e740000000000000000000000005f82015250565b5f611151601483610d64565b915061115c8261111d565b602082019050919050565b5f6020820190508181035f83015261117e81611145565b9050919050565b7f436f6e666964656e6365206d75737420626520302d31303000000000000000005f82015250565b5f6111b9601883610d64565b91506111c482611185565b602082019050919050565b5f6020820190508181035f8301526111e6816111ad565b9050919050565b7f4e487b71000000000000000000000000000000000000000000000000000000005f52604160045260245ffd5b7f4e487b71000000000000000000000000000000000000000000000000000000005f52602260045260245ffd5b5f600282049050600182168061125e57607f821691505b6020821081036112715761127061121a565b5b50919050565b5f819050815f5260205f209050919050565b5f6020601f8301049050919050565b5f82821b905092915050565b5f600883026112d37fffffffffffffffffffffffffffffffffffffffffffffffffffffffffffffffff82611298565b6112dd8683611298565b95508019841693508086168417925050509392505050565b5f819050919050565b5f61131861131361130e84610cde565b6112f5565b610cde565b9050919050565b5f819050919050565b611331836112fe565b61134561133d8261131f565b8484546112a4565b825550505050565b5f5f905090565b61135c61134d565b611367818484611328565b505050565b5b8181101561138a5761137f5f82611354565b60018101905061136d565b5050565b601f8211156113cf576113a081611277565b6113a984611289565b810160208510156113b8578190505b6113cc6113c485611289565b83018261136c565b50505b505050565b5f82821c905092915050565b5f6113ef5f19846008026113d4565b1980831691505092915050565b5f61140783836113e0565b9150826002028217905092915050565b61142082610d5a565b67ffffffffffffffff811115611439576114386111ed565b5b6114438254611247565b61144e82828561138e565b5f60209050601f83116001811461147f575f841561146d578287015190505b61147785826113fc565b8655506114de565b601f19841661148d86611277565b5f5b828110156114b45784890151825560018201915060208501945060208101905061148f565b868310156114d157848901516114cd601f8916826113e0565b8355505b6001600288020188555050505b505050505050565b7f4e487b71000000000000000000000000000000000000000000000000000000005f52601160045260245ffd5b5f61151d82610cde565b915061152883610cde565b92508282039050818111156115405761153f6114e6565b5b92915050565b828183375f83830152505050565b5f61155f8385610d64565b935061156c838584611546565b61157583610d82565b840190509392505050565b5f6080820190506115935f830188610d4b565b6115a06020830187610d3c565b81810360408301526115b3818587611554565b90506115c26060830184610dca565b9695505050505050565b7f4e6f74206f776e657200000000000000000000000000000000000000000000005f82015250565b5f611600600983610d64565b915061160b826115cc565b602082019050919050565b5f6020820190508181035f83015261162d816115f4565b9050919050565b7f5369676e616c20646f6573206e6f7420657869737400000000000000000000005f82015250565b5f611668601583610d64565b915061167382611634565b602082019050919050565b5f6020820190508181035f8301526116958161165c565b9050919050565b7f4e487b71000000000000000000000000000000000000000000000000000000005f52603260045260245ffd5b5f6116d382610cde565b91506116de83610cde565b92508282019050808211156116f6576116f56114e6565b5b9291505056fea26469706673582212207b98ebbd27919cb9e2954a105737f023431c359d385592fc7f5d3ba9c836d2c864736f6c634300081e0033",
					"opcodes": "PUSH1 0x80 PUSH1 0x40 MSTORE CALLVALUE DUP1 ISZERO PUSH1 0xE JUMPI PUSH0 PUSH0 REVERT JUMPDEST POP CALLER PUSH0 PUSH0 PUSH2 0x100 EXP DUP2 SLOAD DUP2 PUSH20 0xFFFFFFFFFFFFFFFFFFFFFFFFFFFFFFFFFFFFFFFF MUL NOT AND SWAP1 DUP4 PUSH20 0xFFFFFFFFFFFFFFFFFFFFFFFFFFFFFFFFFFFFFFFF AND MUL OR SWAP1 SSTORE POP PUSH1 0x1 DUP1 PUSH0 CALLER PUSH20 0xFFFFFFFFFFFFFFFFFFFFFFFFFFFFFFFFFFFFFFFF AND PUSH20 0xFFFFFFFFFFFFFFFFFFFFFFFFFFFFFFFFFFFFFFFF AND DUP2 MSTORE PUSH1 0x20 ADD SWAP1 DUP2 MSTORE PUSH1 0x20 ADD PUSH0 KECCAK256 PUSH0 PUSH2 0x100 EXP DUP2 SLOAD DUP2 PUSH1 0xFF MUL NOT AND SWAP1 DUP4 ISZERO ISZERO MUL OR SWAP1 SSTORE POP PUSH2 0x1732 DUP1 PUSH2 0xAF PUSH0 CODECOPY PUSH0 RETURN INVALID PUSH1 0x80 PUSH1 0x40 MSTORE CALLVALUE DUP1 ISZERO PUSH2 0xF JUMPI PUSH0 PUSH0 REVERT JUMPDEST POP PUSH1 0x4 CALLDATASIZE LT PUSH2 0x91 JUMPI PUSH0 CALLDATALOAD PUSH1 0xE0 SHR DUP1 PUSH4 0x7DA6AC0D GT PUSH2 0x64 JUMPI DUP1 PUSH4 0x7DA6AC0D EQ PUSH2 0x120 JUMPI DUP1 PUSH4 0x828E58E2 EQ PUSH2 0x13C JUMPI DUP1 PUSH4 0x8DA5CB5B EQ PUSH2 0x171 JUMPI DUP1 PUSH4 0xEFD76065 EQ PUSH2 0x18F JUMPI DUP1 PUSH4 0xFA51D729 EQ PUSH2 0x1BF JUMPI PUSH2 0x91 JUMP JUMPDEST DUP1 PUSH4 0x2BB0AAA5 EQ PUSH2 0x95 JUMPI DUP1 PUSH4 0x47C740CD EQ PUSH2 0xB1 JUMPI DUP1 PUSH4 0x592EE87A EQ PUSH2 0xE6 JUMPI DUP1 PUSH4 0x6D88B24D EQ PUSH2 0x104 JUMPI JUMPDEST PUSH0 PUSH0 REVERT JUMPDEST PUSH2 0xAF PUSH1 0x4 DUP1 CALLDATASIZE SUB DUP2 ADD SWAP1 PUSH2 0xAA SWAP2 SWAP1 PUSH2 0xC5A JUMP JUMPDEST PUSH2 0x1EF JUMP JUMPDEST STOP JUMPDEST PUSH2 0xCB PUSH1 0x4 DUP1 CALLDATASIZE SUB DUP2 ADD SWAP1 PUSH2 0xC6 SWAP2 SWAP1 PUSH2 0xD11 JUMP JUMPDEST PUSH2 0x480 JUMP JUMPDEST PUSH1 0x40 MLOAD PUSH2 0xDD SWAP7 SWAP6 SWAP5 SWAP4 SWAP3 SWAP2 SWAP1 PUSH2 0xE18 JUMP JUMPDEST PUSH1 0x40 MLOAD DUP1 SWAP2 SUB SWAP1 RETURN JUMPDEST PUSH2 0xEE PUSH2 0x585 JUMP JUMPDEST PUSH1 0x40 MLOAD PUSH2 0xFB SWAP2 SWAP1 PUSH2 0xE7E JUMP JUMPDEST PUSH1 0x40 MLOAD DUP1 SWAP2 SUB SWAP1 RETURN JUMPDEST PUSH2 0x11E PUSH1 0x4 DUP1 CALLDATASIZE SUB DUP2 ADD SWAP1 PUSH2 0x119 SWAP2 SWAP1 PUSH2 0xEC1 JUMP JUMPDEST PUSH2 0x591 JUMP JUMPDEST STOP JUMPDEST PUSH2 0x13A PUSH1 0x4 DUP1 CALLDATASIZE SUB DUP2 ADD SWAP1 PUSH2 0x135 SWAP2 SWAP1 PUSH2 0xEC1 JUMP JUMPDEST PUSH2 0x676 JUMP JUMPDEST STOP JUMPDEST PUSH2 0x156 PUSH1 0x4 DUP1 CALLDATASIZE SUB DUP2 ADD SWAP1 PUSH2 0x151 SWAP2 SWAP1 PUSH2 0xD11 JUMP JUMPDEST PUSH2 0x75B JUMP JUMPDEST PUSH1 0x40 MLOAD PUSH2 0x168 SWAP7 SWAP6 SWAP5 SWAP4 SWAP3 SWAP2 SWAP1 PUSH2 0xE18 JUMP JUMPDEST PUSH1 0x40 MLOAD DUP1 SWAP2 SUB SWAP1 RETURN JUMPDEST PUSH2 0x179 PUSH2 0x8C0 JUMP JUMPDEST PUSH1 0x40 MLOAD PUSH2 0x186 SWAP2 SWAP1 PUSH2 0xEEC JUMP JUMPDEST PUSH1 0x40 MLOAD DUP1 SWAP2 SUB SWAP1 RETURN JUMPDEST PUSH2 0x1A9 PUSH1 0x4 DUP1 CALLDATASIZE SUB DUP2 ADD SWAP1 PUSH2 0x1A4 SWAP2 SWAP1 PUSH2 0xEC1 JUMP JUMPDEST PUSH2 0x8E4 JUMP JUMPDEST PUSH1 0x40 MLOAD PUSH2 0x1B6 SWAP2 SWAP1 PUSH2 0xF1F JUMP JUMPDEST PUSH1 0x40 MLOAD DUP1 SWAP2 SUB SWAP1 RETURN JUMPDEST PUSH2 0x1D9 PUSH1 0x4 DUP1 CALLDATASIZE SUB DUP2 ADD SWAP1 PUSH2 0x1D4 SWAP2 SWAP1 PUSH2 0xD11 JUMP JUMPDEST PUSH2 0x901 JUMP JUMPDEST PUSH1 0x40 MLOAD PUSH2 0x1E6 SWAP2 SWAP1 PUSH2 0x10FD JUMP JUMPDEST PUSH1 0x40 MLOAD DUP1 SWAP2 SUB SWAP1 RETURN JUMPDEST PUSH1 0x1 PUSH0 CALLER PUSH20 0xFFFFFFFFFFFFFFFFFFFFFFFFFFFFFFFFFFFFFFFF AND PUSH20 0xFFFFFFFFFFFFFFFFFFFFFFFFFFFFFFFFFFFFFFFF AND DUP2 MSTORE PUSH1 0x20 ADD SWAP1 DUP2 MSTORE PUSH1 0x20 ADD PUSH0 KECCAK256 PUSH0 SWAP1 SLOAD SWAP1 PUSH2 0x100 EXP SWAP1 DIV PUSH1 0xFF AND PUSH2 0x278 JUMPI PUSH1 0x40 MLOAD PUSH32 0x8C379A000000000000000000000000000000000000000000000000000000000 DUP2 MSTORE PUSH1 0x4 ADD PUSH2 0x26F SWAP1 PUSH2 0x1167 JUMP JUMPDEST PUSH1 0x40 MLOAD DUP1 SWAP2 SUB SWAP1 REVERT JUMPDEST PUSH1 0x64 DUP4 PUSH1 0xFF AND GT ISZERO PUSH2 0x2BF JUMPI PUSH1 0x40 MLOAD PUSH32 0x8C379A000000000000000000000000000000000000000000000000000000000 DUP2 MSTORE PUSH1 0x4 ADD PUSH2 0x2B6 SWAP1 PUSH2 0x11CF JUMP JUMPDEST PUSH1 0x40 MLOAD DUP1 SWAP2 SUB SWAP1 REVERT JUMPDEST PUSH1 0x2 PUSH1 0x40 MLOAD DUP1 PUSH1 0xC0 ADD PUSH1 0x40 MSTORE DUP1 DUP8 DUP2 MSTORE PUSH1 0x20 ADD DUP7 PUSH1 0xFF AND DUP2 MSTORE PUSH1 0x20 ADD DUP6 PUSH1 0xFF AND DUP2 MSTORE PUSH1 0x20 ADD DUP5 DUP5 DUP1 DUP1 PUSH1 0x1F ADD PUSH1 0x20 DUP1 SWAP2 DIV MUL PUSH1 0x20 ADD PUSH1 0x40 MLOAD SWAP1 DUP2 ADD PUSH1 0x40 MSTORE DUP1 SWAP4 SWAP3 SWAP2 SWAP1 DUP2 DUP2 MSTORE PUSH1 0x20 ADD DUP4 DUP4 DUP1 DUP3 DUP5 CALLDATACOPY PUSH0 DUP2 DUP5 ADD MSTORE PUSH1 0x1F NOT PUSH1 0x1F DUP3 ADD AND SWAP1 POP DUP1 DUP4 ADD SWAP3 POP POP POP POP POP POP POP DUP2 MSTORE PUSH1 0x20 ADD TIMESTAMP DUP2 MSTORE PUSH1 0x20 ADD CALLER PUSH20 0xFFFFFFFFFFFFFFFFFFFFFFFFFFFFFFFFFFFFFFFF AND DUP2 MSTORE POP SWAP1 DUP1 PUSH1 0x1 DUP2 SLOAD ADD DUP1 DUP3 SSTORE DUP1 SWAP2 POP POP PUSH1 0x1 SWAP1 SUB SWAP1 PUSH0 MSTORE PUSH1 0x20 PUSH0 KECCAK256 SWAP1 PUSH1 0x5 MUL ADD PUSH0 SWAP1 SWAP2 SWAP1 SWAP2 SWAP1 SWAP2 POP PUSH0 DUP3 ADD MLOAD DUP2 PUSH0 ADD SSTORE PUSH1 0x20 DUP3 ADD MLOAD DUP2 PUSH1 0x1 ADD PUSH0 PUSH2 0x100 EXP DUP2 SLOAD DUP2 PUSH1 0xFF MUL NOT AND SWAP1 DUP4 PUSH1 0xFF AND MUL OR SWAP1 SSTORE POP PUSH1 0x40 DUP3 ADD MLOAD DUP2 PUSH1 0x1 ADD PUSH1 0x1 PUSH2 0x100 EXP DUP2 SLOAD DUP2 PUSH1 0xFF MUL NOT AND SWAP1 DUP4 PUSH1 0xFF AND MUL OR SWAP1 SSTORE POP PUSH1 0x60 DUP3 ADD MLOAD DUP2 PUSH1 0x2 ADD SWAP1 DUP2 PUSH2 0x3D1 SWAP2 SWAP1 PUSH2 0x1417 JUMP JUMPDEST POP PUSH1 0x80 DUP3 ADD MLOAD DUP2 PUSH1 0x3 ADD SSTORE PUSH1 0xA0 DUP3 ADD MLOAD DUP2 PUSH1 0x4 ADD PUSH0 PUSH2 0x100 EXP DUP2 SLOAD DUP2 PUSH20 0xFFFFFFFFFFFFFFFFFFFFFFFFFFFFFFFFFFFFFFFF MUL NOT AND SWAP1 DUP4 PUSH20 0xFFFFFFFFFFFFFFFFFFFFFFFFFFFFFFFFFFFFFFFF AND MUL OR SWAP1 SSTORE POP POP POP DUP4 PUSH1 0xFF AND PUSH1 0x1 PUSH1 0x2 DUP1 SLOAD SWAP1 POP PUSH2 0x43A SWAP2 SWAP1 PUSH2 0x1513 JUMP JUMPDEST PUSH32 0x6B75FE5FA2A41AB0872779D102926CC96769AF60976E520E0800F27D5D570767 DUP6 DUP9 DUP7 DUP7 TIMESTAMP PUSH1 0x40 MLOAD PUSH2 0x471 SWAP6 SWAP5 SWAP4 SWAP3 SWAP2 SWAP1 PUSH2 0x1580 JUMP JUMPDEST PUSH1 0x40 MLOAD DUP1 SWAP2 SUB SWAP1 LOG3 POP POP POP POP POP JUMP JUMPDEST PUSH1 0x2 DUP2 DUP2 SLOAD DUP2 LT PUSH2 0x48F JUMPI PUSH0 DUP1 REVERT JUMPDEST SWAP1 PUSH0 MSTORE PUSH1 0x20 PUSH0 KECCAK256 SWAP1 PUSH1 0x5 MUL ADD PUSH0 SWAP2 POP SWAP1 POP DUP1 PUSH0 ADD SLOAD SWAP1 DUP1 PUSH1 0x1 ADD PUSH0 SWAP1 SLOAD SWAP1 PUSH2 0x100 EXP SWAP1 DIV PUSH1 0xFF AND SWAP1 DUP1 PUSH1 0x1 ADD PUSH1 0x1 SWAP1 SLOAD SWAP1 PUSH2 0x100 EXP SWAP1 DIV PUSH1 0xFF AND SWAP1 DUP1 PUSH1 0x2 ADD DUP1 SLOAD PUSH2 0x4D9 SWAP1 PUSH2 0x1247 JUMP JUMPDEST DUP1 PUSH1 0x1F ADD PUSH1 0x20 DUP1 SWAP2 DIV MUL PUSH1 0x20 ADD PUSH1 0x40 MLOAD SWAP1 DUP2 ADD PUSH1 0x40 MSTORE DUP1 SWAP3 SWAP2 SWAP1 DUP2 DUP2 MSTORE PUSH1 0x20 ADD DUP3 DUP1 SLOAD PUSH2 0x505 SWAP1 PUSH2 0x1247 JUMP JUMPDEST DUP1 ISZERO PUSH2 0x550 JUMPI DUP1 PUSH1 0x1F LT PUSH2 0x527 JUMPI PUSH2 0x100 DUP1 DUP4 SLOAD DIV MUL DUP4 MSTORE SWAP2 PUSH1 0x20 ADD SWAP2 PUSH2 0x550 JUMP JUMPDEST DUP3 ADD SWAP2 SWAP1 PUSH0 MSTORE PUSH1 0x20 PUSH0 KECCAK256 SWAP1 JUMPDEST DUP2 SLOAD DUP2 MSTORE SWAP1 PUSH1 0x1 ADD SWAP1 PUSH1 0x20 ADD DUP1 DUP4 GT PUSH2 0x533 JUMPI DUP3 SWAP1 SUB PUSH1 0x1F AND DUP3 ADD SWAP2 JUMPDEST POP POP POP POP POP SWAP1 DUP1 PUSH1 0x3 ADD SLOAD SWAP1 DUP1 PUSH1 0x4 ADD PUSH0 SWAP1 SLOAD SWAP1 PUSH2 0x100 EXP SWAP1 DIV PUSH20 0xFFFFFFFFFFFFFFFFFFFFFFFFFFFFFFFFFFFFFFFF AND SWAP1 POP DUP7 JUMP JUMPDEST PUSH0 PUSH1 0x2 DUP1 SLOAD SWAP1 POP SWAP1 POP SWAP1 JUMP JUMPDEST PUSH0 PUSH0 SWAP1 SLOAD SWAP1 PUSH2 0x100 EXP SWAP1 DIV PUSH20 0xFFFFFFFFFFFFFFFFFFFFFFFFFFFFFFFFFFFFFFFF AND PUSH20 0xFFFFFFFFFFFFFFFFFFFFFFFFFFFFFFFFFFFFFFFF AND CALLER PUSH20 0xFFFFFFFFFFFFFFFFFFFFFFFFFFFFFFFFFFFFFFFF AND EQ PUSH2 0x61F JUMPI PUSH1 0x40 MLOAD PUSH32 0x8C379A000000000000000000000000000000000000000000000000000000000 DUP2 MSTORE PUSH1 0x4 ADD PUSH2 0x616 SWAP1 PUSH2 0x1616 JUMP JUMPDEST PUSH1 0x40 MLOAD DUP1 SWAP2 SUB SWAP1 REVERT JUMPDEST PUSH1 0x1 DUP1 PUSH0 DUP4 PUSH20 0xFFFFFFFFFFFFFFFFFFFFFFFFFFFFFFFFFFFFFFFF AND PUSH20 0xFFFFFFFFFFFFFFFFFFFFFFFFFFFFFFFFFFFFFFFF AND DUP2 MSTORE PUSH1 0x20 ADD SWAP1 DUP2 MSTORE PUSH1 0x20 ADD PUSH0 KECCAK256 PUSH0 PUSH2 0x100 EXP DUP2 SLOAD DUP2 PUSH1 0xFF MUL NOT AND SWAP1 DUP4 ISZERO ISZERO MUL OR SWAP1 SSTORE POP POP JUMP JUMPDEST PUSH0 PUSH0 SWAP1 SLOAD SWAP1 PUSH2 0x100 EXP SWAP1 DIV PUSH20 0xFFFFFFFFFFFFFFFFFFFFFFFFFFFFFFFFFFFFFFFF AND PUSH20 0xFFFFFFFFFFFFFFFFFFFFFFFFFFFFFFFFFFFFFFFF AND CALLER PUSH20 0xFFFFFFFFFFFFFFFFFFFFFFFFFFFFFFFFFFFFFFFF AND EQ PUSH2 0x704 JUMPI PUSH1 0x40 MLOAD PUSH32 0x8C379A000000000000000000000000000000000000000000000000000000000 DUP2 MSTORE PUSH1 0x4 ADD PUSH2 0x6FB SWAP1 PUSH2 0x1616 JUMP JUMPDEST PUSH1 0x40 MLOAD DUP1 SWAP2 SUB SWAP1 REVERT JUMPDEST PUSH0 PUSH1 0x1 PUSH0 DUP4 PUSH20 0xFFFFFFFFFFFFFFFFFFFFFFFFFFFFFFFFFFFFFFFF AND PUSH20 0xFFFFFFFFFFFFFFFFFFFFFFFFFFFFFFFFFFFFFFFF AND DUP2 MSTORE PUSH1 0x20 ADD SWAP1 DUP2 MSTORE PUSH1 0x20 ADD PUSH0 KECCAK256 PUSH0 PUSH2 0x100 EXP DUP2 SLOAD DUP2 PUSH1 0xFF MUL NOT AND SWAP1 DUP4 ISZERO ISZERO MUL OR SWAP1 SSTORE POP POP JUMP JUMPDEST PUSH0 PUSH0 PUSH0 PUSH1 0x60 PUSH0 PUSH0 PUSH1 0x2 DUP1 SLOAD SWAP1 POP DUP8 LT PUSH2 0x7A9 JUMPI PUSH1 0x40 MLOAD PUSH32 0x8C379A000000000000000000000000000000000000000000000000000000000 DUP2 MSTORE PUSH1 0x4 ADD PUSH2 0x7A0 SWAP1 PUSH2 0x167E JUMP JUMPDEST PUSH1 0x40 MLOAD DUP1 SWAP2 SUB SWAP1 REVERT JUMPDEST PUSH0 PUSH1 0x2 DUP9 DUP2 SLOAD DUP2 LT PUSH2 0x7BE JUMPI PUSH2 0x7BD PUSH2 0x169C JUMP JUMPDEST JUMPDEST SWAP1 PUSH0 MSTORE PUSH1 0x20 PUSH0 KECCAK256 SWAP1 PUSH1 0x5 MUL ADD SWAP1 POP DUP1 PUSH0 ADD SLOAD DUP2 PUSH1 0x1 ADD PUSH0 SWAP1 SLOAD SWAP1 PUSH2 0x100 EXP SWAP1 DIV PUSH1 0xFF AND DUP3 PUSH1 0x1 ADD PUSH1 0x1 SWAP1 SLOAD SWAP1 PUSH2 0x100 EXP SWAP1 DIV PUSH1 0xFF AND DUP4 PUSH1 0x2 ADD DUP5 PUSH1 0x3 ADD SLOAD DUP6 PUSH1 0x4 ADD PUSH0 SWAP1 SLOAD SWAP1 PUSH2 0x100 EXP SWAP1 DIV PUSH20 0xFFFFFFFFFFFFFFFFFFFFFFFFFFFFFFFFFFFFFFFF AND DUP3 DUP1 SLOAD PUSH2 0x82C SWAP1 PUSH2 0x1247 JUMP JUMPDEST DUP1 PUSH1 0x1F ADD PUSH1 0x20 DUP1 SWAP2 DIV MUL PUSH1 0x20 ADD PUSH1 0x40 MLOAD SWAP1 DUP2 ADD PUSH1 0x40 MSTORE DUP1 SWAP3 SWAP2 SWAP1 DUP2 DUP2 MSTORE PUSH1 0x20 ADD DUP3 DUP1 SLOAD PUSH2 0x858 SWAP1 PUSH2 0x1247 JUMP JUMPDEST DUP1 ISZERO PUSH2 0x8A3 JUMPI DUP1 PUSH1 0x1F LT PUSH2 0x87A JUMPI PUSH2 0x100 DUP1 DUP4 SLOAD DIV MUL DUP4 MSTORE SWAP2 PUSH1 0x20 ADD SWAP2 PUSH2 0x8A3 JUMP JUMPDEST DUP3 ADD SWAP2 SWAP1 PUSH0 MSTORE PUSH1 0x20 PUSH0 KECCAK256 SWAP1 JUMPDEST DUP2 SLOAD DUP2 MSTORE SWAP1 PUSH1 0x1 ADD SWAP1 PUSH1 0x20 ADD DUP1 DUP4 GT PUSH2 0x886 JUMPI DUP3 SWAP1 SUB PUSH1 0x1F AND DUP3 ADD SWAP2 JUMPDEST POP POP POP POP POP SWAP3 POP SWAP7 POP SWAP7 POP SWAP7 POP SWAP7 POP SWAP7 POP SWAP7 POP POP SWAP2 SWAP4 SWAP6 POP SWAP2 SWAP4 SWAP6 JUMP JUMPDEST PUSH0 PUSH0 SWAP1 SLOAD SWAP1 PUSH2 0x100 EXP SWAP1 DIV PUSH20 0xFFFFFFFFFFFFFFFFFFFFFFFFFFFFFFFFFFFFFFFF AND DUP2 JUMP JUMPDEST PUSH1 0x1 PUSH1 0x20 MSTORE DUP1 PUSH0 MSTORE PUSH1 0x40 PUSH0 KECCAK256 PUSH0 SWAP2 POP SLOAD SWAP1 PUSH2 0x100 EXP SWAP1 DIV PUSH1 0xFF AND DUP2 JUMP JUMPDEST PUSH1 0x60 PUSH0 PUSH1 0x2 DUP1 SLOAD SWAP1 POP SWAP1 POP PUSH0 DUP4 DUP3 GT PUSH2 0x91A JUMPI PUSH0 PUSH2 0x927 JUMP JUMPDEST DUP4 DUP3 PUSH2 0x926 SWAP2 SWAP1 PUSH2 0x1513 JUMP JUMPDEST JUMPDEST SWAP1 POP PUSH0 DUP2 DUP4 PUSH2 0x936 SWAP2 SWAP1 PUSH2 0x1513 JUMP JUMPDEST SWAP1 POP PUSH0 DUP2 PUSH8 0xFFFFFFFFFFFFFFFF DUP2 GT ISZERO PUSH2 0x953 JUMPI PUSH2 0x952 PUSH2 0x11ED JUMP JUMPDEST JUMPDEST PUSH1 0x40 MLOAD SWAP1 DUP1 DUP3 MSTORE DUP1 PUSH1 0x20 MUL PUSH1 0x20 ADD DUP3 ADD PUSH1 0x40 MSTORE DUP1 ISZERO PUSH2 0x98C JUMPI DUP2 PUSH1 0x20 ADD JUMPDEST PUSH2 0x979 PUSH2 0xB3B JUMP JUMPDEST DUP2 MSTORE PUSH1 0x20 ADD SWAP1 PUSH1 0x1 SWAP1 SUB SWAP1 DUP2 PUSH2 0x971 JUMPI SWAP1 POP JUMPDEST POP SWAP1 POP PUSH0 PUSH0 SWAP1 POP JUMPDEST DUP3 DUP2 LT ISZERO PUSH2 0xB2E JUMPI PUSH1 0x2 DUP2 DUP6 PUSH2 0x9AA SWAP2 SWAP1 PUSH2 0x16C9 JUMP JUMPDEST DUP2 SLOAD DUP2 LT PUSH2 0x9BB JUMPI PUSH2 0x9BA PUSH2 0x169C JUMP JUMPDEST JUMPDEST SWAP1 PUSH0 MSTORE PUSH1 0x20 PUSH0 KECCAK256 SWAP1 PUSH1 0x5 MUL ADD PUSH1 0x40 MLOAD DUP1 PUSH1 0xC0 ADD PUSH1 0x40 MSTORE SWAP1 DUP2 PUSH0 DUP3 ADD SLOAD DUP2 MSTORE PUSH1 0x20 ADD PUSH1 0x1 DUP3 ADD PUSH0 SWAP1 SLOAD SWAP1 PUSH2 0x100 EXP SWAP1 DIV PUSH1 0xFF AND PUSH1 0xFF AND PUSH1 0xFF AND DUP2 MSTORE PUSH1 0x20 ADD PUSH1 0x1 DUP3 ADD PUSH1 0x1 SWAP1 SLOAD SWAP1 PUSH2 0x100 EXP SWAP1 DIV PUSH1 0xFF AND PUSH1 0xFF AND PUSH1 0xFF AND DUP2 MSTORE PUSH1 0x20 ADD PUSH1 0x2 DUP3 ADD DUP1 SLOAD PUSH2 0xA24 SWAP1 PUSH2 0x1247 JUMP JUMPDEST DUP1 PUSH1 0x1F ADD PUSH1 0x20 DUP1 SWAP2 DIV MUL PUSH1 0x20 ADD PUSH1 0x40 MLOAD SWAP1 DUP2 ADD PUSH1 0x40 MSTORE DUP1 SWAP3 SWAP2 SWAP1 DUP2 DUP2 MSTORE PUSH1 0x20 ADD DUP3 DUP1 SLOAD PUSH2 0xA50 SWAP1 PUSH2 0x1247 JUMP JUMPDEST DUP1 ISZERO PUSH2 0xA9B JUMPI DUP1 PUSH1 0x1F LT PUSH2 0xA72 JUMPI PUSH2 0x100 DUP1 DUP4 SLOAD DIV MUL DUP4 MSTORE SWAP2 PUSH1 0x20 ADD SWAP2 PUSH2 0xA9B JUMP JUMPDEST DUP3 ADD SWAP2 SWAP1 PUSH0 MSTORE PUSH1 0x20 PUSH0 KECCAK256 SWAP1 JUMPDEST DUP2 SLOAD DUP2 MSTORE SWAP1 PUSH1 0x1 ADD SWAP1 PUSH1 0x20 ADD DUP1 DUP4 GT PUSH2 0xA7E JUMPI DUP3 SWAP1 SUB PUSH1 0x1F AND DUP3 ADD SWAP2 JUMPDEST POP POP POP POP POP DUP2 MSTORE PUSH1 0x20 ADD PUSH1 0x3 DUP3 ADD SLOAD DUP2 MSTORE PUSH1 0x20 ADD PUSH1 0x4 DUP3 ADD PUSH0 SWAP1 SLOAD SWAP1 PUSH2 0x100 EXP SWAP1 DIV PUSH20 0xFFFFFFFFFFFFFFFFFFFFFFFFFFFFFFFFFFFFFFFF AND PUSH20 0xFFFFFFFFFFFFFFFFFFFFFFFFFFFFFFFFFFFFFFFF AND PUSH20 0xFFFFFFFFFFFFFFFFFFFFFFFFFFFFFFFFFFFFFFFF AND DUP2 MSTORE POP POP DUP3 DUP3 DUP2 MLOAD DUP2 LT PUSH2 0xB16 JUMPI PUSH2 0xB15 PUSH2 0x169C JUMP JUMPDEST JUMPDEST PUSH1 0x20 MUL PUSH1 0x20 ADD ADD DUP2 SWAP1 MSTORE POP DUP1 DUP1 PUSH1 0x1 ADD SWAP2 POP POP PUSH2 0x994 JUMP JUMPDEST POP DUP1 SWAP5 POP POP POP POP POP SWAP2 SWAP1 POP JUMP JUMPDEST PUSH1 0x40 MLOAD DUP1 PUSH1 0xC0 ADD PUSH1 0x40 MSTORE DUP1 PUSH0 DUP2 MSTORE PUSH1 0x20 ADD PUSH0 PUSH1 0xFF AND DUP2 MSTORE PUSH1 0x20 ADD PUSH0 PUSH1 0xFF AND DUP2 MSTORE PUSH1 0x20 ADD PUSH1 0x60 DUP2 MSTORE PUSH1 0x20 ADD PUSH0 DUP2 MSTORE PUSH1 0x20 ADD PUSH0 PUSH20 0xFFFFFFFFFFFFFFFFFFFFFFFFFFFFFFFFFFFFFFFF AND DUP2 MSTORE POP SWAP1 JUMP JUMPDEST PUSH0 PUSH0 REVERT JUMPDEST PUSH0 PUSH0 REVERT JUMPDEST PUSH0 DUP2 SWAP1 POP SWAP2 SWAP1 POP JUMP JUMPDEST PUSH2 0xBA2 DUP2 PUSH2 0xB90 JUMP JUMPDEST DUP2 EQ PUSH2 0xBAC JUMPI PUSH0 PUSH0 REVERT JUMPDEST POP JUMP JUMPDEST PUSH0 DUP2 CALLDATALOAD SWAP1 POP PUSH2 0xBBD DUP2 PUSH2 0xB99 JUMP JUMPDEST SWAP3 SWAP2 POP POP JUMP JUMPDEST PUSH0 PUSH1 0xFF DUP3 AND SWAP1 POP SWAP2 SWAP1 POP JUMP JUMPDEST PUSH2 0xBD8 DUP2 PUSH2 0xBC3 JUMP JUMPDEST DUP2 EQ PUSH2 0xBE2 JUMPI PUSH0 PUSH0 REVERT JUMPDEST POP JUMP JUMPDEST PUSH0 DUP2 CALLDATALOAD SWAP1 POP PUSH2 0xBF3 DUP2 PUSH2 0xBCF JUMP JUMPDEST SWAP3 SWAP2 POP POP JUMP JUMPDEST PUSH0 PUSH0 REVERT JUMPDEST PUSH0 PUSH0 REVERT JUMPDEST PUSH0 PUSH0 REVERT JUMPDEST PUSH0 PUSH0 DUP4 PUSH1 0x1F DUP5 ADD SLT PUSH2 0xC1A JUMPI PUSH2 0xC19 PUSH2 0xBF9 JUMP JUMPDEST JUMPDEST DUP3 CALLDATALOAD SWAP1 POP PUSH8 0xFFFFFFFFFFFFFFFF DUP2 GT ISZERO PUSH2 0xC37 JUMPI PUSH2 0xC36 PUSH2 0xBFD JUMP JUMPDEST JUMPDEST PUSH1 0x20 DUP4 ADD SWAP2 POP DUP4 PUSH1 0x1 DUP3 MUL DUP4 ADD GT ISZERO PUSH2 0xC53 JUMPI PUSH2 0xC52 PUSH2 0xC01 JUMP JUMPDEST JUMPDEST SWAP3 POP SWAP3 SWAP1 POP JUMP JUMPDEST PUSH0 PUSH0 PUSH0 PUSH0 PUSH0 PUSH1 0x80 DUP7 DUP9 SUB SLT ISZERO PUSH2 0xC73 JUMPI PUSH2 0xC72 PUSH2 0xB88 JUMP JUMPDEST JUMPDEST PUSH0 PUSH2 0xC80 DUP9 DUP3 DUP10 ADD PUSH2 0xBAF JUMP JUMPDEST SWAP6 POP POP PUSH1 0x20 PUSH2 0xC91 DUP9 DUP3 DUP10 ADD PUSH2 0xBE5 JUMP JUMPDEST SWAP5 POP POP PUSH1 0x40 PUSH2 0xCA2 DUP9 DUP3 DUP10 ADD PUSH2 0xBE5 JUMP JUMPDEST SWAP4 POP POP PUSH1 0x60 DUP7 ADD CALLDATALOAD PUSH8 0xFFFFFFFFFFFFFFFF DUP2 GT ISZERO PUSH2 0xCC3 JUMPI PUSH2 0xCC2 PUSH2 0xB8C JUMP JUMPDEST JUMPDEST PUSH2 0xCCF DUP9 DUP3 DUP10 ADD PUSH2 0xC05 JUMP JUMPDEST SWAP3 POP SWAP3 POP POP SWAP3 SWAP6 POP SWAP3 SWAP6 SWAP1 SWAP4 POP JUMP JUMPDEST PUSH0 DUP2 SWAP1 POP SWAP2 SWAP1 POP JUMP JUMPDEST PUSH2 0xCF0 DUP2 PUSH2 0xCDE JUMP JUMPDEST DUP2 EQ PUSH2 0xCFA JUMPI PUSH0 PUSH0 REVERT JUMPDEST POP JUMP JUMPDEST PUSH0 DUP2 CALLDATALOAD SWAP1 POP PUSH2 0xD0B DUP2 PUSH2 0xCE7 JUMP JUMPDEST SWAP3 SWAP2 POP POP JUMP JUMPDEST PUSH0 PUSH1 0x20 DUP3 DUP5 SUB SLT ISZERO PUSH2 0xD26 JUMPI PUSH2 0xD25 PUSH2 0xB88 JUMP JUMPDEST JUMPDEST PUSH0 PUSH2 0xD33 DUP5 DUP3 DUP6 ADD PUSH2 0xCFD JUMP JUMPDEST SWAP2 POP POP SWAP3 SWAP2 POP POP JUMP JUMPDEST PUSH2 0xD45 DUP2 PUSH2 0xB90 JUMP JUMPDEST DUP3 MSTORE POP POP JUMP JUMPDEST PUSH2 0xD54 DUP2 PUSH2 0xBC3 JUMP JUMPDEST DUP3 MSTORE POP POP JUMP JUMPDEST PUSH0 DUP2 MLOAD SWAP1 POP SWAP2 SWAP1 POP JUMP JUMPDEST PUSH0 DUP3 DUP3 MSTORE PUSH1 0x20 DUP3 ADD SWAP1 POP SWAP3 SWAP2 POP POP JUMP JUMPDEST DUP3 DUP2 DUP4 MCOPY PUSH0 DUP4 DUP4 ADD MSTORE POP POP POP JUMP JUMPDEST PUSH0 PUSH1 0x1F NOT PUSH1 0x1F DUP4 ADD AND SWAP1 POP SWAP2 SWAP1 POP JUMP JUMPDEST PUSH0 PUSH2 0xD9C DUP3 PUSH2 0xD5A JUMP JUMPDEST PUSH2 0xDA6 DUP2 DUP6 PUSH2 0xD64 JUMP JUMPDEST SWAP4 POP PUSH2 0xDB6 DUP2 DUP6 PUSH1 0x20 DUP7 ADD PUSH2 0xD74 JUMP JUMPDEST PUSH2 0xDBF DUP2 PUSH2 0xD82 JUMP JUMPDEST DUP5 ADD SWAP2 POP POP SWAP3 SWAP2 POP POP JUMP JUMPDEST PUSH2 0xDD3 DUP2 PUSH2 0xCDE JUMP JUMPDEST DUP3 MSTORE POP POP JUMP JUMPDEST PUSH0 PUSH20 0xFFFFFFFFFFFFFFFFFFFFFFFFFFFFFFFFFFFFFFFF DUP3 AND SWAP1 POP SWAP2 SWAP1 POP JUMP JUMPDEST PUSH0 PUSH2 0xE02 DUP3 PUSH2 0xDD9 JUMP JUMPDEST SWAP1 POP SWAP2 SWAP1 POP JUMP JUMPDEST PUSH2 0xE12 DUP2 PUSH2 0xDF8 JUMP JUMPDEST DUP3 MSTORE POP POP JUMP JUMPDEST PUSH0 PUSH1 0xC0 DUP3 ADD SWAP1 POP PUSH2 0xE2B PUSH0 DUP4 ADD DUP10 PUSH2 0xD3C JUMP JUMPDEST PUSH2 0xE38 PUSH1 0x20 DUP4 ADD DUP9 PUSH2 0xD4B JUMP JUMPDEST PUSH2 0xE45 PUSH1 0x40 DUP4 ADD DUP8 PUSH2 0xD4B JUMP JUMPDEST DUP2 DUP2 SUB PUSH1 0x60 DUP4 ADD MSTORE PUSH2 0xE57 DUP2 DUP7 PUSH2 0xD92 JUMP JUMPDEST SWAP1 POP PUSH2 0xE66 PUSH1 0x80 DUP4 ADD DUP6 PUSH2 0xDCA JUMP JUMPDEST PUSH2 0xE73 PUSH1 0xA0 DUP4 ADD DUP5 PUSH2 0xE09 JUMP JUMPDEST SWAP8 SWAP7 POP POP POP POP POP POP POP JUMP JUMPDEST PUSH0 PUSH1 0x20 DUP3 ADD SWAP1 POP PUSH2 0xE91 PUSH0 DUP4 ADD DUP5 PUSH2 0xDCA JUMP JUMPDEST SWAP3 SWAP2 POP POP JUMP JUMPDEST PUSH2 0xEA0 DUP2 PUSH2 0xDF8 JUMP JUMPDEST DUP2 EQ PUSH2 0xEAA JUMPI PUSH0 PUSH0 REVERT JUMPDEST POP JUMP JUMPDEST PUSH0 DUP2 CALLDATALOAD SWAP1 POP PUSH2 0xEBB DUP2 PUSH2 0xE97 JUMP JUMPDEST SWAP3 SWAP2 POP POP JUMP JUMPDEST PUSH0 PUSH1 0x20 DUP3 DUP5 SUB SLT ISZERO PUSH2 0xED6 JUMPI PUSH2 0xED5 PUSH2 0xB88 JUMP JUMPDEST JUMPDEST PUSH0 PUSH2 0xEE3 DUP5 DUP3 DUP6 ADD PUSH2 0xEAD JUMP JUMPDEST SWAP2 POP POP SWAP3 SWAP2 POP POP JUMP JUMPDEST PUSH0 PUSH1 0x20 DUP3 ADD SWAP1 POP PUSH2 0xEFF PUSH0 DUP4 ADD DUP5 PUSH2 0xE09 JUMP JUMPDEST SWAP3 SWAP2 POP POP JUMP JUMPDEST PUSH0 DUP2 ISZERO ISZERO SWAP1 POP SWAP2 SWAP1 POP JUMP JUMPDEST PUSH2 0xF19 DUP2 PUSH2 0xF05 JUMP JUMPDEST DUP3 MSTORE POP POP JUMP JUMPDEST PUSH0 PUSH1 0x20 DUP3 ADD SWAP1 POP PUSH2 0xF32 PUSH0 DUP4 ADD DUP5 PUSH2 0xF10 JUMP JUMPDEST SWAP3 SWAP2 POP POP JUMP JUMPDEST PUSH0 DUP2 MLOAD SWAP1 POP SWAP2 SWAP1 POP JUMP JUMPDEST PUSH0 DUP3 DUP3 MSTORE PUSH1 0x20 DUP3 ADD SWAP1 POP SWAP3 SWAP2 POP POP JUMP JUMPDEST PUSH0 DUP2 SWAP1 POP PUSH1 0x20 DUP3 ADD SWAP1 POP SWAP2 SWAP1 POP JUMP JUMPDEST PUSH2 0xF6A DUP2 PUSH2 0xB90 JUMP JUMPDEST DUP3 MSTORE POP POP JUMP JUMPDEST PUSH2 0xF79 DUP2 PUSH2 0xBC3 JUMP JUMPDEST DUP3 MSTORE POP POP JUMP JUMPDEST PUSH0 DUP3 DUP3 MSTORE PUSH1 0x20 DUP3 ADD SWAP1 POP SWAP3 SWAP2 POP POP JUMP JUMPDEST PUSH0 PUSH2 0xF99 DUP3 PUSH2 0xD5A JUMP JUMPDEST PUSH2 0xFA3 DUP2 DUP6 PUSH2 0xF7F JUMP JUMPDEST SWAP4 POP PUSH2 0xFB3 DUP2 DUP6 PUSH1 0x20 DUP7 ADD PUSH2 0xD74 JUMP JUMPDEST PUSH2 0xFBC DUP2 PUSH2 0xD82 JUMP JUMPDEST DUP5 ADD SWAP2 POP POP SWAP3 SWAP2 POP POP JUMP JUMPDEST PUSH2 0xFD0 DUP2 PUSH2 0xCDE JUMP JUMPDEST DUP3 MSTORE POP POP JUMP JUMPDEST PUSH2 0xFDF DUP2 PUSH2 0xDF8 JUMP JUMPDEST DUP3 MSTORE POP POP JUMP JUMPDEST PUSH0 PUSH1 0xC0 DUP4 ADD PUSH0 DUP4 ADD MLOAD PUSH2 0xFFA PUSH0 DUP7 ADD DUP3 PUSH2 0xF61 JUMP JUMPDEST POP PUSH1 0x20 DUP4 ADD MLOAD PUSH2 0x100D PUSH1 0x20 DUP7 ADD DUP3 PUSH2 0xF70 JUMP JUMPDEST POP PUSH1 0x40 DUP4 ADD MLOAD PUSH2 0x1020 PUSH1 0x40 DUP7 ADD DUP3 PUSH2 0xF70 JUMP JUMPDEST POP PUSH1 0x60 DUP4 ADD MLOAD DUP5 DUP3 SUB PUSH1 0x60 DUP7 ADD MSTORE PUSH2 0x1038 DUP3 DUP3 PUSH2 0xF8F JUMP JUMPDEST SWAP2 POP POP PUSH1 0x80 DUP4 ADD MLOAD PUSH2 0x104D PUSH1 0x80 DUP7 ADD DUP3 PUSH2 0xFC7 JUMP JUMPDEST POP PUSH1 0xA0 DUP4 ADD MLOAD PUSH2 0x1060 PUSH1 0xA0 DUP7 ADD DUP3 PUSH2 0xFD6 JUMP JUMPDEST POP DUP1 SWAP2 POP POP SWAP3 SWAP2 POP POP JUMP JUMPDEST PUSH0 PUSH2 0x1076 DUP4 DUP4 PUSH2 0xFE5 JUMP JUMPDEST SWAP1 POP SWAP3 SWAP2 POP POP JUMP JUMPDEST PUSH0 PUSH1 0x20 DUP3 ADD SWAP1 POP SWAP2 SWAP1 POP JUMP JUMPDEST PUSH0 PUSH2 0x1094 DUP3 PUSH2 0xF38 JUMP JUMPDEST PUSH2 0x109E DUP2 DUP6 PUSH2 0xF42 JUMP JUMPDEST SWAP4 POP DUP4 PUSH1 0x20 DUP3 MUL DUP6 ADD PUSH2 0x10B0 DUP6 PUSH2 0xF52 JUMP JUMPDEST DUP1 PUSH0 JUMPDEST DUP6 DUP2 LT ISZERO PUSH2 0x10EB JUMPI DUP5 DUP5 SUB DUP10 MSTORE DUP2 MLOAD PUSH2 0x10CC DUP6 DUP3 PUSH2 0x106B JUMP JUMPDEST SWAP5 POP PUSH2 0x10D7 DUP4 PUSH2 0x107E JUMP JUMPDEST SWAP3 POP PUSH1 0x20 DUP11 ADD SWAP10 POP POP PUSH1 0x1 DUP2 ADD SWAP1 POP PUSH2 0x10B3 JUMP JUMPDEST POP DUP3 SWAP8 POP DUP8 SWAP6 POP POP POP POP POP POP SWAP3 SWAP2 POP POP JUMP JUMPDEST PUSH0 PUSH1 0x20 DUP3 ADD SWAP1 POP DUP2 DUP2 SUB PUSH0 DUP4 ADD MSTORE PUSH2 0x1115 DUP2 DUP5 PUSH2 0x108A JUMP JUMPDEST SWAP1 POP SWAP3 SWAP2 POP POP JUMP JUMPDEST PUSH32 0x4E6F7420617574686F72697A6564206167656E74000000000000000000000000 PUSH0 DUP3 ADD MSTORE POP JUMP JUMPDEST PUSH0 PUSH2 0x1151 PUSH1 0x14 DUP4 PUSH2 0xD64 JUMP JUMPDEST SWAP2 POP PUSH2 0x115C DUP3 PUSH2 0x111D JUMP JUMPDEST PUSH1 0x20 DUP3 ADD SWAP1 POP SWAP2 SWAP1 POP JUMP JUMPDEST PUSH0 PUSH1 0x20 DUP3 ADD SWAP1 POP DUP2 DUP2 SUB PUSH0 DUP4 ADD MSTORE PUSH2 0x117E DUP2 PUSH2 0x1145 JUMP JUMPDEST SWAP1 POP SWAP2 SWAP1 POP JUMP JUMPDEST PUSH32 0x436F6E666964656E6365206D75737420626520302D3130300000000000000000 PUSH0 DUP3 ADD MSTORE POP JUMP JUMPDEST PUSH0 PUSH2 0x11B9 PUSH1 0x18 DUP4 PUSH2 0xD64 JUMP JUMPDEST SWAP2 POP PUSH2 0x11C4 DUP3 PUSH2 0x1185 JUMP JUMPDEST PUSH1 0x20 DUP3 ADD SWAP1 POP SWAP2 SWAP1 POP JUMP JUMPDEST PUSH0 PUSH1 0x20 DUP3 ADD SWAP1 POP DUP2 DUP2 SUB PUSH0 DUP4 ADD MSTORE PUSH2 0x11E6 DUP2 PUSH2 0x11AD JUMP JUMPDEST SWAP1 POP SWAP2 SWAP1 POP JUMP JUMPDEST PUSH32 0x4E487B7100000000000000000000000000000000000000000000000000000000 PUSH0 MSTORE PUSH1 0x41 PUSH1 0x4 MSTORE PUSH1 0x24 PUSH0 REVERT JUMPDEST PUSH32 0x4E487B7100000000000000000000000000000000000000000000000000000000 PUSH0 MSTORE PUSH1 0x22 PUSH1 0x4 MSTORE PUSH1 0x24 PUSH0 REVERT JUMPDEST PUSH0 PUSH1 0x2 DUP3 DIV SWAP1 POP PUSH1 0x1 DUP3 AND DUP1 PUSH2 0x125E JUMPI PUSH1 0x7F DUP3 AND SWAP2 POP JUMPDEST PUSH1 0x20 DUP3 LT DUP2 SUB PUSH2 0x1271 JUMPI PUSH2 0x1270 PUSH2 0x121A JUMP JUMPDEST JUMPDEST POP SWAP2 SWAP1 POP JUMP JUMPDEST PUSH0 DUP2 SWAP1 POP DUP2 PUSH0 MSTORE PUSH1 0x20 PUSH0 KECCAK256 SWAP1 POP SWAP2 SWAP1 POP JUMP JUMPDEST PUSH0 PUSH1 0x20 PUSH1 0x1F DUP4 ADD DIV SWAP1 POP SWAP2 SWAP1 POP JUMP JUMPDEST PUSH0 DUP3 DUP3 SHL SWAP1 POP SWAP3 SWAP2 POP POP JUMP JUMPDEST PUSH0 PUSH1 0x8 DUP4 MUL PUSH2 0x12D3 PUSH32 0xFFFFFFFFFFFFFFFFFFFFFFFFFFFFFFFFFFFFFFFFFFFFFFFFFFFFFFFFFFFFFFFF DUP3 PUSH2 0x1298 JUMP JUMPDEST PUSH2 0x12DD DUP7 DUP4 PUSH2 0x1298 JUMP JUMPDEST SWAP6 POP DUP1 NOT DUP5 AND SWAP4 POP DUP1 DUP7 AND DUP5 OR SWAP3 POP POP POP SWAP4 SWAP3 POP POP POP JUMP JUMPDEST PUSH0 DUP2 SWAP1 POP SWAP2 SWAP1 POP JUMP JUMPDEST PUSH0 PUSH2 0x1318 PUSH2 0x1313 PUSH2 0x130E DUP5 PUSH2 0xCDE JUMP JUMPDEST PUSH2 0x12F5 JUMP JUMPDEST PUSH2 0xCDE JUMP JUMPDEST SWAP1 POP SWAP2 SWAP1 POP JUMP JUMPDEST PUSH0 DUP2 SWAP1 POP SWAP2 SWAP1 POP JUMP JUMPDEST PUSH2 0x1331 DUP4 PUSH2 0x12FE JUMP JUMPDEST PUSH2 0x1345 PUSH2 0x133D DUP3 PUSH2 0x131F JUMP JUMPDEST DUP5 DUP5 SLOAD PUSH2 0x12A4 JUMP JUMPDEST DUP3 SSTORE POP POP POP POP JUMP JUMPDEST PUSH0 PUSH0 SWAP1 POP SWAP1 JUMP JUMPDEST PUSH2 0x135C PUSH2 0x134D JUMP JUMPDEST PUSH2 0x1367 DUP2 DUP5 DUP5 PUSH2 0x1328 JUMP JUMPDEST POP POP POP JUMP JUMPDEST JUMPDEST DUP2 DUP2 LT ISZERO PUSH2 0x138A JUMPI PUSH2 0x137F PUSH0 DUP3 PUSH2 0x1354 JUMP JUMPDEST PUSH1 0x1 DUP2 ADD SWAP1 POP PUSH2 0x136D JUMP JUMPDEST POP POP JUMP JUMPDEST PUSH1 0x1F DUP3 GT ISZERO PUSH2 0x13CF JUMPI PUSH2 0x13A0 DUP2 PUSH2 0x1277 JUMP JUMPDEST PUSH2 0x13A9 DUP5 PUSH2 0x1289 JUMP JUMPDEST DUP2 ADD PUSH1 0x20 DUP6 LT ISZERO PUSH2 0x13B8 JUMPI DUP2 SWAP1 POP JUMPDEST PUSH2 0x13CC PUSH2 0x13C4 DUP6 PUSH2 0x1289 JUMP JUMPDEST DUP4 ADD DUP3 PUSH2 0x136C JUMP JUMPDEST POP POP JUMPDEST POP POP POP JUMP JUMPDEST PUSH0 DUP3 DUP3 SHR SWAP1 POP SWAP3 SWAP2 POP POP JUMP JUMPDEST PUSH0 PUSH2 0x13EF PUSH0 NOT DUP5 PUSH1 0x8 MUL PUSH2 0x13D4 JUMP JUMPDEST NOT DUP1 DUP4 AND SWAP2 POP POP SWAP3 SWAP2 POP POP JUMP JUMPDEST PUSH0 PUSH2 0x1407 DUP4 DUP4 PUSH2 0x13E0 JUMP JUMPDEST SWAP2 POP DUP3 PUSH1 0x2 MUL DUP3 OR SWAP1 POP SWAP3 SWAP2 POP POP JUMP JUMPDEST PUSH2 0x1420 DUP3 PUSH2 0xD5A JUMP JUMPDEST PUSH8 0xFFFFFFFFFFFFFFFF DUP2 GT ISZERO PUSH2 0x1439 JUMPI PUSH2 0x1438 PUSH2 0x11ED JUMP JUMPDEST JUMPDEST PUSH2 0x1443 DUP3 SLOAD PUSH2 0x1247 JUMP JUMPDEST PUSH2 0x144E DUP3 DUP3 DUP6 PUSH2 0x138E JUMP JUMPDEST PUSH0 PUSH1 0x20 SWAP1 POP PUSH1 0x1F DUP4 GT PUSH1 0x1 DUP2 EQ PUSH2 0x147F JUMPI PUSH0 DUP5 ISZERO PUSH2 0x146D JUMPI DUP3 DUP8 ADD MLOAD SWAP1 POP JUMPDEST PUSH2 0x1477 DUP6 DUP3 PUSH2 0x13FC JUMP JUMPDEST DUP7 SSTORE POP PUSH2 0x14DE JUMP JUMPDEST PUSH1 0x1F NOT DUP5 AND PUSH2 0x148D DUP7 PUSH2 0x1277 JUMP JUMPDEST PUSH0 JUMPDEST DUP3 DUP2 LT ISZERO PUSH2 0x14B4 JUMPI DUP5 DUP10 ADD MLOAD DUP3 SSTORE PUSH1 0x1 DUP3 ADD SWAP2 POP PUSH1 0x20 DUP6 ADD SWAP5 POP PUSH1 0x20 DUP2 ADD SWAP1 POP PUSH2 0x148F JUMP JUMPDEST DUP7 DUP4 LT ISZERO PUSH2 0x14D1 JUMPI DUP5 DUP10 ADD MLOAD PUSH2 0x14CD PUSH1 0x1F DUP10 AND DUP3 PUSH2 0x13E0 JUMP JUMPDEST DUP4 SSTORE POP JUMPDEST PUSH1 0x1 PUSH1 0x2 DUP9 MUL ADD DUP9 SSTORE POP POP POP JUMPDEST POP POP POP POP POP POP JUMP JUMPDEST PUSH32 0x4E487B7100000000000000000000000000000000000000000000000000000000 PUSH0 MSTORE PUSH1 0x11 PUSH1 0x4 MSTORE PUSH1 0x24 PUSH0 REVERT JUMPDEST PUSH0 PUSH2 0x151D DUP3 PUSH2 0xCDE JUMP JUMPDEST SWAP2 POP PUSH2 0x1528 DUP4 PUSH2 0xCDE JUMP JUMPDEST SWAP3 POP DUP3 DUP3 SUB SWAP1 POP DUP2 DUP2 GT ISZERO PUSH2 0x1540 JUMPI PUSH2 0x153F PUSH2 0x14E6 JUMP JUMPDEST JUMPDEST SWAP3 SWAP2 POP POP JUMP JUMPDEST DUP3 DUP2 DUP4 CALLDATACOPY PUSH0 DUP4 DUP4 ADD MSTORE POP POP POP JUMP JUMPDEST PUSH0 PUSH2 0x155F DUP4 DUP6 PUSH2 0xD64 JUMP JUMPDEST SWAP4 POP PUSH2 0x156C DUP4 DUP6 DUP5 PUSH2 0x1546 JUMP JUMPDEST PUSH2 0x1575 DUP4 PUSH2 0xD82 JUMP JUMPDEST DUP5 ADD SWAP1 POP SWAP4 SWAP3 POP POP POP JUMP JUMPDEST PUSH0 PUSH1 0x80 DUP3 ADD SWAP1 POP PUSH2 0x1593 PUSH0 DUP4 ADD DUP9 PUSH2 0xD4B JUMP JUMPDEST PUSH2 0x15A0 PUSH1 0x20 DUP4 ADD DUP8 PUSH2 0xD3C JUMP JUMPDEST DUP2 DUP2 SUB PUSH1 0x40 DUP4 ADD MSTORE PUSH2 0x15B3 DUP2 DUP6 DUP8 PUSH2 0x1554 JUMP JUMPDEST SWAP1 POP PUSH2 0x15C2 PUSH1 0x60 DUP4 ADD DUP5 PUSH2 0xDCA JUMP JUMPDEST SWAP7 SWAP6 POP POP POP POP POP POP JUMP JUMPDEST PUSH32 0x4E6F74206F776E65720000000000000000000000000000000000000000000000 PUSH0 DUP3 ADD MSTORE POP JUMP JUMPDEST PUSH0 PUSH2 0x1600 PUSH1 0x9 DUP4 PUSH2 0xD64 JUMP JUMPDEST SWAP2 POP PUSH2 0x160B DUP3 PUSH2 0x15CC JUMP JUMPDEST PUSH1 0x20 DUP3 ADD SWAP1 POP SWAP2 SWAP1 POP JUMP JUMPDEST PUSH0 PUSH1 0x20 DUP3 ADD SWAP1 POP DUP2 DUP2 SUB PUSH0 DUP4 ADD MSTORE PUSH2 0x162D DUP2 PUSH2 0x15F4 JUMP JUMPDEST SWAP1 POP SWAP2 SWAP1 POP JUMP JUMPDEST PUSH32 0x5369676E616C20646F6573206E6F742065786973740000000000000000000000 PUSH0 DUP3 ADD MSTORE POP JUMP JUMPDEST PUSH0 PUSH2 0x1668 PUSH1 0x15 DUP4 PUSH2 0xD64 JUMP JUMPDEST SWAP2 POP PUSH2 0x1673 DUP3 PUSH2 0x1634 JUMP JUMPDEST PUSH1 0x20 DUP3 ADD SWAP1 POP SWAP2 SWAP1 POP JUMP JUMPDEST PUSH0 PUSH1 0x20 DUP3 ADD SWAP1 POP DUP2 DUP2 SUB PUSH0 DUP4 ADD MSTORE PUSH2 0x1695 DUP2 PUSH2 0x165C JUMP JUMPDEST SWAP1 POP SWAP2 SWAP1 POP JUMP JUMPDEST PUSH32 0x4E487B7100000000000000000000000000000000000000000000000000000000 PUSH0 MSTORE PUSH1 0x32 PUSH1 0x4 MSTORE PUSH1 0x24 PUSH0 REVERT JUMPDEST PUSH0 PUSH2 0x16D3 DUP3 PUSH2 0xCDE JUMP JUMPDEST SWAP2 POP PUSH2 0x16DE DUP4 PUSH2 0xCDE JUMP JUMPDEST SWAP3 POP DUP3 DUP3 ADD SWAP1 POP DUP1 DUP3 GT ISZERO PUSH2 0x16F6 JUMPI PUSH2 0x16F5 PUSH2 0x14E6 JUMP JUMPDEST JUMPDEST SWAP3 SWAP2 POP POP JUMP INVALID LOG2 PUSH5 0x6970667358 0x22 SLT KECCAK256 PUSH28 0x98EBBD27919CB9E2954A105737F023431C359D385592FC7F5D3BA9C8 CALLDATASIZE 0xD2 0xC8 PUSH5 0x736F6C6343 STOP ADDMOD 0x1E STOP CALLER "
				},
				"gasEstimates": {
					"creation": {
						"codeDepositCost": "1187600",
						"executionCost": "49849",
						"totalCost": "1237449"
					},
					"external": {
						"authorizeAgent(address)": "27038",
						"authorizedAgents(address)": "2899",
						"getLatestSignals(uint256)": "infinite",
						"getSignal(uint256)": "infinite",
						"getSignalCount()": "2485",
						"logSignal(bytes32,uint8,uint8,string)": "infinite",
						"owner()": "2551",
						"revokeAgent(address)": "26970",
						"signals(uint256)": "infinite"
					}
				},
				"methodIdentifiers": {
					"authorizeAgent(address)": "6d88b24d",
					"authorizedAgents(address)": "efd76065",
					"getLatestSignals(uint256)": "fa51d729",
					"getSignal(uint256)": "828e58e2",
					"getSignalCount()": "592ee87a",
					"logSignal(bytes32,uint8,uint8,string)": "2bb0aaa5",
					"owner()": "8da5cb5b",
					"revokeAgent(address)": "7da6ac0d",
					"signals(uint256)": "47c740cd"
				}
			},
			"storageLayout": {
				"storage": [
					{
						"astId": 16,
						"contract": "SignalLogger.sol:SignalLogger",
						"label": "owner",
						"offset": 0,
						"slot": "0",
						"type": "t_address"
					},
					{
						"astId": 20,
						"contract": "SignalLogger.sol:SignalLogger",
						"label": "authorizedAgents",
						"offset": 0,
						"slot": "1",
						"type": "t_mapping(t_address,t_bool)"
					},
					{
						"astId": 24,
						"contract": "SignalLogger.sol:SignalLogger",
						"label": "signals",
						"offset": 0,
						"slot": "2",
						"type": "t_array(t_struct(Signal)14_storage)dyn_storage"
					}
				],
				"types": {
					"t_address": {
						"encoding": "inplace",
						"label": "address",
						"numberOfBytes": "20"
					},
					"t_array(t_struct(Signal)14_storage)dyn_storage": {
						"base": "t_struct(Signal)14_storage",
						"encoding": "dynamic_array",
						"label": "struct SignalLogger.Signal[]",
						"numberOfBytes": "32"
					},
					"t_bool": {
						"encoding": "inplace",
						"label": "bool",
						"numberOfBytes": "1"
					},
					"t_bytes32": {
						"encoding": "inplace",
						"label": "bytes32",
						"numberOfBytes": "32"
					},
					"t_mapping(t_address,t_bool)": {
						"encoding": "mapping",
						"key": "t_address",
						"label": "mapping(address => bool)",
						"numberOfBytes": "32",
						"value": "t_bool"
					},
					"t_string_storage": {
						"encoding": "bytes",
						"label": "string",
						"numberOfBytes": "32"
					},
					"t_struct(Signal)14_storage": {
						"encoding": "inplace",
						"label": "struct SignalLogger.Signal",
						"members": [
							{
								"astId": 3,
								"contract": "SignalLogger.sol:SignalLogger",
								"label": "dataHash",
								"offset": 0,
								"slot": "0",
								"type": "t_bytes32"
							},
							{
								"astId": 5,
								"contract": "SignalLogger.sol:SignalLogger",
								"label": "signalType",
								"offset": 0,
								"slot": "1",
								"type": "t_uint8"
							},
							{
								"astId": 7,
								"contract": "SignalLogger.sol:SignalLogger",
								"label": "confidence",
								"offset": 1,
								"slot": "1",
								"type": "t_uint8"
							},
							{
								"astId": 9,
								"contract": "SignalLogger.sol:SignalLogger",
								"label": "txReference",
								"offset": 0,
								"slot": "2",
								"type": "t_string_storage"
							},
							{
								"astId": 11,
								"contract": "SignalLogger.sol:SignalLogger",
								"label": "timestamp",
								"offset": 0,
								"slot": "3",
								"type": "t_uint256"
							},
							{
								"astId": 13,
								"contract": "SignalLogger.sol:SignalLogger",
								"label": "triggeredBy",
								"offset": 0,
								"slot": "4",
								"type": "t_address"
							}
						],
						"numberOfBytes": "160"
					},
					"t_uint256": {
						"encoding": "inplace",
						"label": "uint256",
						"numberOfBytes": "32"
					},
					"t_uint8": {
						"encoding": "inplace",
						"label": "uint8",
						"numberOfBytes": "1"
					}
				}
			},
			"userdoc": {
				"kind": "user",
				"methods": {},
				"version": 1
			}
		}
	}
}